:02000004003DBD
:20800000B2BDAABDA2BDD3000EA383A4FF30560100A5A8A90DA3C5D5D000091286A9D126A9
:20801000069CD11A1EA6839CD126DE01C29C8897D801560100A592A07EC554C268F1DB01F8
:20802000D02992A3549468E182BE86BE8BBE0006D02492945201EC0E5202EC075204ED120B
:20803000D0228A9406C40006D0228A943B0185C40006D0228A943B0128AC001885C4563BA3
:2080400056100006B2BDAABDD02586A4A2BD92925205620F520556C10097520156C100E71E
:20805000520256C100CB520456C1014EFFEF01505206EC4D5207EC1D520856C00149D02B37
:208060009B019292D12BD02A95A9979A5492FFE8013FD028D12BDC300E92D0302B9A560112
:2080700000C4069256B325A056B30292FFEF0130D02B9B019292D12BD02A95A9979A549204
:20808000FFE80126D028D12B0E928F001F40D0262B9A07920FA46904D02602001E928AA208
:20809000767D8000D130D02E069AC492D02603921EA706A60FA7EC07D03406A707920FA6C4
:2080A000FFE60106D0252B92FFEF0102D02492925201EC2A5202EC19520456C000F9D01E04
:2080B0000692D0200F92630AD0228A920FC456B325A056B30492FFE300EBD0228A9206C427
:2080C000D0201E92FFEF00E4D01E9292D0205492634FD0228A9254C456B325A056B3049201
:2080D000FFE300D66F45D01E9292D02054926340D0228A9254C456B325A056B30492FFE324
:2080E00000C76F36D02492925201EC245202EC13520456C000BDD01E0692D0200F9265CED3
:2080F000D0228A920FC456B525A056B50492FFE500AF6FC4D01E9292D02054926519D02200
:208100008A9254C456B525A056B50492FFE500A06F0FD01E9292D0205492650AD0228A9253
:2081100054C456B525A056B50492FFE50091D0228A923B0185C46FA5D02B9B019292D12BF3
:20812000D02A95A9979A5492680FD02B2B92767D8000D0288F001F400E92D02607920FA486
:208130006903D0252B92DA2C6F71767D8028D12BD02B1EAC9B019292D02A95A9979A5492C0
:208140006838D028D12B0E928F001F40D0302B9A07920FA46504D03002001E92D4000EA44B
:2081500083A2FF30560100A5AAA90DA4C5D5D00009121EA6D130A39AD11AA9A9839AD130D9
:2081600009011E9A5B97D801A9A9560100A592A07BC554C668F0DC01D02992A4549268E006
:20817000D02E0692D0300F9256B532A056B50192D0369292ABA65201EC09D01E0692D02004
:208180000F92631E0FA663096F1BD01E0692D0200F9265160FA66214D0329292EC11D02E34
:2081900006926509D0300692D126D02556BF07921E9A6F0DD025D13056BF08926FFAD02065
:2081A000AB926F05DC2CDA2B0AC40AC282BE86BE8BBE000688A9A8A9C5A4EC12D5006F0265
:2081B000DD010EA58AA7FF31560100A492C454A6ED055200EC058AD400065200EDF2D400D4
:2081C000000688A9C5A42BAC6F0492AC9C012DA99A0C37A906A707AB8AA993C455A6ED04A9
:2081D0005300EC0400065300EDF1D4000006B2BDAABDA2BDFE04520486A4A044FFE801B206
:2081E0008A4492CC5208FFE601AD520056C101AAD0252B92D1260200D029C5A22B928A44BC
:2081F0001E9AD02C2B92D12ADF2ABE00D02BD300560308DC94D4969AD13092C79692D0281F
:2082000002002B92D02D56BF02921E9AD020D104C292D0322B926F77D0038A4492A128ACDB
:20821000001872A088942901D00272A006A6563B0D9C1EA625941EA7D00192A172A006A70F
:2082200007A61EA75603089407A78AA21EA60EA3FF30560100A4C2D46F35761F027D834449
:208230008A00D00392A172A08AC4560308959B0295A158A89495767D81AAA8A956C1015273
:208240000EA3C4C483A2FF30560100A5C2D56F1A761F027D83448A00D00392A172A08AC4AA
:20825000560308959B0295A158A89495767D81AAA8A956C101370EA383A2FF30560100A55D
:20826000A8D5AAA9C4A2D0048A440DA383A9DE2892A172A09294D01296958AA2D01272C686
:20827000DC2D56030195D028939272C428A91F4000FD90F4DB01D905D03428A81F409FA9BD
:208280000EA81E928A4492A354CCFFE800CD8A44929CD024D9019692929CD901EC61520107
:20829000EC315202EC1B520356C000FC761F027D83448A00D00392A172A08AC4560308952E
:2082A0009B0295A158A89495767D81AAA8A956C100E906C4D0221E926F5E761F027D83443F
:2082B0008A00D00392A172A08AC4560308959B0295A158A89495767D81AAA8A956C100D274
:2082C0006FEA761F027DD0018344820092A172A0560308958AC3D003949D964192A172A06F
:2082D000560308959B0295A158A89495767D81AA83A4A8A956C100B68AD392C5767D81C150
:2082E000A8A956C100AFD00A9241C5948AA53E67D022A892D0220692ED1EFFEF00A3D00368
:2082F0008A4492A128AC001872A088942901D00272A006A6563B0D9C1EA625941EA7D0014C
:2083000092A172A006A707A61EA756030894D02207A71E92D904D0038A4492A172A028AC1D
:20831000001883A48894D00272A08095D00106A68AA2563B0D9D1EA692A172A006A7FF3F21
:2083200007A61EA70E95D01EFF3707A71E92767D8028D904D0201E9228AC0018D00392A19C
:2083300072A08895D00272A0809506A6D001563B0D9D1EA692A172A006A7D904FF3F07A6CF
:208340001EA70E95D02EFF3707A71E92C5A5D029929DD136969A92CD9692D02592C796925D
:208350009A006F408A44929CD90156C1FEB75201EC08520256C1FEEE520356C1FED06F31AA
:20836000761F027D83448A00D00192A172A0A8AB56030895D003949D8AC4964192A172A0CB
:20837000560308959B0295A158A89495767D81AA83A4A8A9EC16A9A492C58AD4767D81C12C
:20838000A8A9EC0FD00A9241C5948AA53E670EA383A2FF30560100A5A8D5A8A956C0FED301
:208390009A01FE8482BE86BE8BBE0006C5A4B2BDDF2592C7D02A290196C5C5A428AC0018D4
:2083A000D108DF2992C796CD9294D02A90FF96D59294D026FFC796DD9294D02690FF96E58B
:2083B0000694D026FF4790FF96ED0694D02691FF97F50694D01A562296FD929490FFD01AEB
:2083C000969DD1090694D01AFF4790FF969D3B01D10A069491FFD01A979DD10B0694D02E31
:2083D0005610969DD10C929490FFD02E969DD10D0694D02EFF4790FF969DD10E069491FFAA
:2083E000D02E979DD10F0694D030561090FF969DD110929490FFD030969DD1110694D03064
:2083F000FF4790FF2901969DD112069491FFD030979DD1130694D034561090FF969DD1146B
:20840000929490FFD034969DD1150694D034FF4790FF969DD116069491FFD034979DD117B3
:208410000694D01C5622969DD118929490FFD01C969DD1190694D01CFF4790FF969DD11AFB
:208420000694D01C91FF979D0694D01B562296959A1C8BBE0006B2BDAABD3100BE07B60043
:20843000A2BD28C4FFFFB50C00A60EA78BA4FF30560100A1A8A9A9D10DA7D01283A9DF0104
:208440002B958D808000D01A0200D13476C01F40AA94BDA90F16761F027DD01EC39CD3004C
:20845000BDA90F12E2030194D02076801F408300D114E2030094D0242B94D0252B94D0228C
:208460001E94D0282B94D0292B94D026A294D02A2B94D02B2B94D02C2B94D02D2B94D02EC7
:20847000A994D0322B94D0301E94D03656BF0194D01CC294A89D82BE86BE8BBE000680A909
:20848000A8A9A8ABED0456BF43C56F15BE006F02DE010EA6A9A4FF31560100A492C454A71B
:20849000ED065200EC068AD42BC500065200EDF156BF40C5D400000683F456BF02E456BF96
:2084A00021CDC5D43E670006B2BD92EC522EFFE800FB83F456BF2EE42BCD83F456BF05D53F
:2084B000C4F4761F027D83002BDEC4F4D010929590FF96E6C4F4D0109295FFC796EEC4F4C9
:2084C00092EC96F6C4F456BF10FEC4F4D00856BF8196C4F4D00956BF4A96C4F4D00A56BFCE
:2084D0007596C4F4D00B56BF6C96C4F4D00C56BF3296C4F4D00D56BF3996C4F4D00E56BF42
:2084E0003296C4F4D00F56BF3096C4F4D01056BF3196C4F4D01156BF3596C4F4D01256BFA6
:2084F0003196C4F4D01356BF3496C4F4D01456BF3396C4F4D115D01256BF309E0695ED0DB9
:20850000BE0C92A6D016C5F4DE8172A01BA6FFFF56BF2D97EDF76F56D012C595C4F4D0162E
:2085100092C79696D012C49592CEC4F4D117D012969EC49592D6C4F4D118D012969EC495A4
:2085200092E6C4F4D119D012969EC49592EEC4F4D11AD012969EC49592FEC4F4D11BD0120A
:20853000969EC595C4F4D01CDF0892C79696D012C595C4F4D01DDF0992C79696D012C59503
:20854000C4F4D01EDF0A92C79696D012C595C4F4D01FDF0B92C79696D012C595C4F4D020D1
:20855000DF0C92C79696D012C595C4F4D021DF0E92C79696D012C595C4F4D022DF0F92C717
:208560009696C4F492F5D02390FF969692FDC4F4D024D12590FF9696D008C4F4290192FDAD
:20857000FFC7969ED126C4F4069590FFD008969ED127C4F40695D008FF47969ED128C4F4BE
:2085800028AC00180695D008979EC4F40695D02956229696C4F492A5D02A90FF9696A0A96A
:20859000C4F4FF47D02B90FF9696C4F4A0A9D02C91FF9796A0A983F4D02D56229695C5D464
:2085A0003E676F049A15767D862E8BBE0006C4F4761F027D83002BCE92F583F490FF96D5BE
:2085B000C5D456BF03E43E670006B2BDFE028BA48AF1761F027D560308D494CC8A005DAD15
:2085C00058A9DD818AC4767D847F9241ED62C40006E6EC17D500C5E60EA5FF31FF5A560110
:2085D00000A792A054C7EC07C5E6A9A9560100A792C7ED4D83E6A9A9560100A592C5ED39E2
:2085E00006D6ED039A446F4580C42BAC83D69A0C36A9FF5A560100A592A754C5EC0783D631
:2085F000A9A9560100A592C5ED2083D6A9A9560100A592C5EC1883D6A9A9D008560100A538
:20860000C59583F192E19CFDDD033E675200ED098AF156BF02E12BCCC5D18AA13E676F1C58
:208610009A146F179A416F1592AC9C012DA96FCF83E6A9A9560100A5C5D583F192E19CFDF7
:20862000DD033E675200EC089A426F03DD016FA48AA1767D862EFE828BBE000683F456BF03
:2086300002E496CDC5D43E670006B2BDFE02761F027D8BA4C4F18A005DADDD81560308D60D
:208640008AC494CE767D847F9241ED34C40006D6ED039A446F2F80C42BAC83D69A0C36A97B
:20865000FF5A560100A592A754C5EC0783D6A9A9560100A592C5ED1A83D6A9A9560100A5C4
:2086600092C5ED039A416F1683D6A9A9560100A5C5F583F1DD023E678AF19B0295A997E12C
:208670002BCCC5D18AA13E676F0892AC9C012DA96FD58AA1767D862EFE828BBE000683F409
:208680009B00DD0192C55203620A5203EC1A5200EC2A5201EC225202EC1A6F055204EC0B0A
:208690005205EC039B226F23761F027DC40056BF05F66F1D761F027DC40056BF04F66F1754
:2086A000761F027DC40056BF03F66F11761F027DC40056BF02F66F0B761F027DC40056BF08
:2086B00001F66F05761F027DC4002BF697C5C5D456BF02E43E67000676C0A100BE1A8D3D32
:2086C000849C83A73AC5DD02000EFFFED008C3940006B2BDD00876BD84A48F7D85A776FDE5
:2086D00085B5AABD8A94D1248DBD867FD022C2C476BD8635A0D4AAE4C39CC29486BE8BBEDD
:2086E0000006B2BDD00C76FD87DBD10D76BD86F296ECA0F497942B9CC3C4C2D4D00F2B9408
:2086F0008BBE0006B2BDD00ED10F2B9456BF019C8BBE000693C45355EC055302562A00C5A4
:20870000ED07761F02839739963856BF04C50006B2BDAABDA2BDE20304BDE20305BDFE0247
:20871000761F027D8B00D014BDA40F22069156C100BBD0148A91D0259294520456C000B491
:20872000BFA40F22D00A8A94D008C5943E67D0148A91D02D93949D0455A9FFE600A0D014AC
:208730008A91D02A9294D0148A91D02B5494FFE60096D0148A91D12B2B9CBFA10F22D00A64
:208740008A919A02C5C43E67761F027D8300D00A8A91D0148395C5C4D02D92953E67D00A80
:208750008A9186A1D00C9292C5C43E67761F027D8300D00A8A92D0148395C5C4D02CCC952A
:2087600000FF3E67761F027D8300D00A8A92D0148395C5C4D02C9295FFC73E67761F027DA1
:208770008300D10CD014929A8A95D114C49DD02D9494D02C9396D01491FF8A9595A9D30026
:20878000D02C9294FFC794A89C0296420EA3FF30BDA90F2677007700D100D0148A95BFA99A
:208790000F260902560100A48AC45A9CBFA40F22D00A8A9492A2C5C43E67BFA40F22D00AEE
:2087A0008A9492A2FFC79641C5C43E67D901761F027DD014CCA200FF830094429441964257
:2087B0000695D0120DA38AA992A1549468D7D0148A95DB0192A3D029549468C9924290FF66
:2087C00052029642ED041CA9FFFF9642BFA40F22D00A8A94C5C43E676F060201761F028395
:2087D0005601003AFE82E2AF05BEE2AF04BE82BE86BE8BBE0006B2BDAABDFE0286A4FFEF10
:2087E0000093D00E92925203620A5203EC2A5200EC7D5201EC6F5202EC5C6F1E5204EC4E96
:2087F0005205ED1AD010929290FF5255EC07520256B010A0562A0092ED061CA9FFFFD0102C
:2088000090FF9692D00A8A92C5C43E67D00A8A92D00AC5943E67D10FD00D2B9A2B926F639E
:20881000D011889206F2D0110DA68AA918C400FF889206F2D00A0DA68A9283A9C4A292C50F
:20882000DE1072C692C5C5C43E67D011889283A292A6DD0E9EE21BA9FFFFEC0606F20DA66B
:208830008AA99A036F0506F20DA68AA99A05767D86FA8AA2DC110AC46F36D00A8A929A00D8
:20884000C5C43E67761F0283D00E923896926F2BD00C9292D00A8A9283A2DD1072C5C5C49E
:208850003E679A038AA2DC0C83A2DD0E767D86FA6F1AD00A83A28A9292E2DD1072C5C5C46A
:208860003E678AA29A02DC046FF0D00AD1118A929A552B9AD01056BF5592C5C43E67D00ED8
:2088700056BF0192D00F9292520156C000A5D00A8A92C5F43E67520056C0FF65FFEF009C85
:20888000D00A8A92C5D43E67D00D939296415303620C5303EC4D530056C100825301EC68E4
:208890005302EC5CFFEF00865304EC2B530556C00081D010929290FF5255EC07520256B0D3
:2088A00010A0562A0092ED061CA9FFFFD01090FF96925441ED148AF292C4521A69069A21AB
:2088B0008AA2767D862E6F670EC4D0088A92FF30560100A4C5C48AA23E676F5D9A136FF1DC
:2088C0005200EC10761F028392395255ED5292419341D00DD1109C5597E256BF0292969AD7
:2088D0006F4A761F0283D00D923896926F44D0118AA283F29341D1115892DC1072C48AA2C3
:2088E000DC119795929A9C0183A20AC4DD0D54E2EC039A036F1D9A056F1BD00C92925441AD
:2088F000ED28C4A29241DE1072C69A036F0F5200EC2092EA544168119341D011C4A2924103
:2089000097E22B92DE1072C69A0283A2DD0D5CADDC81767D86FA6F0F9A156FA3525556B18A
:2089100010A156B10DA056B1559A56B101926F03D00D2B92D00F9292ED08D00A8A92C5E4AF
:208920003E67520056C0FF5E8AA2767D8708FE8286BE8BBE0006761F01C196190006761F6B
:2089300001C1471556BD031156BD2311CC1700FF0006761F01C1931A9A04FFD7911F9EA845
:208940000006761F01C19A00CD1B1F00530056B001A900067622761F01C08F406F80D0098B
:208950001A1C0400761F01BECC95F7FF1AA90400DD0D96091AC52000CC09FDFF1AA901003E
:2089600096091A0D1000761F01C156BF07102B1156BF23112B142B1256BF6113281AE040B2
:20897000281B60402B1C2B1F761A76FD892F76BD8941FF698D3D892B8F7D8939C3D4C2E4CA
:208980003AC4A0F4000676228F3D8FC8761F0034A806A808A80AA80CA80EA810A812A81413
:20899000A816A818A81AA81CA81EA820A822A824A826A828A82AA82CA82EA830A832A834F7
:2089A000A836A838A83AA83CA83E761F0035A802A804A806A808A80AA80CA80EA810A81241
:2089B000A814A816A818A81AA81CA81EA820A822A824A826A828A82AA82CA82EA830A832F7
:2089C000A834A836A838A83AA83CA83E8F7D8FD7761F0036A800A802A804A806A808A80A06
:2089D000A80CA80EA810A812A814A816A818A81AA81CA81EA820A822A824A826A828A82A57
:2089E000A82CA82EA830A832A834A836A838A83AA83CA83E761F0037A800A802A804A8065D
:2089F000A808A80AA80CA80EA810A812A814A816A818A81AA81CA81EA820A822A824A82677
:208A0000A828A82AA82CA82EA830A832A834A836A838A83AA83CA83E761F0035A000761A18
:208A1000FF690006768003E7F65A7700000EFFFEFF6900067622761F01C04311EEFD8F00FC
:208A20007010D01956BF6894D01118CCFE7F1A110040CC94FFE0500996214011EEFF83A45B
:208A3000C4A4D019DD0118C5FFBFDE0B1A11018083A456BFA894761F01BEDD0C18C6FFF83D
:208A4000DC0D76806F801AC500081AC400018AA6DC1ADE161AC4000418C6FFCF181AFFFDAC
:208A50001816FFF33B108F000CE01AC4000128CCFFFF1AD400017623000129108F0071008D
:208A60001AC48000F6027700FF691AC400801AC400401AC40020767D8A1283A4D020DD12B2
:208A7000761F01C41AC40004C4A41AC44000DE081AC600201AC500011A1200021A12000400
:208A80001A1200081A1200101A1200201A1200401A120080CC94FFC05006D0198F006800AD
:208A900096201820FC3FCC2007FF1AA928009620761F01A028EC11941AC4C00018C4FC7F26
:208AA0001AC40030CCC4FFFE500296C4CC94F8FF1AA90200D01A96191A190800CC94FDFF23
:208AB0001AA90100961A761F01C01A1C0004761AFF690006B2BDAABD83F49A0227ED94AB68
:208AC00054EC666E88E528AC0018290106A6563B0DCD1EA625DD07A61EA7560308D507A7CC
:208AD0001EA792F55201EC455202EC2C5204ED5692ABEC4D9A0394AB2BAA2901FFC19CFF05
:208AE00088A9B51D00A6D00292AAD10393AA72A092C7969573A19A0483F494AA58A906C7E3
:208AF000FF4786A97A9D83F4D10506C7979592AA72A12FA083F40687562286A97A9D83F43D
:208B00006F2692ABEC249A0194ABFFC09CFF88A99A00B50C00A6D002D10372A093C772A1E8
:208B1000979583F492A09387FFD7979D83F46F0F92ABEC0D9CFF88A99A00D00293C772A07D
:208B200097959C0183F4DF01000EFFF99A0294AB96E42BCDC5D43E676F069A146F029A1541
:208B3000767D862E86BE8BBE0006B2BD8BA483F188E528AC00182901761F027D06A6563B05
:208B40002BAC0DCD1EA625DD07A61EA7560308D507A78AA9C50027C46F0492AC9C012DA941
:208B5000C4D79A0C36A98EA9560100A692AB54C6EC07C4D73AA9560100A692C6EDEFC4D71D
:208B60003AA9560100A692C6ED069A418AA1767D862E6F10C4D73AA9DD02560100A6C5F689
:208B70003E678AF19B0295A997E12BCCC5D18AA13E678BBE0006B2BD8BA4AABD83F188E5E0
:208B800028AC00182901761F027D06A6563B2BAC0DCD1EA625DD07A61EA7560308D507A7A1
:208B90008AA9C50027C46F0492AC9C012DA9C4D79A0C36A986A9560100A692AB54C6EC0728
:208BA000C4D7AAA9560100A692C6EDEFC4D7AAA9560100A692C6EC17C4D7AAA9D008DD05A8
:208BB000560100A692E1C5969CFB3E675200ED098AF156BF02E12BCCC5D18AA13E676F0710
:208BC0009A146F029A418AA1767D862E86BE8BBE0006B2BDD00876FD8ABA76BD8B358A9427
:208BD0008F7D8B7BD110D012C394D00EC294A09C8BBE0006B2BDAABDA2BDFE02D00B83E423
:208BE0003B012794D0092DC5C5D41294FF1E00018F7D910CD001FF4E93AB95A927A892AB07
:208BF0009741FFC759A972A0CCAB00FF93952DA9D00B9F9D3F94D00A12A8FF475A94939D5D
:208C000095A92DA812C7FF1E0001FF4E81A22901FF5AFF2080000FAB56C5000C3B01FF207C
:208C100080010FAB56C5000928AB800156CF000576807FFFA3A62D4108ACAAABD00193AC23
:208C20003B01FFD759A85BAB889D73A09295CDAC00FF9EA62DA812A9FF4793A695A92DA8DE
:208C300012C7FF1E0001FF4E81A2FF5A2901FF2080000FAB56C5000C3B01FF2080010FAB24
:208C400056C5000928AB800156CF000576807FFFA3A628A85555954188ABD00192A83B01EB
:208C5000FFC791FF59A92DA8279D72A092959EAB12A9FF4793AB95A92DA812C7FF1E000148
:208C6000FF4E81A22901FF5AFF2080000FAB56C5000C3B01FF2080010FAB56C5000928ABF4
:208C7000800156CF00058F407FFFA0ABD0087BF47EFCFE823F9482BE86BE8BBE0006520464
:208C8000EC049B0156CF000D560308CDD00994C59694D00A560308DD9B0094D5969492A80C
:208C90000006D0099294D00990FF96C59294FFA7D00A90FF96CD929490FFD00A96D59A04CC
:208CA0009394FFB791FF97DD0006B2BDD00BD1082BF42BFC28C401B12B942B9C8BBE0006F1
:208CB000520356C2000A5203EC0D5201EC155202EC1156CF000E5204EC075205EC0756CF4F
:208CC0000008DC060006DC070006DC080006D40000068AE400068AD40006761F002C560305
:208CD0000300761F0282960E761F002C56030301761F0282960F761F01BF4108EE05761FC2
:208CE00002822B106F05761F028228107FFF767D8DF8761F02828A0092C4ED06761F01BFB9
:208CF0001A0A00046F05761F01BF1A0C00047622761F01C056BF552556BFAA25761AFF69F0
:208D00000006B2BD8F7D92A28F3D92C1A0A9AABD564100A4A8A98F00A33A767D907E764020
:208D1000A33A767D8983767D8F848D809F428AA2767D903F8D409F4E9AFF9B018F409F80A8
:208D20008AA1767D86E18AA1767D86BC8AA1767D86C98AA1767D8BC98AA1767D8FAF8AA1E8
:208D300083A2767D9038761F027D8A0056BF01F47622761F01C056BF552556BFAA25761AAA
:208D4000D11076FD928AD01276BD920E8F7D9256FF6956BF019CC394C2D4A0C48AA2767D70
:208D5000894A767D8A1A7622761F01C056BF552556BFAA25761AFF69767D8E097622761F89
:208D600001C056BF552556BFAA25761A761F027D8A00D00C8394FF69D00CC5C58A943E670D
:208D70006FF6B2BDD00A83E488943B01D0082DC512FCFF1E0001FF4E8F7D910C80A993A628
:208D8000929495A7D00188A894A693A9FFD790FF59A873A02DA9809D9395D00AD1099FA76C
:208D900083D47E9412A8FF4793A795A92DA812C5FF1E0001FF4E819CFF5A2901FF2080008C
:208DA0000FAB56C5000C3B01FF2080010FAB56C5000928AB800156CF00058F407FFFA0AB02
:208DB0003FF48BBE00065206EC049B0156CF0011560308CDD00894C596FC560308DD94D56F
:208DC0009694D009560308ED9B0094E5969492A8000692FC90FFD00896C592FCFFA790FFB1
:208DD00096CD9294D00890FF96D59294FFA7D00990FF96DD929490FFD00996E59A069394B1
:208DE000FFB791FF97ED0006D00A28C401A12BF42B9400065201EC0B5202EC075203ED0381
:208DF000DC060006D40000068AE400068AD400068F00A09E767D8D718F00A0AA767D8EDFD2
:208E00008F00A092767D8BDA8F00A0C0767D80420006B2BD8F00A08BAABD761F0282A8A995
:208E10008D80A082A2BD8F40A0888D40A09E8EA27680A0AA8DC0A0850901280D4000282504
:208E2000199A2B262B272B28280401062B072B332B342B35280A7FFF281B199A2B1C2B1DD2
:208E3000D801C5A3FF5AE20304BDDF01B2A9BDA50F223A223A16A920A914E20305BDC32C4C
:208E4000DD010906BDA60F26A0301E2EDE08C200767D90738AA1767D8DE48AA2767D907322
:208E50008AA3767D9073BFA60F268AA6767D8F21BFA50F228AA5767D90738F00A092767D04
:208E60008CA58F00A0C0767D842BE2AF05BEE2AF04BE82BE86BE8BBE0006B2BDFE0683A41C
:208E70008BA65CAD06C5C4D5DC868F7D929E1E46C244767D900B5200630788AD5CADDE8650
:208E8000DC86767D9103B2A9C446C544EC03C2C1C3D1FE868BBE0006FE02E5A0FE82AD14DC
:208E9000E6A4000000065280EC0552006304FF5C00069A7F0006FE04A9A41EA631009A0058
:208EA00028A88000A9441E42A8AB06A600FD909F5200EC07565E06A6565E630B56586F09FD
:208EB00028ABFFFF28AAFFFF28A9FFFF28A87FFFFE8400061EA69A0028A880000FA6EC0508
:208EC00006A66307FF54000628A9FFFF28A87FFF00061BA98000EC0552006305FF5C0006B0
:208ED00028A97FFF000600069B00520056B001A892A800069A0000060006D400000683E464
:208EE000D00992C5549456C30010D00A549456C40007D00B9294EC0556CF000AD00B2B9493
:208EF000C5F456CF0006D00B56BF0194C5D4D00892C7969400065204EC049B0156CF000DEB
:208F0000560308CDD00994C59694D00A560308DD9B0094D5969492A80006D0099294D00969
:208F100090FF96C59294FFA7D00A90FF96CD929490FFD00A96D59A049394FFB791FF97DD46
:208F20000006B2BDD00BD10856BF81C42B942B9C8BBE00065201EC115202EC0D5203EC05F6
:208F30005204EC0556CF00068AF40006DC080006D40000068AE400068AD4000628ADA13ADF
:208F4000FF69561F5616561AE61002002940761F00002902761B762228A992C128A8003DDD
:208F50000901611B76FD92C129046F0F9B0024A9DF016C04290424A8DF011EA6F7A1248673
:208F600006A781A109011EA724A96303FF5C3B0459A9DF010009FFEC761A28A9FFFF28A881
:208F7000FFFF0901610E76FFFFFF6F06DF01C3BD1EA73E67C5BE24A9DF0124A8FF5860F70E
:208F8000767D90BD767D90D8761F027DB2BD3100B6008300BE000200D108D00AD40087007B
:208F9000A9C5C3D5C2E5BE012BF52BFD1E9D2B950EA4ABA7D00CDC01FF30560100A7A99768
:208FA000000EFFF8D010B6002B95BE00D1160200D012C395D014C2951E9D8BBE0006761F9B
:208FB000027DC400B2BDD00A929652026710D00A9A019396D10A2BAA830027A894A8D00C6A
:208FC000969EA9A9FF30560100A5A8958BBE0006761BFFF0E20000BDE63006002942561642
:208FD0007622761F01C056BFA829761A6F00761BFFF00005ABBDA8BDA0BDC2BDC3BDE2001E
:208FE00000BDE20300BDE20301BDE20302BDE20303BDE6300600FF6929425616761F01C471
:208FF0001A050001761F003356BF0121767D8CCDE2AF03BEE2AF02BEE2AF01BEE2AF00BEB4
:20900000E28000BEC5BEC4BE83BE8ABE87BE0003FFF17617760206D428A700010FD556B2CF
:2090100002A756B400A7600806C40FC556B602A756B800A7611906D4FF901BA8FFE0680C7D
:2090200006D5FF901BA8FFE0680706D4FFDE92DDFFCE9EA800060BA73B0185DC92A7CFDD42
:209030006302FF5C00069A00000600069A000006D00AA09400069A0000069A000006B2BD51
:209040008F7D903576FD905AD108AABDD00A76BD905C8DBD903BA2BD8DFD903DA0C4AAF4DC
:20905000A2E4C39CC2948F7D9036A0D482BE86BE8BBE00069A00000600065202EC049B0126
:2090600056CF0008560308CD94C59B0096D496CC92A8000692D490FF96C593D49A02FFB78C
:2090700091FF97CD000692D456BF31C496CC00065201EC03D4000006DC010006FF5A92AB79
:209080008EA4C5A4EC079CFF88A992859687000EFFFE92AB88A9A9A90FA6EC1093AAEC0E8F
:20909000A9A99DFF5CA876BFFFFE92859687000EFFFE92859687000CFFF88AA0000628AC22
:2090A000FFFF0F426009A9A90F4456B100AC56B601AC92AC762056B100AC56B201AC92AC6D
:2090B000762028ACFFFF0F426003A9A90F4456B100AC56B601AC92AC762028ABFFFF28AAFC
:2090C000FFFF28A9FFFF28A8FFFF0FABED04BE00D4006F098AA928A9FFFF28A8FFFF88C424
:2090D00009028AA992A6767D8D01000677006F00B2BD761F0283C53E59A93E67761F02844F
:2090E0000638EC041EA792A13E67761F02840636EC031EA73E67767D90D68BBE000697A610
:2090F0009B00F60F1FA6762097A69B00F60F1FA692A87620761F0283A83C0006761F0283D5
:18910000A83E0006000606D4A3C4565E61031CA880001ED6A9C600065F
:20910C00000003240648096A0C8C0FAB12C815E218F91C0B1F1A2223252828262B1F2E115E
:20911C0030FB33DF36BA398C3C563F1741CE447A471C49B44C3F4EBF5133539B55F558423E
:20912C005A825CB35ED760EB62F164E866CF68A66A6D6C236DC96F5E70E2725473B57504B4
:20913C007641776B788479897A7C7B5C7C297CE37D897E1D7E9C7F097F617FA67FD87FF598
:20914C007FFF7FF57FD87FA67F617F097E9C7E1D7D897CE37C297B5C7A7C79897884776BC1
:20915C007641750473B5725470E26F5E6DC96C236A6D68A666CF64E862F160EB5ED75CB3A9
:20916C005A82584255F5539B51334EBF4C3F49B4471C447A41CE3F173C56398C36BA33DF3D
:20917C0030FB2E112B1F2826252822231F1A1C0B18F915E212C80FAB0C8C096A06480324C3
:20918C000000FCDCF9B8F696F374F055ED38EA1EE707E3F5E0E6DDDDDAD8D7DAD4E1D1EFB7
:20919C00CF05CC21C946C674C3AAC0E9BE32BB86B8E4B64CB3C1B141AECDAC65AA0BA7BEB8
:2091AC00A57EA34DA1299F159D0F9B189931975A959393DD923790A28F1E8DAC8C4B8AFC22
:2091BC0089BF8895877C8677858484A483D7831D827781E3816480F7809F805A8028800B1E
:2091CC008001800B8028805A809F80F7816481E38277831D83D784A485848677877C8895D5
:2091DC0089BF8AFC8C4B8DAC8F1E90A2923793DD9593975A99319B189D0F9F15A129A34DCD
:2091EC00A57EA7BEAA0BAC65AECDB141B3C1B64CB8E4BB86BE32C0E9C3AAC674C946CC2119
:2091FC00CF05D1EFD4E1D7DADAD8DDDDE0E6E3F5E707EA1EED38F055F374F696F9B8FCDC73
:20920C0000000000003100008ED3003D9073003D906A003D905D003D9078003D01A10000EB
:20921C008D71003D8DE4003D8DC9003D8DB3003D8DEA003D008100008EDF003D8F21003D6D
:20922C008F0D003D8EFB003D8F2A003D01B100008BDA003D8CA5003D8C91003D8C7F003D29
:20923C008CB0003DFFFF00008042003D842B003D8396003D81D7003D0000000000000000C5
:20924C00000000000000000000000000000000000000000000010000A08B000000020000D4
:20925C00A0AA000000030000A082000000040000A085000000050000A08800000006000027
:20926C00A092000000070000A09E000000080000A0C0000000090000A08E0000000A0000C2
:20927C00A08F0000000B0000A0900000000C0000A08000000000000000000000004A00757D
:20928C00006C0020003200390020003200300031003500310034003A00330030003A003077
:0C929C0000320000000000000000000094
:2092A20076228F400A80761F002A8AA5DC021AC400031ADD0100CCF5FFF050039606CC06A5
:1E92B200F3FF1AA903009606CCFDFFE0500596071A000001761AF6087700FF69000622
:2092C100FFFEA0FC00009102003DFFFEA0FE00009102003DFFFEA136000000000000FFFEE8
:2092D100A138000000000000FFFEA0FA000000000000FFFE9F4000009F6000000000000032
:02000004003FBB
:047FF600007D8F3E3D
:00000001FF
