:020000040000fa
:080000000002040000000000f2
:020000040000fa
:10000800060400000a0400001c0400000e0400009e
:1000180012040000160400001e0400001a04000068
:100028001a0400001a0400001a040000082b00003b
:100038001a0400001a0400001a0400001a04000040
:100048001a0400001a0400001a0400001a04000030
:100058001a0400001a0400001a0400001a04000020
:100068001a0400001a0400001a0400001a04000010
:020000040000fa
:100400004f6322000eff27000e018800000000004d
:10041000000020000000e000020032000001200087
:10042000200288000c000700202823000100200083
:100430000f000700000020000000e0000200320072
:1004400000000200000000006e2e0200000000000c
:100450000040da000000fe0080f320000000e00011
:1004600002003200002020009001880000000600f9
:10047000a1028800800078000000eb001a0037001d
:10048000e280400054a0b4009101ba00e280400034
:1004900054a0b4009102ba00e280400054a0b4001d
:1004a0000002eb00472bde00f507b200a601880032
:1004b000602ce10008003a000049eb000201e8006e
:1004c000020039003420ec0002f0a0008301e900b2
:1004d000f9ff3e00040037006128e100010032000e
:1004e0000082eb00040007001101ba000200e000e6
:1004f000e3ff3a000000060004d0a300e20f490029
:100500001c003900810278003549ba000201e80078
:10051000020039003420ec0002f0a0008301e90061
:100520000f0032002549ba000201e800020039003c
:100530003420ec0002f0a0008301e9000800320042
:100540000400e0000600320015c9ba000201e8000c
:10055000020039003420ec0002f0a0008301e90021
:100560008180e80054a0b4000300e000e2ff3a00fc
:10057000000006009102ba00055978008301e900e5
:10058000f7ff3200c82ade00055978008301e90030
:10059000f3ff32000400e000f1ff320011d9ba008d
:1005a000eeff37005021040000000000342004005a
:1005b000000000008824040000000000a2230400c2
:1005c000000000000c240400000000003a25040094
:1005d000000000000a1c040000000000681e040067
:1005e00000000000841c0400000000001a1c04002d
:1005f00000000000761d040000000000e61c04005e
:100600000000000098310400000000009a3104004e
:10061000000000009e31040000000000a231040030
:1006200000000000a631040000000000aa31040010
:10063000000000003a2f0400000000005e310400ba
:100640000000000068310400000000007431040064
:10065000000000008c31040000000000f62f0400b0
:1006600000000000283004000000000034300400c6
:100670000000000048300400000000006a30040060
:10068000000000005a320400000000006232040042
:10069000000000003c2f040000000000402f040078
:1006a000000000006c32040000000000562d040021
:1006b00000000000f42d040000000000122e0400d1
:1006c00000000000222e0400000000003c2e040068
:1006d000000000002c32040000000000383204004a
:1006e000000000004432040000000000fc3104005f
:1006f0000000000006320400000000000e3204007a
:10070000000000002032040000000000442c04001f
:1007100000000000e42c040000000000f02c0400a5
:10072000000000000c2d0400000000003a2d040021
:10073000000000009430040000000000d6300400e7
:1007400000000000e030040000000000f030040071
:10075000000000000a310400000000003026040000
:1007600000000000ba27040000000000ca270400af
:1007700000000000de270400000000000028040044
:1007800000000000242b040000000000de2b040009
:1007900000000000ea2b040000000000022c04000e
:1007a00000000000282c040000000000ca310400f2
:1007b00000000000dc31040000000000e63104000d
:1007c00000000000a215040000000000481504000d
:1007d000000000003018040000000000e8180400c9
:1007e00000000000061c040000000000f6290400c0
:1007f00000000000fc290400000000000c2a040096
:1008000000000000122a040000000000c028a90017
:10081000ffff3700c068a900ffff3700c048a900ec
:10082000ffff3700c088a900ffff3700c0a8a9005c
:10083000ffff3700ffff3700ffff3700ffff3700e4
:100840008f1fd100050007008f87e9000000e0003e
:1008500000000600140020003b003700889fbe0007
:100860008a9fbe008c9fbe000404be000605be0029
:10087000809fbe00829fbe00210007000406780012
:100880000800be000a01be001d00070084067800b3
:100890004f03be004f02be008d4f76007fb0970021
:1008a00013003300f0ff2f008b8f6b0006003b001e
:1008b0000d0666000c00a7000a00370007f0a6002e
:1008c000100020000a003700880f5200898f5a005c
:1008d0008a0f5b008b8f5b00030039001000200043
:1008e00001003e000000200007f0a7000000ea0021
:1008f0004f06be004f05be004f04be0000000600bc
:1009000005ff270005826100070032000428e1008e
:1009100001003200240005000600070001003a0033
:10092000440005000408050002000700f9ff3a0032
:10093000140005006f826100810270008502710061
:100940008502720000000600889fbe008a9fbe00dc
:10095000841f7800170007004f0078001100330053
:10096000f0ff2f00838f6c0006003b00040565003c
:100970000a00a7000800370009f0a60010002000b8
:1009800008003700820f5400838f5c000300390099
:100990001000200001003e000000200009f0a70028
:1009a0000000ea004f05be004f04be000000e0005a
:1009b000000006000004be00060007000003be00a1
:1009c0000405be000200be0002000700844f75004f
:1009d00000000600c70ade00f107b200f50fb20002
:1009e00008003200e1cf4200020032000170a00096
:1009f00024000500810f700001003200040805008a
:100a000044000500810f700002003a001400050048
:100a10008502e9000000400081c04800fcff3b0067
:080a20000170a0002400050094
:020000040000fa
:100a28007f7f00007f7f00007f7f00007f7f0000c6
:100a38007f7f00007f7f00007f7f00007f7f0000b6
:100a48007f7f00007f7f00007f7f00007f7f0000a6
:100a58007f7f00007f7f00007f7f00007f7f000096
:100a68007f7f00007f7f00007f7f00007f7f000086
:100a78007f7f00007f7f00007f7f00007f7f000076
:100a88007f7f00007f7f00007f7f00007f7f000066
:100a98007f7f00007f7f00007f7f00007f7f000056
:100aa8007f7f00007f7f00007f7f00007f7f000046
:100ab8007f7f00007f7f00007f7f00007f7f000036
:100ac8007f7f00007f7f00007f7f00007f7f000026
:100ad8007f7f00007f7f00007f7f00007f7f000016
:100ae8007f7f00007f7f00007f7f00007f7f000006
:100af8007f7f00007f7f00007f7f00007f7f0000f6
:100b08007f7f00007f7f00007f7f00007f7f0000e5
:100b18007f7f00007f7f00007f7f00007f7f0000d5
:100b28002f2f00003030000031310000313200003a
:100b38003233000033330000343400003535000010
:100b480035360000363700003737000038380000e7
:100b5800393900003a3a00003b3b00003c3c0000b9
:100b68003c3d00003d3e00003e3f00003f4000008d
:100b7800404100004142000042430000434400005d
:100b88004545000046460000474700004848000029
:100b9800494a00004a4b00004b4c00004c4d0000f5
:100ba8004e4e00004f4f00005051000051520000bf
:100bb8005353000054550000555600005757000085
:100bc80058590000595a00005b5b00005c5d00004a
:100bd8005e5e00005f60000061610000626300000b
:100be80064640000656600006768000068690000ca
:100bf8006a6b00006c6d00006d6e00006f70000085
:100c0800717200007374000075750000767700003b
:100c1800787900007a7b00007c7d00007e7f0000f0
:100c28007f000000ff7f0000ff7f0000ff7f0000c3
:100c3800ff7f0000ff7f0000ff7f0000ff7f0000b4
:100c4800ff7f0000ff7f0000ff7f0000ff7f0000a4
:100c5800ff7f0000ff7f0000ff7f0000ff7f000094
:100c6800ff7f0000ff7f0000ff7f0000ff7f000084
:100c7800ff7f0000ff7f0000ff7f0000ff7f000074
:100c8800ff7f0000ff7f0000ff7f0000ff7f000064
:100c9800ff7f0000ff7f0000ff7f0000ff7f000054
:100ca800ff7f0000ff7f0000ff7f0000ff7f000044
:100cb800ff7f0000ff7f0000ff7f0000ff7f000034
:100cc800ff7f0000ff7f0000ff7f0000ff7f000024
:100cd800ff7f0000ff7f0000ff7f0000ff7f000014
:100ce800ff7f0000ff7f0000ff7f0000ff7f000004
:100cf800ff7f0000ff7f0000ff7f0000ff7f0000f4
:100d0800ff7f0000ff7f0000ff7f0000ff7f0000e3
:100d1800ff7f0000ff7f0000ff7f0000ff7f0000d3
:100d2800ff7f0000ff7f0000ff7f0000ff7f0000c3
:100d3800ff7f0000ff7f0000ff7f0000ff7f0000b3
:100d4800ff7f0000ff7f0000ff7f0000ff7f0000a3
:100d5800ff7f0000ff7f0000ff7f0000ff7f000093
:100d6800ff7f0000ff7f0000ff7f0000ff7f000083
:100d7800ff7f0000ff7f0000ff7f0000ff7f000073
:100d8800ff7f0000ff7f0000ff7f0000ff7f000063
:100d9800ff7f0000ff7f0000ff7f0000ff7f000053
:100da800ff7f0000ff7f0000ff7f0000ff7f000043
:100db800ff7f0000ff7f0000ff7f0000ff7f000033
:100dc800ff7f0000ff7f0000ff7f0000ff7f000023
:100dd800ff7f0000ff7f0000ff7f0000ff7f000013
:100de800ff7f0000ff7f0000ff7f0000ff7f000003
:100df800ff7f0000ff7f0000ff7f0000ff7f0000f3
:100e0800ff7f0000ff7f0000ff7f0000ff7f0000e2
:100e1800ff7f0000ff7f0000ff7f0000ff7f0000d2
:100e2800ff7f0000172f0000752f0000d52f00004e
:100e38003530000095300000f730000059310000cf
:100e4800bc3100002032000085320000ea32000088
:100e580050330000b73300001f340000883400000e
:100e6800f13400005c350000c7350000333600005f
:100e7800a03600000d3700007c370000eb3700007b
:100e88005c380000cd3800003f390000b23900005e
:100e9800263a00009a3a0000103b0000873b000009
:100ea800fe3b0000773c0000f03c00006a3d00007b
:100eb800e63d0000623e0000df3e00005d3f0000ae
:100ec800dd3f00005d400000de40000060410000a2
:100ed800e441000068420000ed4200007443000055
:100ee800fb430000834400000d45000098450000c6
:100ef80023460000b04600003e470000cd470000f2
:100f08005d480000ef48000081490000154a0000d4
:100f1800a94a00003f4b0000d64b00006f4c000070
:100f2800084d0000a34d00003f4e0000dc4e0000bd
:100f38007a4f00001a500000bb5000005d510000bd
:100f480000520000a55200004b530000f25300006d
:100f58009a54000044550000ef5500009c560000cc
:100f68004a570000f9570000aa5800005c590000d1
:100f78000f5a0000c45a00007a5b0000325c00007f
:100f8800eb5c0000a65d0000625e00001f5f0000d1
:100f9800de5f00009f6000006161000024620000c5
:100fa800e9620000b0630000786400004265000058
:100fb8000d660000da660000a86700007868000087
:100fc8004a6900001e6a0000f36a0000c96b00004d
:100fd800a26c00007c6d0000586e0000356f0000a8
:100fe80015700000f6700000d8710000bd72000096
:100ff800a37300008c740000767500006176000011
:101008004f7700003f78000030790000237a000015
:10101800197b0000107c0000097d0000047e0000a0
:10102800017f0000ff7f0000ffff0000ff7f00003e
:10103800ffff0000ff7f0000ffff0000ff7f0000b0
:10104800ffff0000ff7f0000ffff0000ff7f0000a0
:10105800ffff0000ff7f0000ffff0000ff7f000090
:10106800ffff0000ff7f0000ffff0000ff7f000080
:10107800ffff0000ff7f0000ffff0000ff7f000070
:10108800ffff0000ff7f0000ffff0000ff7f000060
:10109800ffff0000ff7f0000ffff0000ff7f000050
:1010a800ffff0000ff7f0000ffff0000ff7f000040
:1010b800ffff0000ff7f0000ffff0000ff7f000030
:1010c800ffff0000ff7f0000ffff0000ff7f000020
:1010d800ffff0000ff7f0000ffff0000ff7f000010
:1010e800ffff0000ff7f0000ffff0000ff7f000000
:1010f800ffff0000ff7f0000ffff0000ff7f0000f0
:10110800ffff0000ff7f0000ffff0000ff7f0000df
:10111800ffff0000ff7f0000ffff0000ff7f0000cf
:10112800ffff0000ff7f0000ffff0000ff7f0000bf
:10113800ffff0000ff7f0000ffff0000ff7f0000af
:10114800ffff0000ff7f0000ffff0000ff7f00009f
:10115800ffff0000ff7f0000ffff0000ff7f00008f
:10116800ffff0000ff7f0000ffff0000ff7f00007f
:10117800ffff0000ff7f0000ffff0000ff7f00006f
:10118800ffff0000ff7f0000ffff0000ff7f00005f
:10119800ffff0000ff7f0000ffff0000ff7f00004f
:1011a800ffff0000ff7f0000ffff0000ff7f00003f
:1011b800ffff0000ff7f0000ffff0000ff7f00002f
:1011c800ffff0000ff7f0000ffff0000ff7f00001f
:1011d800ffff0000ff7f0000ffff0000ff7f00000f
:1011e800ffff0000ff7f0000ffff0000ff7f0000ff
:1011f800ffff0000ff7f0000ffff0000ff7f0000ef
:10120800ffff0000ff7f0000ffff0000ff7f0000de
:10121800ffff0000ff7f0000ffff0000ff7f0000ce
:10122800ffff0000ff7f0000ffff0000ff7f0000be
:10123800ffff0000ff7f0000ffff0000ff7f0000ae
:10124800ffff0000ff7f0000ffff0000ff7f00009e
:10125800ffff0000ff7f0000ffff0000ff7f00008e
:10126800ffff0000ff7f0000ffff0000ff7f00007e
:10127800ffff0000ff7f0000ffff0000ff7f00006e
:10128800ffff0000ff7f0000ffff0000ff7f00005e
:10129800ffff0000ff7f0000ffff0000ff7f00004e
:1012a800ffff0000ff7f0000ffff0000ff7f00003e
:1012b800ffff0000ff7f0000ffff0000ff7f00002e
:1012c800ffff0000ff7f0000ffff0000ff7f00001e
:1012d800ffff0000ff7f0000ffff0000ff7f00000e
:1012e800ffff0000ff7f0000ffff0000ff7f0000fe
:1012f800ffff0000ff7f0000ffff0000ff7f0000ee
:10130800ffff0000ff7f0000ffff0000ff7f0000dd
:10131800ffff0000ff7f0000ffff0000ff7f0000cd
:10132800ffff0000ff7f0000ffff0000ff7f0000bd
:10133800ffff0000ff7f0000ffff0000ff7f0000ad
:10134800ffff0000ff7f0000ffff0000ff7f00009d
:10135800ffff0000ff7f0000ffff0000ff7f00008d
:10136800ffff0000ff7f0000ffff0000ff7f00007d
:10137800ffff0000ff7f0000ffff0000ff7f00006d
:10138800ffff0000ff7f0000ffff0000ff7f00005d
:10139800ffff0000ff7f0000ffff0000ff7f00004d
:1013a800ffff0000ff7f0000ffff0000ff7f00003d
:1013b800ffff0000ff7f0000ffff0000ff7f00002d
:1013c800ffff0000ff7f0000ffff0000ff7f00001d
:1013d800ffff0000ff7f0000ffff0000ff7f00000d
:1013e800ffff0000ff7f0000ffff0000ff7f0000fd
:1013f800ffff0000ff7f0000ffff0000ff7f0000ed
:10140800ffff0000ff7f0000ffff0000ff7f0000dc
:10141800ffff0000ff7f0000ffff0000ff7f0000cc
:10142800ffff0000ff7f00006cac0000162f0000db
:1014380031380000752f0000cc810000d42f000047
:10144800b88a00003430000077540000953000005e
:101458008ce00000f63000007c30000059310000bc
:10146800d1450000bc3100001822000020320000e5
:10147800dfc6000084320000ba350000ea320000fe
:101488003e7000005033000004780000b7330000bd
:10149800a84e00001f340000c9f500008734000082
:1014a8000b6f0000f134000013bc00005b35000036
:1014b8008ade0000c63500001cd800003236000065
:1014c8007baa00009f360000585700000d37000027
:1014d8006be000007b3700006d470000eb37000031
:1014e8001e8e00005b3800003cb60000cc380000bf
:1014f8008ec100003e390000dbb10000b1390000a8
:10150800ef880000253a00009a4800009a3a000047
:10151800aef200000f3b000002890000863b00008d
:10152800710d0000fe3b0000d8810000763c0000f1
:1015380019e80000ef3c00001b4200006a3d000073
:10154800c6910000e53d000007d90000613e00009b
:10155800d0190000df3e0000165600005d3f000075
:10156800d18f0000dc3f0000ffc800005c40000095
:10157800a1030000de400000bb4100006041000004
:1015880056850000e341000080d00000674200005b
:1015980049250000ed420000c885000073430000a3
:1015a80014f40000fa4300004d7200008344000068
:1015b800940200000d45000010a7000097450000a8
:1015c800ea6100002346000052350000b0460000e2
:1015d8007c2300003e4700009e2e0000cd470000ff
:1015e800f65800005d480000c3a40000ee48000063
:1015f8004b14000081490000d8a90000144a0000db
:10160800b8670000a94a00003e5000003f4b0000a8
:10161800c2650000d64b00009faa00006e4c000077
:1016280038210000084d0000f2cb0000a24d000058
:1016380037ad00003e4e000077c70000db4e0000cb
:10164800271d00007a4f0000c0b0000019500000ac
:10165800c0840000ba500000aa9b00005c51000042
:1016680007f80000ff510000659c0000a45200002c
:10167800558b00004a53000070c70000f15300006a
:10168800535300009a5400009f3100004455000055
:10169800fd640000ef55000018f000009b560000a4
:1016a800a4d500004957000058180000f957000059
:1016b800f0ba0000a958000030c000005b590000d3
:1016c800df2a00000f5a0000cbfd0000c35a0000bb
:1016d800c83b00007a5b0000afe70000315c000007
:1016e8005d040000eb5c0000b8940000a55d0000fc
:1016f800a99b0000615e0000221c00001f5f000023
:1017080018190000de5f0000869500009e6000004a
:101718006f94000060610000dc1800002462000083
:10172800d9250000e96200007bbe0000af6300001d
:10173800dce50000776400001e9f000041650000a2
:1017480067ed00000c660000e4d30000d9660000d5
:10175800c9550000a86700004f76000078680000af
:10176800b83800004a6900004ba000001d6a00005c
:1017780055b00000f26a00002a6c0000c96b000036
:1017880025d70000a16c0000a8f400007b6d0000c4
:101798001bc80000576e0000ee540000356f0000b3
:1017a800989e00001470000094a80000f5700000d6
:1017b80067760000d87100009d0b0000bd72000024
:1017c800c86b0000a3730000809a00008b740000af
:1017d800689b0000757500002772000061760000a4
:1017e8006d2200004f770000efaf00003e78000048
:1017f8006d1e000030790000ac710000237a0000f3
:1018080079ad0000187b0000aad500000f7c00000d
:101818001bee0000087d0000b0fa0000037e000007
:1018280056ff0000007f0000ffff0000ff7f000060
:1018380000030000060900000c1000001316000049
:10184800191c00001f220000252800002b2e000074
:1018580031330000363900003c3f000041440000ad
:10186800474900004c4e00005153000055580000f5
:101878005a5c00005e600000626400006668000058
:101888006a6b00006d6f00007071000073740000d7
:1018980075760000787900007a7a00007b7c000079
:1018a8007d7d00007e7e00007e7f00007f7f00003f
:1018b8007f7f00007f7f00007e7e00007e7d00002d
:1018c8007d7c00007b7a00007a7900007876000041
:1018d8007574000073710000706f00006d6b00007c
:1018e8006a68000066640000626000005e5c0000d8
:1018f8005a58000055530000514e00004c49000052
:1019080047440000413f00003c39000036330000e6
:10191800312e00002b280000252200001f1c00008b
:1019280019160000131000000c090000060300003f
:1019380000fd0000faf70000f4f00000edea0000f6
:10194800e7e40000e1de0000dbd80000d5d20000ab
:10195800cfcd0000cac70000c4c10000bfbc000052
:10196800b9b70000b4b20000afad0000aba80000ea
:10197800a6a40000a2a000009e9c00009a98000067
:101988009695000093910000908f00008d8c0000c8
:101998008b8a000088870000868600008584000006
:1019a8008383000082820000828100008181000020
:1019b8008181000081810000828200008283000012
:1019c800838400008586000086870000888a0000de
:1019d8008b8c00008d8f0000909100009395000083
:1019e800969800009a9c00009ea00000a2a4000007
:1019f800a6a80000abad0000afb20000b4b700006d
:101a0800b9bc0000bfc10000c4c70000cacd0000b7
:101a1800cfd20000d5d80000dbde0000e1e40000f2
:101a2800e7ea0000edf00000f4f70000fafd00001e
:101a38000000000000000000240300004806000029
:101a48006a0900008c0c0000ab0f0000c8120000ef
:101a5800e2150000f91800000b1c00001a1f000016
:101a68002322000028250000262800001f2b000044
:101a7800112e0000fb300000df330000ba360000f2
:101a88008c390000563c0000173f0000ce41000092
:101a98007a4400001c470000b44900003f4c000095
:101aa800bf4e0000335100009b530000f555000065
:101ab80042580000825a0000b35c0000d75e000064
:101ac800eb600000f1620000e8640000cf660000ef
:101ad800a66800006d6a0000236c0000c96d000054
:101ae8005e6f0000e270000054720000b5730000e1
:101af80004750000417600006b77000084780000d0
:101b0800897900007c7a00005c7b0000297c000059
:101b1800e37c0000897d00001d7e00009c7e0000a3
:101b2800097f0000617f0000a67f0000d87f0000c9
:101b3800f57f0000ff7f0000f57f0000d87f0000e0
:101b4800a67f0000617f0000097f00009c7e0000e6
:101b58001d7e0000897d0000e37c0000297c0000d8
:101b68005c7b00007c7a00008979000084780000a2
:101b78006b7700004176000004750000b573000023
:101b880054720000e27000005e6f0000c96d000032
:101b9800236c00006d6a0000a6680000cf66000094
:101ba800e8640000f1620000eb600000d75e00000e
:101bb800b35c0000825a000042580000f55500004e
:101bc8009b53000033510000bf4e00003f4c000003
:101bd800b44900001c4700007a440000ce410000d0
:101be800173f0000563c00008c390000ba36000050
:101bf800df330000fb300000112e00001f2b000017
:101c08002628000028250000232200001a1f0000b3
:101c18000b1c0000f9180000e2150000c8120000b3
:101c2800ab0f00008c0c00006a0900004806000099
:101c38002403000000000000dcfc0000b8f90000ec
:101c480096f6000074f3000055f0000038ed00002f
:101c58001eea000007e70000f5e30000e6e00000e8
:101c6800dddd0000d8da0000dad70000e1d400009a
:101c7800efd1000005cf000021cc000046c90000cc
:101c880074c60000aac30000e9c0000032be00000c
:101c980086bb0000e4b800004cb60000c1b30000e9
:101ca80041b10000cdae000065ac00000baa0000f9
:101cb800bea700007ea500004da3000029a10000da
:101cc800159f00000f9d0000189b0000319900002f
:101cd8005a97000093950000dd93000037920000aa
:101ce800a29000001e8f0000ac8d00004b8c0000fd
:101cf800fc8a0000bf890000958800007c870000ee
:101d08007786000084850000a4840000d783000043
:101d18001d83000077820000e381000064810000d9
:101d2800f78000009f8000005a8000002880000093
:101d38000b800000018000000b800000288000005c
:101d48005a8000009f800000f78000006481000036
:101d5800e3810000778200001d830000d783000024
:101d6800a484000084850000778600007c8700003a
:101d780095880000bf890000fc8a00004b8c000099
:101d8800ac8d00001e8f0000a2900000379200006a
:101d9800dd930000939500005a97000031990000e8
:101da800189b00000f9d0000159f000029a100004e
:101db8004da300007ea50000bea700000baa0000ee
:101dc80065ac0000cdae000041b10000c1b3000019
:101dd8004cb60000e4b8000086bb000032be00002c
:101de800e9c00000aac3000074c6000046c900008c
:101df80021cc000005cf0000efd10000e1d40000a5
:101e0800dad70000d8da0000dddd0000e6e00000e7
:101e1800f5e3000007e700001eea000038ed0000c7
:101e280055f0000074f3000096f60000b8f90000c1
:101e3800dcfc0000000000000000000000000000c2
:101e4800bf2a0000240300007cd9000047060000d8
:101e5800499000006a0900005ed300008b0c000066
:101e68002b270000ab0f00006e100000c812000006
:101e780044140000e21500003cb80000f818000007
:101e88006a8200000b1c00007bf90000191f00008b
:101e9800c5a40000232200005d0c000028250000d6
:101ea80028b9000026280000eb3400001f2b000092
:101eb800620a0000112e00004dc50000fb30000032
:101ec80087f20000de33000013200000ba3600005d
:101ed80032dd00008c39000070ba0000563c00006a
:101ee800b7490000173f0000641e0000ce41000003
:101ef80050cd00007a440000e6ec00001c470000ca
:101f080033150000b4490000f3df00003f4c000027
:101f1800a4e80000bf4e000094cc0000335100003c
:101f2800ef2a00009b530000d2a40000f5550000e2
:101f380054dd00004258000099790000825a0000e0
:101f4800df200000b45c0000897c0000d75e000040
:101f58002f380000ec600000ac010000f2620000c5
:101f680025890000e86400001f810000cf6600009a
:101f7800809e0000a6680000a39800006d6a00001b
:101f88005f290000246c0000140d0000ca6d0000d9
:101f9800b10200005f6f0000c5cb0000e2700000d6
:101fa800842c000055720000d0eb0000b5730000cf
:101fb80044d30000047500003caf000041760000e7
:101fc800da4e00006c77000013840000847800006b
:101fd800b02300008a7900005a0500007d7a0000cd
:101fe8009d0300005d7b0000edfb0000297c0000e4
:101ff800b1ce0000e37c00003f5f00008a7d000056
:10200800e99300001d7e0000fb5500009d7e000046
:10201800c3910000097f00008e360000627f000037
:10202800b3360000a77f00008d870000d87f00002e
:1020380081210000f67f0000ffff0000ff7f000005
:1020480081210000f67f00008d870000d87f000006
:10205800b3360000a77f00008e360000627f0000c4
:10206800c3910000097f0000fb5500009d7e000021
:10207800e99300001d7e00003f5f00008a7d00009c
:10208800b1ce0000e37c0000edfb0000297c0000dd
:102098009d0300005d7b00005a0500007d7a00006a
:1020a800b02300008a7900001384000084780000bf
:1020b800da4e00006c7700003caf0000417600006b
:1020c80044d3000004750000d0eb0000b573000095
:1020d800842c000055720000c5cb0000e27000009f
:1020e800b10200005f6f0000140d0000ca6d00000f
:1020f8005f290000246c0000a39800006d6a0000ae
:10210800809e0000a66800001f810000cf660000c6
:1021180025890000e8640000ac010000f2620000bc
:102128002f380000ec600000897c0000d75e0000ba
:10213800df200000b45c000099790000825a00009a
:1021480054dd000042580000d2a40000f5550000fc
:10215800ef2a00009b53000094cc0000335100008c
:10216800a4e80000bf4e0000f3df00003f4c000071
:1021780033150000b4490000e6ec00001c470000dd
:1021880050cd00007a440000641e0000ce410000db
:10219800b7490000173f000070ba0000563c000025
:1021a80032dd00008c39000013200000ba36000030
:1021b80087f20000de3300004dc50000fb30000050
:1021c800620a0000112e0000eb3400001f2b0000f3
:1021d80028b90000262800005d0c00002825000012
:1021e800c5a40000232200007bf90000191f00008d
:1021f8006a8200000b1c00003cb80000f8180000c0
:1022080044140000e21500006e100000c81200001f
:102218002b270000ab0f00005ed300008b0c0000e2
:10222800499000006a0900007cd9000047060000b8
:10223800bf2a000024030000000000000000000086
:1022480041d50000dbfc000084260000b8f900003e
:10225800b76f000095f60000a22c000074f3000090
:10226800d5d8000054f0000092ef000037ed0000d0
:10227800bceb00001dea0000c447000007e70000af
:10228800967d0000f4e3000085060000e6e000000b
:102298003b5b0000dcdd0000a3f30000d7da0000a0
:1022a800d8460000d9d7000015cb0000e0d40000c4
:1022b8009ef50000eed10000b33a000004cf000004
:1022c800790d000021cc0000eddf000045c90000b9
:1022d800ce22000073c6000090450000a9c300008c
:1022e80049b60000e8c000009ce1000031be0000d3
:1022f800b032000085bb00001a130000e3b80000ec
:10230800cdea00004bb600000d200000c0b300006d
:102318005c17000040b100006c330000ccae000038
:1023280011d5000064ac00002e5b00000aaa000072
:10233800ac220000bda70000678600007da5000054
:1023480021df00004ba300007783000028a10000d4
:10235800d1c70000139f000054fe00000d9d00002f
:10236800db760000179b0000e17e0000309900003a
:1023780080610000599700005d6700009295000099
:10238800a1d60000db930000ecf2000035920000bb
:102398004ffd0000a09000003b3400001d8f00009e
:1023a8007cd30000aa8d0000301400004a8c000085
:1023b800bc2c0000fb8a0000c4500000be8900004d
:1023c80026b1000093880000ed7b00007b870000a9
:1023d80050dc000075860000a6fa00008285000027
:1023e80063fc0000a284000013040000d6830000f0
:1023f8004f3100001c830000c1a00000758200005e
:10240800176c0000e281000005aa0000628100004c
:102418003d6e0000f680000072c900009d8000003b
:102428004dc9000058800000737800002780000024
:102438007fde00000980000001000000008000002d
:102448007fde00000980000073780000278000000c
:102458004dc900005880000072c900009d8000002e
:102468003d6e0000f680000005aa000062810000b1
:10247800176c0000e2810000c1a000007582000016
:102488004f3100001c83000013040000d6830000b5
:1024980063fc0000a2840000a6fa00008285000008
:1024a80050dc000075860000ed7b00007b87000093
:1024b80026b1000093880000c4500000be890000c7
:1024c800bc2c0000fb8a0000301400004a8c00007d
:1024d8007cd30000aa8d00003b3400001d8f000053
:1024e8004ffd0000a0900000ecf2000035920000c3
:1024f800a1d60000db9300005d6700009295000004
:102508008061000059970000e17e000030990000ca
:10251800db760000179b000054fe00000d9d0000b4
:10252800d1c70000139f00007783000028a1000096
:1025380021df00004ba30000678600007da5000096
:10254800ac220000bda700002e5b00000aaa000014
:1025580011d5000064ac00006c330000ccae000064
:102568005c17000040b100000d200000c0b300005f
:10257800cdea00004bb600001a130000e3b80000d3
:10258800b032000085bb00009ce1000031be0000b5
:1025980049b60000e8c0000090450000a9c300004b
:1025a800ce22000073c60000eddf000045c9000020
:1025b800790d000021cc0000b33a000004cf0000e0
:1025c8009ef50000eed1000015cb0000e0d400001d
:1025d800d8460000d9d70000a3f30000d7da0000de
:1025e8003b5b0000dcdd000085060000e6e0000043
:1025f800967d0000f4e30000c447000007e70000f0
:10260800bceb00001dea000092ef000037ed00006f
:10261800d5d8000054f00000a22c000074f300008c
:10262800b76f000095f6000084260000b8f9000096
:1026380041d50000dbfc00000000000000000000a5
:10264800310000003a2f00005e31000068310000c0
:10265800743100008c31000081000000f62f00006a
:102668002830000034300000483000006a30000094
:10267800b11300005a320000623200003c2f000003
:10268800402f00006c320000810c0000562d000025
:10269800f42d0000122e0000222e00003c2e000017
:1026a800610d00002c320000383200003c2f000081
:1026b800402f000044320000300000003a2f000094
:1026c800fc310000063200000e320000203200000b
:1026d800a1010000442c0000e42c0000f02c0000b4
:1026e8000c2d00003a2d000011000000943000006d
:1026f800d6300000e0300000f03000000a31000061
:10270800b101000030260000ba270000ca270000e7
:10271800de27000000280000510d0000242b0000d7
:10272800de2b0000ea2b0000022c0000282c000001
:10273800e1000000ca310000dc3100003c2f00003d
:10274800402f0000e6310000ffff0000a215000046
:102758004815000030180000e8180000061c0000aa
:102768000000000000000000000000000000000061
:102778000000000000000000010000009225000099
:10278800020000004e250000030000002e25000076
:1027980004000000dc240000050000008225000081
:1027a8000600000054250000070000006625000010
:1027b800080000005a2500000900000060250000fc
:1027c8000a000000a22500000b000000f824000009
:1027d8000c000000f22400000d0000002a25000073
:1027e8000e000000242500000f0000001c2500003a
:1027f800100000000825000011000000ec24000073
:102808001200000070250000130000003e250000a3
:1028180014000000d624000015000000a8250000c0
:1028280016000000c624000017000000ca2400009b
:1028380018000000c824000019000000cc24000083
:102848001a000000ce2400001b000000d024000065
:102858001c000000d22400001d000000d424000049
:102868000000000000000000466500006220000033
:1028780031380000203200003031000036310000cd
:10288800343a0000333100003a32000032000000d0
:020000040000fa
:10289800d0209000e18f50000e003a000012900006
:1028a8009012900020139000b01390000040eb00ad
:1028b800840f5300858f5b0013003d0010c0b300e8
:1028c800820f5200838f5a000f0034000040eb0043
:1028d8000d00370000129000901290002013900015
:1028e800b01390000040eb00840f5300858f5b000d
:1028f8000500340010c0b300840f5100858f5900c3
:10290800010034000040eb0000000600a0689000c1
:10291800e2cf500008003200e4cf50000a00320035
:10292800e1cf50000a003a00401090001001fb006f
:10293800cf91de00060037004010900010017800ab
:10294800cf91de0002003700401090001001be0059
:102958000200be0000000600889fbe000044eb0095
:1029680088447800894078000883fb008603e800e3
:102978008783430087034000720343000603400037
:102988007011900080199000500a900002024200d5
:102998008182fb0097824200154a7800610141005c
:1029a800e081490072109800031898008140e800ff
:1029b80096cf5000f2ff39000844e800b07090004c
:1029c800814f5400e7ff39004f04be0000000600a5
:1029d80090017800818f51000d0032000002eb0059
:1029e8000300e0000e0032006c0140000202780093
:1029f80092017800818f5100060032006c0141007d
:102a08000300e000f9ff3a000002eb000400370081
:102a1800000278000300e00001003a000002eb0029
:102a280004007800000006000001eb000000e00050
:102a38001300320090017800818f51000c003200a1
:102a48000300e0000e00320064014000020078003c
:102a580092017800818f5100050032006401410025
:102a68000300e000f9ff3a000001eb000400370022
:102a78000001eb000300e0000100320010019000ab
:102a880002007800000006000088eb008000780053
:102a9800f1014000700240000001eb00822878003c
:102aa80082697800848f5000fcff3a000100210001
:102ab800510898006011b80002109800131098008f
:102ac80022109800331098008000eb004110980005
:102ad8000042eb002168980061109800721098007d
:102ae80003189800247098003470980021189800f2
:102af80031189800411898002478980062189800b6
:102b080073189800022098001320980044c0980079
:102b180082382100030020003220980043209800ca
:102b2800110020005120980062089800730898004e
:102b380091318100c008980000000600889fbe00ff
:102b48008a9fbe00000578006a109000e50f5000cb
:102b58003000320007003e00e20f50001200320041
:102b6800e40f500009003200e10f500037013a002d
:102b78009c003700e70f5000080132005f00390061
:102b8800e80f500031013a00ed0037004a18900074
:102b98000000e800401d98003a1890000000e80086
:102ba800301d9800290137003a189000aa189000a3
:102bb8000001e800321d9800810f50001100390013
:102bc8000000eb00301d98000a00780062ff070043
:102bd8002a7090000080fb008000eb007a119000c2
:102be8008a19900000004100818049008238210044
:102bf800820f5000e08f5800020036000000eb0002
:102c0800601598004a1890000000e800401d9800e0
:102c18000e0137002a689000e24f5000140032007d
:102c2800e44f500022003200e14f500007013a0003
:102c38000a609000ca60900080cf500006003d00f6
:102c4800ca109000914f500003003c004000200043
:102c580060159800fd0037004a1090001000fb0036
:102c6800cf80de002015980031159800f700370056
:102c78000a109000aa109000808f500006003d00b6
:102c8800ca109000910f500003003c004000200043
:102c980060159800ed0037004a1090001000780089
:102ca800cf80de002015980031159800e700370026
:102cb8000a1090009a1090002a119000ba11900002
:102cc800800f5100818f590007003d004a11900084
:102cd800b20f5000a28f580003003c0040002000b3
:102ce80060159800d90037004a1090001001be0006
:102cf8002215980033159800d40037002a689000f0
:102d0800e24f500014003200e44f5000220032001d
:102d1800e14f5000cd003a000a609000ca60900070
:102d280080cf500006003400ca109000914f500028
:102d3800030035004000200060159800c3003700ec
:102d48004a1090001000fb00cf80de00201598008c
:102d580031159800bd0037000a109000aa109000a5
:102d6800808f500006003400ca109000910f500068
:102d7800030035004000200060159800b3003700bc
:102d88004a10900010007800cf80de0020159800cf
:102d980031159800ad0037000a1090009a10900085
:102da8002a119000ba119000800f5100818f5900ac
:102db800070034004a119000b20f5000a28f58004b
:102dc8000300350040002000601598009f00370080
:102dd8004a1090001001be00221598003315980083
:102de8009a0037000a007800c8fe07000004be00f9
:102df8003a189000aa1890000001e800321d9800c7
:102e0800810f5000320039000000eb00301d98009f
:102e18002a7090000080fb008000eb000a219000df
:102e28009a219000000041008180490083382100e8
:102e3800830f5000e08f5800030034006000b80092
:102e480000259800112598008043eb0087457800fd
:102e58000b4078008782fb000503e8000603430067
:102e680006034500f2824200850245000a219000cf
:102e78009a219000da089000828040000082fb00ce
:102e8800160242009448780061014100e08149003f
:102e980002259800132598000040e800954f50003f
:102ea800f2ff39008743e8003a70900080cf530062
:102eb800e7ff39006a189000fa189000820f500056
:102ec800838f580002003c0010c0b30040c5980032
:102ed8000801be000a0078006dfe07000004e0004b
:102ee800140032004ac090000004e00011003200d3
:102ef8006a189000fa189000e00f5000e08f580010
:102f080005003c000025980011259800800020004d
:102f1800601598004d0037000a2090009a20900014
:102f280070159800011d9800700020006015980029
:102f380046003700281598003915980043003700d7
:102f48003a189000aa1890000001e800321d980075
:102f5800810f50003d0039000000eb00301d980043
:102f68002a7090000080fb008000eb000a2190008e
:102f78009a219000000041008180490000259800b6
:102f880011259800e00f5000e08f58002f00350001
:102f980020002000601598002c0037003a18900097
:102fa800aa1890000001e800321d9800810f500017
:102fb800260039000000eb00301d98002a709000b0
:102fc8000080fb008000eb007a1190008a199000c5
:102fd800000041008180490082382100820f5000a2
:102fe800e08f5800030036006000b80070159800a4
:102ff800011d98000a00780057fe07000a2190007a
:103008009a2190007a1090008a18900000015100cf
:10301800818159006a189000fa189000800f5100b9
:10302800818f5900070032003a229000ca2290008e
:103038000201420083814a00820f5000838f5800aa
:10304800020039000000eb00601598004f05be0033
:103058004f04be00000006004069900082487800d6
:10306800307290009440980040719000a2409800ff
:1030780050729000b440980060699000c240980077
:103088007011900080199000481add004811de0088
:1030980002017200c819de00d24098000071900049
:1030a800e240980010729000f44098002059900077
:1030b8008248980050099000cf91de00481add0040
:1030c8004811de0002017200c819de00924898001b
:1030d80050099000cf91de004019de00a248980008
:1030e80050099000cf91de004819de00b2489800e0
:1030f80040799000c248980060199000f01990003b
:10310800481add004811de0002017200c899de008d
:10311800d248980060799000e2489800707a900050
:10312800f448980000c19000825098000021900057
:1031380090219000481add004811de00020172005b
:10314800c899de009250980020c19000a2509800c3
:1031580030c29000b450980060c19000c2509800ee
:1031680030219000c0219000481add004811de008f
:1031780002017200c819de00d250980000c9900000
:10318800e250980010ca9000f450980040599000fe
:103198008258980060099000f0099000481add00f4
:1031a8004811de0002017200c819de00925898002a
:1031b80060599000a258980070589000b058980034
:1031c800c0c1b30000000600ea874700889fbe0020
:1031d8008a9fbe008c9fbe008e1f78000004be0030
:1031e8000247780010c0b300e34f57007f01360054
:1031f80009067800dc407800e8cf50007b013e00eb
:103208000104e000790132000000eb00601498002e
:103218000041eb0030749800401c98006000b80032
:1032280070149800011c9800394290004822dd0073
:10323800a94190008381fb0083014200231c980070
:10324800331c9800201498003114980022749800b8
:1032580023c0b300237c980042c49800002498003f
:10326800112498001c04e000880032004bc0b30011
:10327800024578008b46e8000b80fb000080440084
:1032880010407800e14f5000060032005600390027
:10329800e24f50002e003200e34f500046013a0042
:1032a8003e0037000d81fb000281440002007800d7
:1032b800b0407800c1ef9f0010407800a0ef9f0059
:1032c80093318100f3b79f0013007800e3004100b9
:1032d8009180fb00c808dd000281e8001281fb0034
:1032e80082804000d0fd070080bf9f000000e00002
:1032f80033013200ffb09700110090000fb997001a
:1033080092007800b2fd07000000e0002e013200b4
:10331800afe997004819dd00cfe997008380fb00eb
:1033280081004100500190000fb897000200010091
:103338008a80fb008100e800818040008100440011
:10334800800878000000e00037003a0020013700cc
:103358000d81fb009031810010007800028144004b
:10336800e30041009180fb00c808dd000281e8000d
:103378001281fb0082804000abfd07000000e000e6
:10338800150132008a80fb008100e800818040003e
:103398008100440080087800230037000d81fb007d
:1033a800903181001000780002814400e300410060
:1033b8009180fb00c808dd000281e8001281fb0053
:1033c8008280400098fd07000000e0000401320000
:1033d8008a80fb008100e800818040008100440071
:1033e80090087800100037000d80fb008a80fb00f1
:1033f8008100e80081804000810044000080440092
:103408000001e8001281fb008001eb00481add0092
:10341800c812de00850272004812dd001081fb0030
:103428008001eb00820842008d86fb008d864400f7
:103438004d4090008a80fb0081004400a050980015
:10344800287190000241400022749800a8789000ea
:1034580000c04000207c98000281fb0083382100d6
:10346800110009008201d80001815100cf91de00ce
:103478003224980043249800e6c545000a45e80030
:103488009c4f15007bff3e00010037004bc0b30086
:103498000b80fb000080440010407800206c9800ee
:1034a8008b45e8000b45e8008b85fb008b854400c5
:1034b8001b407800e14f50000600320051003900ef
:1034c800e24f50002c003200e34f5000c6003a0093
:1034d8003a0037008a80fb008180440001007800b0
:1034e8003041780082f79f0010407800e0ef9f009d
:1034f8009d3181001d007800638140001281fb002e
:103508004811dd008180e8009180fb0081004100c6
:1035180045fd07008005780010c0b3000b00e000ef
:10352800b20032001d0090009b00780028fd0700c3
:103538000001780010c0b3000200e000ab003200c8
:10354800efe99700c818dd008ff197000380fb00b2
:1035580080804000520190000b00780002000100ba
:10356800800078004114980010c0b3000100e0000a
:1035780039003a009d0037008a80fb0090318100b5
:103588001000780081804400638140001281fb00b4
:103598004811dd008180e8009180fb008100410036
:1035a80021fd07008000780010c0b3000100e00092
:1035b8008e00320041149800270037008a80fb00f3
:1035c80090318100100078008180440063814000c0
:1035d8001281fb004811dd008180e8009180fb002a
:1035e8008100410010fd07008000780010c0b30082
:1035f8000100e0007d00320091007800411498003d
:10360800150037000a80fb00008044008000e800b5
:103618001181fb008001eb00481add00c812de00b2
:10362800850272004812dd008080e8001181fb00ed
:103638008001eb00c011dd000200200004024100ff
:10364800858249001081fb008001eb0004004100e5
:103658008580490040149800e44045000180fb0043
:10366800008044000001e8001281fb008001eb00ab
:10367800481add00c812de00850272004812dd001b
:103688000081e8001281fb008001eb00c011dd0021
:103698000200200004014100858149001082fb00de
:1036a8008002eb000201420083814a00630040006f
:1036b8001082fb008002eb00c822dd00040020001d
:1036c8000201420083814a000214980013149800f2
:1036d800e4c040000180fb00008044000001e800d5
:1036e8001281fb008001eb00481add00c812de00e1
:1036f800850272004812dd000081e8001281fb009b
:103708008001eb00c011dd0002002000040141002f
:10371800858149001082fb008002eb000201420013
:1037280083814a00630040001082fb008002eb00a6
:10373800c822dd00040020000201420083814a0003
:10374800621c9800731c980064c040000080fb0055
:10375800008044001080fb0050249800e5c0400021
:10376800814f57000a0036000180fb0000804400aa
:1037780011c0b30090cf100009003a00080078008b
:1037880062fc0700201498003114980004003700e8
:10379800080078005dfc0700201498003114980098
:1037a8001c4678003c7498001980fb00601498004f
:1037b8000040eb000d00370010c0b3000b003700cd
:1037c80010c0b3000900370010c0b300070037006d
:1037d80010c0b3000500370010c0b3000300370065
:1037e80010c0b3000100370010c0b3004f077800c5
:1037f8004f06be004f05be004f04be00af00b1002b
:10380800000006000000eb000000060021c0b30025
:1038180041409800b000900012c2b3009240980056
:10382800900090000100010000000600b000900028
:1038380091409000e2cf50001500320005003e0094
:103848000104e00009003200e1cf500024003a00f2
:103858000a003700e4cf5000170032001100390089
:10386800e5cf50001e003a00180037000001eb00b9
:1038780091318100b20098001a0037001200200030
:1038880091318100b20098000041eb00150037002b
:103898002200200091318100b20098000041eb0025
:1038a800100037003200200091318100b2009800ea
:1038b8000041eb000b0037004200200091318100ed
:1038c800b20098000041eb000600370052002000cb
:1038d80091318100b20098000041eb0001003700ef
:1038e80022c2b300b00090009240980021c0b300fb
:1038f800414098009000900001000100000006007f
:10390800b00090000041eb00924098009131810096
:1039180031019000b0009000a240980031c0b3007f
:10392800414098009000900001000100000006004e
:103938000000e0000600320010027800810f5200fb
:10394800100032000400e00005003a000f003700c4
:1039580030c4b300004978000000eb0011003700c4
:10396800e40140000300780013027800810f520040
:1039780004003200e48141000400e000f9ff3a004d
:10398800020037000400e00004003a0000c4b3005d
:10399800004978000000eb0002003700100090009a
:1039a8000049eb000000060022c0b3004240980026
:1039b8003001900011419800900090000100010032
:1039c800000006000200fa00881f78000004780052
:1039d800380190009031810010007800a2419000d9
:1039e800c819dd00924090008180fb008180410071
:1039f80064815700ceff0700cff897000104e0006c
:103a08000300320008007800e7ff070032003700a3
:103a180092318100920090000100e00004003a0019
:103a280041c4b30008007800dfff07002a00370010
:103a380090027800920190008000eb00938f1200b2
:103a48000f003200920190001300e0000c003200d9
:103a5800c100200001003700840078009201900026
:103a680081814100938f120005003200920190007d
:103a78006c824000818141001300e000f6ff3a00ab
:103a880092019000818141001300e00004003a0097
:103a980011c4b30008007800c3ff07000e00370008
:103aa8001201900001014100b80090008180e800f7
:103ab800320190000200010000c0e8004044980074
:103ac800380090008040eb0011409800980090006a
:103ad80008007800010001004f0478000080fa0017
:103ae800000006000200fa00889fbe0080047800eb
:103af80039009000204490004844dd0010409000b8
:103b08000080fb0000044400903181001000780020
:103b1800668157008800780085ff0700aff8970096
:103b28000104e00003003200090078009eff07004e
:103b38006200370091318100210190000200e0000d
:103b480025003200a10190000001eb00930f140042
:103b58000f003200a10190001300e0000c003200b9
:103b6800420020000100370004017800a101900004
:103b780082814100930f140005003200a1019000da
:103b880064024100828141001300e000f6ff3a0020
:103b9800a1019000828141001300e0000e00320074
:103ba800a101900082814100494190006341510088
:103bb800b9009000e38040009301900003000100e9
:103bc8000004e0003d00320021c4b3000900780081
:103bd80075ff070039003700110190000200e0006e
:103be80004003a0041c4b300090078006eff0700e2
:103bf8003200370090027800910190000001eb003c
:103c0800938f12000f003200910190001300e00022
:103c18000c003200c20020000100370004017800c7
:103c28009101900082814100938f120005003200bb
:103c3800910190006c024100828141001300e00074
:103c4800f6ff3a0091019000828141001300e000e4
:103c580004003a0011c4b3000900780052ff0700bd
:103c6800160037009101900082814100494190007f
:103c780063415100b9009000e3804000c301900007
:103c8800030001000004e0000400320041c1b30059
:103c98000900780044ff07000800370020c0b3007f
:103ca800c0449800390090008040eb001140980013
:103cb8009900900009007800010001004f04be003f
:103cc8000080fa000000060050419000d1c2b30005
:103cd800814f510003003e0051c1b30032ff07007d
:103ce800c8003700e1c2b30041409800300190009d
:103cf8008040eb00114198003001900053c0b300a0
:103d080023419800300190003141980091318100a1
:103d180021099000b0009000c240980091318100c4
:103d280021099000b00090004811de00d2409800b0
:103d3800b000900050419000e2409800b000900020
:103d480002c1b300f2409800b000900022c8b3004e
:103d580082489800b000900062c4b300924898006e
:103d6800b00090007f414100a2489800b000900048
:103d780063415100b24898003001900011c3b3006c
:103d8800414998003001900083c3b300534998001b
:103d980030019000e6c1510063499800b0019000dd
:103da80002c3b300f2499800b00190008151980015
:103db800b001900064c3b30094519800b001900022
:103dc800a1519800b000900043c3b300b3509800cd
:103dd800b00090008341e900c3509800b000900003
:103de800d250980091318100310990000200e00022
:103df8000a003a00c1c0b300694252000181fb00c9
:103e0800b001900002814100645198008140e900ae
:103e1800e1cf4000f9ff3a00400037003109900037
:103e2800b000900012417800e25098009131810072
:103e380031099000b000900012419000f2509800b3
:103e48009131810031099000b0009000224190002a
:103e5800825898009131810031099000b00090009b
:103e680042419000925898009131810031099000a8
:103e7800b000900052419000a25898009131810002
:103e880031099000b000900072419000b25898003b
:103e98009131810031099000b000900002499000f2
:103ea800c25898009131810031099000b00090000b
:103eb80012499000d2589800913181003109900040
:103ec800b000900022499000e2589800913181009a
:103ed80031099000b000900032499000f2589800e3
:103ee8009131810031099000b00090004249900062
:103ef800826098009131810031099000b0009000f3
:103f080062499000926098009131810031099000d7
:103f1800b000900072499000a26098009131810031
:103f280031019000b0009000b2609800913181009a
:103f380041019000b0009000c2609800913181006a
:103f480041019000b00090004811de00d260980056
:103f58009131810051019000e1019000b000900082
:103f6800e26098009131810051019000e1019000d8
:103f7800b0009000481add004811de00020172000e
:103f8800c819de00f260980091318100510190005b
:103f9800e1019000b00090004019de0082689800ae
:103fa8009131810051019000e1019000b000900032
:103fb8004819de009268980092318100cf91de00a6
:103fc800b0009000a2689800b0009000c81ade0007
:103fd800481bdd004812de0004027300b468980034
:103fe800b0009000401ade0005002000c468980068
:103ff800b00090004819de00d26898009000900048
:104008000100010000000600215f22006303200078
:1040180081814100a2c0210082287800838f50004e
:10402800fdff3a00415f22004100980000000600b1
:104038004000900081e621000108780041c8210075
:1040480011009800a1c121002100980061d721002a
:104058002110980061ce2100111098000000060080
:1040680011002000110898008000eb00010898005a
:10407800000006008000eb0011089800710098000d
:10408800000006001040780053c5b300834f50006d
:1040980002003200e24f500006003a00c3622200dc
:1040a800804978005231890040002000800878005b
:1040b800010037008208780000000600889fbe00d3
:1040c8008a9fbe008c9fbe008e1f780080047800f7
:1040d80090318100c00890000100e00069003200c2
:1040e8004008900060109000e40f500065003a000e
:1040f80059009000c000900001000100913181003a
:10410800410990000080fb00227990000281fb00a9
:1041180064014100820f50005400350041099000ad
:10412800410890003219900020189000800f51002b
:104138004e003900410890008000eb0031189800cb
:10414800590090001001780021c0b300020001005e
:104158005900900091318100c1089000a178900029
:10416800100178000200010059009000c948900031
:10417800100178000200010059009000913181007f
:10418800c1089000c11890001001780002000100d9
:104198005900900091318100c1089000c118900029
:1041a800c808de001001780002000100903181008b
:1041b80040099000c0099000c00890002279900042
:1041c800494890000041410002c1e80043189000ae
:1041d80000404100917d900080c545000007eb003c
:1041e8000004eb000e06e8000c064600f206470045
:1041f80090318100400890000c00400010004400fd
:104208001045780059009000100178008a40780025
:10421800020001008ac545000804e80090318100c9
:10422800c00890008d8040009180fb00810f5400f1
:10423800efff39000e07e80040089000307090004a
:104248000080fb00800f5700e5ff3900e2cf5500e2
:1042580001003a00dbcfb30059009000100178004c
:104268008b407800020001000600370070318100a1
:104278008131810061004000e08048007031890090
:10428800813189004f0778004f06be004f05be00f8
:104298004f04be00000006000200fa00889fbe001e
:1042a8008a9fbe008c9fbe0000047800f004440082
:1042b800ec0544005ac5b3001c002000e406440085
:1042c8006d00370008089000e20f5000210032000e
:1042d80005003e000000e00009003200e10f500038
:1042e80063003a000f003700e40f50004800320026
:1042f80024003900e50f50005d003a004b003700fc
:104308004a5498000040eb00505498005800900020
:10431800100178008a407800020001000c0c980017
:1043280055003700c84090004850900001404000b8
:1043380040549800580090001001780002000100d5
:1043480022002000890078000d0078004dff07004a
:1043580049003700c848900048509000014040008c
:1043680040549800580090001001780002000100a5
:1043780032002000890078000b00780041ff070018
:104388003d003700d85090008180fb003800900035
:10439800810040004850900011404000405498006f
:1043a8005800900010017800914078000200010048
:1043b800585090000081fb000201e800c8409000be
:1043c8008180fb00810f510007003a000080fb004c
:1043d800b80090000080400052002000890078005a
:1043e80028ff0700060037000080fb00b800900097
:1043f80000804000320020008900780021ff07007b
:10440800585090000040e800505498001a003700b7
:1044180058009000100178008040eb000200010075
:1044280050318100000c980013003700485090006c
:104438008a4f500002003200e24f500002003a005a
:104448000080ea004054980058009000c85090003e
:10445800100178000200010058009000d000900080
:10446800010001000800780002ff07000200370081
:1044780008007800fffe070018089000e10f5000c0
:1044880094003a0058009000b0009000010001002c
:104498000004e0008bff3a008e00370058009000bf
:1044a8009000900001000100a0f79f00f800900024
:1044b800e28f50002c00320005003e000100e000b1
:1044c80009003200e18f50007f003a000e003700eb
:1044d800e48f50004a00320031003900e58f500067
:1044e80079003a005700370051c5b300814f50009a
:1044f8007a003a00014078004054980010002000eb
:1045080070049800750037000004e00003003a00ca
:104518000000eb007004980070003700d84090004d
:10452800814f50000500360051c1b30008007800e3
:10453800d81c02000000000068003700c850900036
:1045480080c0400041549800404498000040eb006f
:104558005054980022002000890078006e8057008f
:10456800c8fe07005d003700c8489000814f500022
:1045780008003a00c850900000c04000405498001d
:1045880032002000890078006e805700bdfe0700c9
:10459800520037000000eb00700498004f0037000d
:1045a800c850900080c0400041549800d8509000f6
:1045b8008180fb003801900081004100804878002c
:1045c800585090000040e80050549800c8409000af
:1045d800814f500005003a00520020008900780001
:1045e8006e805700a7fe07003c003700320020000d
:1045f800890078006e805700a2fe07003700370058
:104608000004e00003003a0052318100720498006f
:104618003200370051c5b3009acf100006003a00a7
:1046280081404000415498004044980020002000f8
:1046380070049800290037000000eb00700498000f
:1046480026003700c850900052c5b30082cf5000f2
:1046580002003200e2cf500002003a008180ea00f6
:1046680041549800c8509000814f500011003a0002
:104678003800900010407800fa4f500008003e00c3
:104688000080fb00c800900000004000008040004f
:104698009000780008007800010001000f00370042
:1046a80011c2b30008007800d81c02000000000006
:1046b8000a00370031c1b30008007800d81c020096
:1046c80000000000050037000000eb0070049800af
:1046d80002003700ee044400ca6222001808900065
:1046e8000000e00005003a0058009000a00090008b
:1046f800010001000004e00068ff3a0008007800ab
:104708006efe07004f06be004f05be004f04be00f8
:104718000080fa000000060031009800524098001e
:10472800434898000115220001087800410322003f
:10473800110098004ffe070000000600881f78004f
:1047480000047800380190008280e8001180fb00a6
:104758004800dd00124190000281fb000200400089
:104768001003780093318100130290000001eb00e0
:10477800940f13000f003200130290001400e000a1
:104788000c003200c200200001003700050178004b
:104798001302900002024200940f13000500320039
:1047a80013029000ec024100020242001400e000f3
:1047b800f6ff3a0013029000020242001400e000e3
:1047c80005003a0011c4b30008007800d81c0200a4
:1047d800000000000c0037009301900002814100a6
:1047e800320190000200010000c0e8004044980037
:1047f800380090008040eb0011409800980090002d
:1048080008007800010001004f047800000006004d
:10481800881f780000047800b800900021419000bb
:104828004811dd00114090000080fb0000004100ad
:104838001003780093318100130290000001eb000f
:10484800940f13000f003200130290001400e000d0
:104858000c003200c200200001003700050178007a
:104868001302900002024200940f13000500320068
:1048780013029000ec024100020242001400e00022
:10488800f6ff3a0013029000020242001400e00012
:1048980005003a0011c4b30008007800d81c0200d3
:1048a800000000001600370093019000828141004b
:1048b8004841900063415100e3804000c3019000eb
:1048c800030001000004e0000500320041c1b3000c
:1048d80008007800d81c020000000000080037001b
:1048e80020c0b30040449800380090008040eb009e
:1048f800114098009800900008007800010001001d
:104908004f04780000000600881f780030029000ed
:10491800b4429000444390008581fb008383e80003
:10492800504190000281fb0051c1b300828f5300b7
:1049380042003e00244190004811dd009440900060
:104948008180fb0001014100e24f5300100032005a
:10495800e44f53001d00320041c1b300e14f530042
:1049680036003a000300e000370032008000eb0018
:10497800300290000102420032437800264298003b
:104988008100e800818f5100f9ff3e002e003700ba
:104998000300e0002c0032008000eb008180e8007a
:1049a8003002900001024200124a78003002900062
:1049b80001024200320378004833de0016429800b4
:1049c800818f5100f5ff3e001f0037000300e00013
:1049d8001d0032008000eb0030029000010242000e
:1049e80012447800284298003002900001024200e8
:1049f8001203be00483cdd004833de0006037400a5
:104a0800c83bde0036429800e48040003002900047
:104a18000102420022439000064a780030029000ca
:104a2800010242003203be00483bde0016429800f5
:104a3800818f5100e8ff3e0003003700d81c0200b8
:104a4800000000000700370085c2e80045409800d4
:104a5800b00090000041eb00924098009000900058
:104a6800010001004f04780000000600889fbe0086
:104a78008a1f780000057800ba0090001143900062
:104a880021429000ca429000e4c25200b143900013
:104a98008581fb000781fb00110009008281d80095
:104aa800010178000200e0000500320041c1b300b6
:104ab8000a007800d81c02000000000057003700e8
:104ac8004822dd000683fb0006024200e2cf5300c5
:104ad8000f003200e4cf53001e003200e1cf530034
:104ae80041003a008582fb00440032008000eb0060
:104af8003a0190000101410042419000025a7800b9
:104b08008100e800858f5000f9ff39003b0037002d
:104b18000583fb000603d100380032004200200064
:104b28008000eb00ba019000828141008302e80016
:104b38009582fb00c82add009381fb00039a42009e
:104b48008100e8000281e800810f5300f5ff3e0074
:104b58002a0037008582fb00c22ade0027003200c7
:104b6800430020000001eb00ba0090000201e800b9
:104b7800838040000103e8001684fb008004eb00fa
:104b8800484bdd00c843de00870373004843dd005f
:104b98000184e8001884fb008004eb00c044dd00b9
:104ba800080020000604440087844c001183fb00a1
:104bb8008003eb000804430089844b00e380400035
:104bc8001183fb008003eb00c833dd0006002000e2
:104bd800061a4400079a4c00e4814100850f5100f1
:104be800e1ff39000500370041c1b3000a00780031
:104bf800d81c0200000000000800370021c0b300e4
:104c080041459800ba0090000041eb00924098009e
:104c18009a0090000a007800010001004f05780012
:104c28004f04be00000006004000900081482200aa
:104c380011089800213a220071009800c140220012
:104c4800010898000000060040009000a1532200cf
:104c580021089800000006000800fa00889fbe009e
:104c68008a9fbe008c9fbe00a000900011017800b2
:104c78006113b90060019000cf91de0082bab900db
:104c8800869cb900080242000231b8008301420044
:104c98000c0024000d0020000201460083814e0014
:104ca800c118dd004f11de0002817000cf99de00cf
:104cb800800890008280400001089800c809de0042
:104cc80003824100e2d128000402410094027800e6
:104cd8008301e80083814100030141001281120031
:104ce8006113b9000181fb008001eb0082bab900b1
:104cf8000231b80083014200c89bde00481add007b
:104d08004813de00060372001001900012017800bb
:104d1800cf91de0006824200cfa2de0082abb9004e
:104d2800849cb900080343000222b80085024300ae
:104d38000406460085864e00416bdd004f66de00a6
:104d48000c067300cfeede0070029000cfa2de00ea
:104d58000c0642008d864a0016002800f7ff2f0037
:104d6800860f5600878f5e0001003d000606be00d4
:104d7800b8aa2a0008844000c843de00878443009c
:104d8800e6d1280089044300190578008703e80064
:104d9800878343000703430096041500614bb9005d
:104da800e6b79f00f7b79f000884fb008004eb007c
:104db80088bbb900efb39700083cb80089044300ea
:104dc800c84ddd004843de0006837500c8cbde0011
:104dd80006034500cfb3de0082bcb900869db9004a
:104de8000a0444000233b800870344000a00240080
:104df8000b0020000605450087854d00415bdd005e
:104e08004f55de000a057300cfddde000a044200bc
:104e18008b844a0088bf9f0099bf9f001600280016
:104e2800f7ff2f00860f5400878f5c0002003d00bb
:104e380086bf9f0097bf9f005655250006854000f6
:104e4800c853de0007844300e1d1280008844000ed
:104e5800980478008703e800878343008780400030
:104e680091801400610bb900e6b79f00f7b79f0067
:104e78008a80fb00610bb8007fb5970086d4b90023
:104e8800efb59700065bb80087034400c838dd001b
:104e98004833de0006837000c8bbde00868044000d
:104ea800610cb90082cbb900889db9008a007800ee
:104eb800010343000241b8008301430006002400b7
:104ec800070020000201430083814b00c11ddd0063
:104ed8004f11de0002817500cf99de000201420009
:104ee80083814a0014002800f5ff2f00840f510029
:104ef800858f590001003d000401be00f1ff270025
:104f0800810f5600e08f5e0002003400fcff27008e
:104f18000d0020003c0098000fbd97009fbd970032
:104f2800f4ff2700840f5500e08f5d000200340075
:104f3800faff27000b0020004a009800f6ff270020
:104f4800860f5100e08f590002003400f2ff27005d
:104f580003002000520098004f06be004f05be0017
:104f68004f04be000080fa0000000600111b20005c
:104f7800010878008000eb0031009800410098009b
:104f88005100980001089800000006004049900070
:104f980082487800504990009240980060499000fb
:104fa800a240980070489000b040980040c0b300fc
:104fb8000000060013c0b300e44f51000c003a0093
:104fc800114190004811dd009181fb00030141006f
:104fd80062009800314190004811dd00a140900026
:104fe8008180fb0081004100710098008041eb0046
:104ff8000340780000000600e38f50000f003200e5
:1050080005003e00e18f500008003200e28f50009a
:1050180010003a0007003700e48f50000900320002
:10502800e58f50000b003a00080037001000900090
:105038000900370020009000070037006600400094
:105048000500370068004000030037006a00400090
:10505800010037000000eb0000000600881f780000
:1050680060082000d0268900d0cc24003027890091
:1050780030332300402789000041eb00a04e220076
:1050880002487800f4ff2700b427890001002400b3
:105098001128890000002c00202889006050220077
:1050a800024878004001200090288900f3c0b3002e
:1050b80040512200034878000080e8000008eb0017
:1050c800301078006400400002487800c85122007f
:1050d8000000eb003004980040298900f5c7b300b0
:1050e800d352220085497800c1298900d129890035
:1050f800c353220080497800f3282000332a89000e
:10510800402a8900502a8900602a8900656626009d
:10511800952a8900c32a8900f02a8900242b89004e
:10512800612b8900d5c0b300e4562200054a7800f7
:10513800e32b8900f02b8900002c8900602c890062
:10514800702c89000359220082497800a2fe2e00a3
:10515800d22c8900e12c8900e2c0b300e159220079
:1051680082487800002d8900a0572200f026890087
:10517800804c220000278900405422001027890013
:10518800414f220071278900024f2200d22789004f
:1051980002512200e2278900f127890064014400b6
:1051a800522889006152220061288900c1522200d8
:1051b800712889000150220011049800e6805100ee
:1051c80081298900a34c220093298900635a22006f
:1051d800a329890004552200042a8900a356220025
:1051e800132a890063552200432b8900942b8900d8
:1051f800a32b8900c3552200232c8900434e22008b
:10520800332c890023562200432c8900a02c8900c6
:10521800804d2200b02c8900212d8900e04c22000d
:105228000108780012009800614c220021009800c3
:105238006153220031009800604d22005e31020067
:1052480000000000c04d22002830020000000000cd
:10525800c04e22006232020000000000204f2200ef
:105268005e31020000000000804f2200283002005a
:105278000000000080502200f42d02000000000011
:105288000800780038320200000000004052220076
:105298005e31020000000000a0522200fc31020032
:1052a80000000000e0522200283002000000000048
:1052b800e0532200e42c020000000000e054220029
:1052c8005e31020000000000405522005e310200fd
:1052d80000000000a05522005e310200000000001e
:1052e800005622005e3102000000000060562200d5
:1052f800d63002000000000000572200ba27020042
:1053080000000000205822002830020000000000a1
:1053180020592200de2b020000000000205a220043
:10532800dc31020000000000805a2200481502000b
:10533800000000004f04780000000600c051220061
:105348002c32020000000000605622009430020057
:105358000000000000572200302602000000000074
:10536800c04e22005a32020000000000e053220022
:10537800442c020000000000c04d2200f62f02005d
:105388000000000020592200242b02000000000029
:1053980020582200f62f020000000000205a2200a8
:1053a800ca3102000000000080502200562d020081
:1053b80000000000e0522200f62f0200000000006a
:1053c800804f2200f62f020000000000805a2200c1
:1053d800a21502000000000000000600d7ff070029
:1053e800000006008180fb002111880000000600f3
:1053f800101180006e006000030032002222a90014
:105408000040eb000100370030118000000006006a
:10541800101180006140600000000600002020009c
:105428002202b6000000e9004f00de00000006007e
:1054380000e02f004607b600700db300303a880030
:10544800203a80000060a0000070a100203a880087
:1054580000fe2f004407b6003000b300203a880051
:10546800a1092000120020008007200033742000ca
:10547800804978008149780082497800123a800092
:105488000200a000710520006004200023742000a1
:105498008049780081497800824978000200270015
:1054a80001002100133a800003006100810f5000c1
:1054b800fcff3a0001022000123a800002806000de
:1054c800fdff320040a7a80010cea90014cea90005
:1054d80010eea90014eea900110ea900150ea900de
:1054e800112ea900152ea9000e8ea900008ea80065
:1054f80010aea8001e4ea900104ea80000f82f00fc
:10550800c406b6002002b300203688001e6ea9002b
:10551800106ea900f00f2c008006b6000080a000d5
:10552800003488000e2ea8000e0ea80040012000ae
:105538004011880020a2a90090ff2f002022b60069
:105548002002a90021e2a8002342a8002143a900c3
:10555800f0ff21002223b60025e3a800f0cf2f009a
:105568002223b6002343a80030f82f002203b600f8
:105578000020a0001019880028e3a90000fe2f00d1
:105588002823b6003003a8003023a8002063a80011
:105598002043a8002083a90000198000000eb30052
:1055a80000198800f00f2e002423b600f0cf2f003a
:1055b8002023b60021e3a8000421a90004c1a90002
:1055c800f0fc2f000421b60000fa20001008880023
:1055d8000021ef000068a9002068a80005e1a800e4
:1055e80000000600619f220001087800c19f220088
:1055f80011009800c1a022002100980021a12200da
:1056080031009800000006003600f800809fbe00b8
:10561800829fbe00849fbe00869fbe000068a900ce
:10562800d62e0200000000004f03be004f02be004d
:105638004f01be004f00be003600f90000400600d2
:10564800889fbe008a9fbe00a000900011017800cc
:105658006113b90040019000cf91de0082bab90011
:10566800869cb900080242000231b800830142005a
:10567800c118dd004f11de0002817000cf99de00f5
:10568800c810de00018240006561280004824200e3
:10569800140278008100e800818040008182420085
:1056a80015041200cfc4de000281fb008001eb006c
:1056b80082cbb9000241b80083014300c818dd005d
:1056c8004811de0002817000c899de000201420024
:1056d800f8ff270002045400cfc4de0050029000f7
:1056e800cfa2de0084cbb90088adb9000a0343001d
:1056f8000442b80085024300c04890008180fb0046
:105708008100e900030033008582d1000482d300c0
:10571800fbff370070059000cfd5de008aabb900db
:1057280084dcb900080343000a22b800850243005c
:105738006114b90030019000cf91de0082cbb9002e
:10574800889db9000a0343000241b8008301430061
:105758000401410085814900c118dd004f11de00b8
:1057680002817000cf99de0014002800f5ff2f0099
:10577800840f5100858f590001003d000401be00cf
:10578800f1ff2700810f5100e08f5900020034001b
:10579800f2ff2700030020003200980090009000dc
:1057a80091007800710098004f05be004f04be00bc
:1057b8000000060011d52000010878008000eb00e9
:1057c8003100980071009800000006000049900020
:1057d8008248780010499000924098002049900033
:1057e800a240980030499000b2409800404890008c
:1057f800c040980050c0b3000000060013c0b300ba
:10580800e54f51000e003a00114190004811dd00ab
:105818009181fb000301410042009800b1419000d2
:10582800c819dd00214190000281fb00028141007e
:1058380052009800c1409000414898008041eb0018
:105848000340780000000600e28f50000600320096
:10585800e38f500006003200e18f500006003a0046
:10586800100090000500370020009000030037006a
:1058780066004000010037000000eb000000060051
:10588800889fbe008a1f7800a0009000110378004e
:10589800cfb3de0040029000cfa2de0084b9b90089
:1058a80086acb900080141000432b8008502410005
:1058b80008002400090020000402440085824c00ee
:1058c800c128dd004f22de0004827000cfaade006e
:1058d800f00090000482400074009800d00090000e
:1058e80001024200c820de0081814000e2d1280088
:1058f80083014100930178008100e8008180400025
:1059080001014100128111006113b9000481fb00fb
:105918006112b80084b9b9000432b80085024100a8
:10592800c828dd004822de0004827000c8aade0014
:1059380004814100cf91de009000900011037800af
:10594800cfb3de00869ab90082bdb9000a024200d0
:105958000611b800830142000201440083814c0013
:10596800411add004f11de0002017200cf99de00fe
:10597800e00090004f8ade000281400083014a0067
:1059880014002800f5ff2f00840f5100858f59005f
:1059980001003d000401be00f1ff2700810f510006
:1059a800e08f590002003400f2ff270003002000b6
:1059b800320098004f0578004f04be000000060032
:1059c800111a2000010878008000eb0031009800cf
:1059d8007100980000000600004990008248780095
:1059e800104990009240980020499000a2409800e9
:1059f80030499000b240980040499000c240980059
:105a080050489000d040980060c0b30000000600e5
:105a180013c0b300e64f510012003a001141900044
:105a28004811dd009181fb0003014100420098000c
:105a3800b1419000c819dd00214190000281fb00ae
:105a48000281410052009800514190004811dd0048
:105a5800c14090008180fb008100410061009800f6
:105a68008041eb000340780000000600e28f500000
:105a780006003200e38f500006003200e18f50002c
:105a880006003a0010009000050037002000900042
:105a98000300370066004000010037000000eb00fb
:105aa80000000600881f78008a9fbe008c1f7800bf
:105ab800b00090001104e00040003200a0509000b7
:105ac8000104e00009003a00a000900011027800eb
:105ad800cfa2de004f29dd00c121de008301710065
:105ae8004f21dd00720098000308980070029000b2
:105af800800a9000c128dd004f21de00028170007d
:105b0800cfa9de00f1ff2700810f5100e08f590077
:105b18000700340002002800f3ff230072009800f9
:105b280003089800f2ff2700030020002100370037
:105b380016002800f7ff2f00860f5100878f5900a5
:105b480006003d000200280003002c0072009800a7
:105b5800030898000601be00160037009000900068
:105b680011057800cfd5de0050039000cfb3de00da
:105b780086dcb9008abeb9000c0444000653b8009c
:105b880087034400c04890008100fb00ef801000ac
:105b98008100e900030033000603430087834b00bc
:105ba800fbff37000602420087824a007400980013
:105bb8000508980042009800020037008000eb00ba
:105bc80041009800b0009000914078002150980062
:105bd8004f0678004f05be004f047800000006000d
:105be80011c82000010878008000eb0041009800ef
:105bf8002001900012027800cfa2de004f29dd00bc
:105c0800c121de00830171004f21dd007200980080
:105c180003089800215098000000060020499000d1
:105c2800824878003049900092409800404890009f
:105c3800a040980030c0b3000000060013c0b300b5
:105c4800e34f510008003a00114190004811dd006f
:105c58009181fb000301410052009800a14090008f
:105c6800414898008041eb0003407800000006009e
:105c7800e28f50000b00320003003e00e18f50001d
:105c88000e003a0005003700e38f5000070032008d
:105c9800e48f500009003a00060037001000900019
:105ca8000700370020009000050037003000900002
:105cb8000300370068004000010037000000eb00d7
:105cc8000000060021089800814329003108980047
:105cd80000000600889fbe0020310200000000007e
:105ce800403a2200ac3102000000000013c0b300ab
:105cf80000c1eb00613c2200003b2200902302001f
:105d080000000000093b220009007800082002007a
:105d180000000000090078001c20020000000000bc
:105d28000900780018260200000000000900780029
:105d38004631020000000000413a220009007800c4
:105d4800c631020000000000403a2200f62a020094
:105d580000000000903181001100200031009800ff
:105d6800d8ff0700903181004132290011009800c6
:105d7800013c2900010878001c2a020000000000ec
:105d88000060fe0032280200000000000060fe00f3
:105d980009047800980078000900780001000100e3
:105da800fcff370012aeab0003003200604c22004b
:105db8000008eb0002003700f0ff270030268900ba
:105dc800028eab00030032000000eb005026890071
:105dd80002003700f0ff27005026890011188000c4
:105de800604c2200c508dd001100980001188000f1
:105df800c508dd0031009800f2290200000000000b
:105e0800702681001000e0000200320014cea800c5
:105e18000100370014cea900902681001000e00090
:105e28000200320014eea8000100370014eea900a9
:105e3800802681001000e00002003200150ea80044
