:020000040000fa
:080000000002040000000000f2
:020000040000fa
:100008009a0300009a0300009a0300009a03000074
:100018009a0300009a0300009a0300009a03000064
:100028009a0300009a0300009a030000d4250000f8
:100038009a0300009a0300009a0300009a03000044
:100048009a0300009a0300009a0300009a03000034
:100058009a0300009a0300009a0300009a03000024
:100068009a0300009a0300009a0300009a03000014
:100078009a0300009a0300009a0300009a03000004
:100088009a0300009a0300009a0300009a030000f4
:100098009a0300009a0300009a0300009a030000e4
:1000a8009a0300009a0300009a0300009a030000d4
:1000b8009a0300009a0300009a0300009a030000c4
:1000c8009a0300009a0300009a0300009a030000b4
:1000d8009a0300009a0300009a0300009a030000a4
:1000e8009a0300009a0300009a0300009a03000094
:1000f8009a0300009a0300009a0300009a03000084
:100108009a0300009a0300009a0300009a03000073
:100118009a0300009a0300009a0300009a03000063
:100128009a0300009a0300009a0300009a03000053
:100138009a0300009a0300009a0300009a03000043
:100148009a0300009a0300009a0300009a03000033
:100158009a0300009a0300009a0300009a03000023
:100168009a0300009a0300009a0300009a03000013
:100178009a0300009a0300009a0300009a03000003
:100188009a0300009a0300009a0300009a030000f3
:100198009a0300009a0300009a0300009a030000e3
:1001a8009a0300009a0300009a0300009a030000d3
:1001b8009a0300009a0300009a0300009a030000c3
:1001c8009a0300009a0300009a0300009a030000b3
:1001d8009a0300009a0300009a0300009a030000a3
:1001e8009a0300009a0300009a0300009a03000093
:0801f8009a0300009a030000c5
:020000040000fa
:100208009a0300009a0300009a0300009a03000072
:100218009a0300009a0300009a0300009a03000062
:100228009a0300009a0300009a030000d4250000f6
:100238009a0300009a0300009a0300009a03000042
:100248009a0300009a0300009a0300009a03000032
:100258009a0300009a0300009a0300009a03000022
:100268009a0300009a0300009a0300009a03000012
:100278009a0300009a0300009a0300009a03000002
:100288009a0300009a0300009a0300009a030000f2
:100298009a0300009a0300009a0300009a030000e2
:1002a8009a0300009a0300009a0300009a030000d2
:1002b8009a0300009a0300009a0300009a030000c2
:1002c8009a0300009a0300009a0300009a030000b2
:1002d8009a0300009a0300009a0300009a030000a2
:1002e8009a0300009a0300009a0300009a03000092
:1002f8009a0300009a0300009a0300009a03000082
:100308009a0300009a0300009a0300009a03000071
:100318009a0300009a0300009a0300009a03000061
:100328009a0300009a0300009a0300009a03000051
:100338009a0300009a0300009a0300009a03000041
:100348009a0300009a0300009a0300009a03000031
:100358009a0300009a0300009a0300009a03000021
:100368009a0300009a0300009a0300009a03000011
:100378009a0300009a0300009a0300009a03000001
:100388009a0300009a0300009a0300009a030000f1
:100398009a0300009a0300009a0300009a030000e1
:1003a8009a0300009a0300009a0300009a030000d1
:1003b8009a0300009a0300009a0300009a030000c1
:1003c8009a0300009a0300009a0300009a030000b1
:1003d8009a0300009a0300009a0300009a030000a1
:1003e8009a0300009a0300009a0300009a03000091
:0803f8009a0300009a030000c3
:020000040000fa
:10040000afe021000e7f24000e01880000000000f4
:10041000000020000000e000020032000001200087
:10042000200288000c00070000ca22000100200002
:1004300011000700000020000000e0000200320070
:10044000000002000000000042290200000000003d
:100450000040da000000fe004440a900807f200038
:100460000000e0000300320000002000a00188002e
:100470004440a80000000600910188008000780038
:100480000000eb0015003700e280400032a0b4000d
:100490009101ba00e280400032a0b4009102ba009b
:1004a000e280400032a0b4000002eb00472bde00e7
:1004b000f507b200602ce10004003a000059eb009f
:1004c0008301e900fdff3e00040037006128e100e0
:1004d000010032000082eb00040007001101ba00a5
:1004e0000200e000e8ff3a00000006003159ba00bf
:1004f0008301e9000c0032002159ba008301e900b0
:10050000080032000400e00003003a00e2804000ee
:1005100032a0b400f5ff370011d9ba008301e90019
:10052000faff3a008100e800e180400032a0b40008
:10053000000006004a2104000000000064200400be
:1005400000000000ce20040000000000fa2104009a
:1005500000000000161e040000000000fc1c040047
:1005600000000000e82b040000000000ea2b04005b
:1005700000000000ee2b040000000000f22b04003d
:1005800000000000f62b040000000000fa2b04001d
:1005900000000000d418040000000000321b04001a
:1005a000000000004e19040000000000e4180400e0
:1005b00000000000401a040000000000b019040010
:1005c00000000000182a040000000000ae2b040008
:1005d00000000000b82b040000000000c42b040041
:1005e00000000000dc2b040000000000d42a0400fe
:1005f00000000000062b040000000000122b040085
:1006000000000000262b040000000000482b04001e
:1006100000000000ea22040000000000162404008c
:100620000000000026240400000000003a2404001a
:10063000000000005c2404000000000054280400b6
:1006400000000000c828040000000000d4280400b6
:1006500000000000f0280400000000001e29040033
:10066000000000004427040000000000e22704000e
:100670000000000000280400000000001028040012
:10068000000000002a280400000000001a2c0400ca
:1006900000000000242c0400000000002c2c0400aa
:1006a000000000003e2c040000000000782c040034
:1006b00000000000802c0400000000001a2a040042
:1006c000000000001e2a0400000000008a2c040024
:1006d000000000004a2c040000000000562c04001a
:1006e00000000000622c0400000000000e11040055
:1006f00000000000a4100400000000001813040013
:1007000000000000d413040000000000d018040012
:10071000000000008e240400000000009424040067
:1007200000000000a424040000000000aa2404002b
:10073000000000000040da000000fe008f1fd10022
:100740000c0007008f87e9000000e00000000600b1
:10075000809feb00070007008f87e9000000e000a2
:1007600000000600140020003d003700f4ff2f00b9
:100770003b003700889fbe008a9fbe008c9fbe0052
:100780000404be000605be00809fbe00829fbe001e
:1007900021000700040678000800be000a01be0020
:1007a0001d000700840678004f03be004f02be0004
:1007b0008d4f76007fb0970013003300f0ff2f00bd
:1007c0008b8f6b0006003b000d0666000c00a70037
:1007d0000a00370007f0a600100020000a003700ca
:1007e000880f5200898f5a008a0f5b008b8f5b0045
:1007f000030039001000200001003e00000020002e
:1008000007f0a7000000ea004f06be004f05be003b
:100810004f04be000000060005ff270005826100ae
:10082000070032000428e100010032002400050026
:100830000600070001003a00440005000408050016
:1008400002000700f9ff3a00140005006f82610002
:1008500081027000850271008502720000000600ae
:10086000889fbe008a9fbe00841f78001700070083
:100870004f00780011003300f0ff2f00838f6c00d1
:1008800006003b00040565000a00a70008003700c9
:1008900009f0a6001000200008003700820f540065
:1008a000838f5c00030039001000200001003e002f
:1008b0000000200009f0a7000000ea004f05be007c
:1008c0004f04be000000e000000006000004be006f
:1008d000060007000003be000405be000200be00c3
:1008e00002000700844f750000000600c70ade0002
:1008f000f107b200f50fb20008003200e1cf42006c
:10090000020032000170a00024000500810f700079
:10091000010032000408050044000500810f70004a
:1009200002003a00140005008502e90000004000c2
:1009300081c04800fcff3b000170a00024000500be
:020000040000fa
:1009400000030000060900000c1000001316000050
:10095000191c00001f220000252800002b2e00007b
:1009600031330000363900003c3f000041440000b4
:10097000474900004c4e00005153000055580000fc
:100980005a5c00005e60000062640000666800005f
:100990006a6b00006d6f00007071000073740000de
:1009a00075760000787900007a7a00007b7c000080
:1009b0007d7d00007e7e00007e7f00007f7f000046
:1009c0007f7f00007f7f00007e7e00007e7d000034
:1009d0007d7c00007b7a00007a7900007876000048
:1009e0007574000073710000706f00006d6b000083
:1009f0006a68000066640000626000005e5c0000df
:100a00005a58000055530000514e00004c49000058
:100a100047440000413f00003c39000036330000ed
:100a2000312e00002b280000252200001f1c000092
:100a300019160000131000000c0900000603000046
:100a400000fd0000faf70000f4f00000edea0000fd
:100a5000e7e40000e1de0000dbd80000d5d20000b2
:100a6000cfcd0000cac70000c4c10000bfbc000059
:100a7000b9b70000b4b20000afad0000aba80000f1
:100a8000a6a40000a2a000009e9c00009a9800006e
:100a90009695000093910000908f00008d8c0000cf
:100aa0008b8a00008887000086860000858400000d
:100ab0008383000082820000828100008181000027
:100ac0008181000081810000828200008283000019
:100ad000838400008586000086870000888a0000e5
:100ae0008b8c00008d8f000090910000939500008a
:100af000969800009a9c00009ea00000a2a400000e
:100b0000a6a80000abad0000afb20000b4b7000073
:100b1000b9bc0000bfc10000c4c70000cacd0000be
:100b2000cfd20000d5d80000dbde0000e1e40000f9
:100b3000e7ea0000edf00000f4f70000fafd000025
:100b40000000000000000000240300004806000030
:100b50006a0900008c0c0000ab0f0000c8120000f6
:100b6000e2150000f91800000b1c00001a1f00001d
:100b70002322000028250000262800001f2b00004b
:100b8000112e0000fb300000df330000ba360000f9
:100b90008c390000563c0000173f0000ce41000099
:100ba0007a4400001c470000b44900003f4c00009c
:100bb000bf4e0000335100009b530000f55500006c
:100bc00042580000825a0000b35c0000d75e00006b
:100bd000eb600000f1620000e8640000cf660000f6
:100be000a66800006d6a0000236c0000c96d00005b
:100bf0005e6f0000e270000054720000b5730000e8
:100c000004750000417600006b77000084780000d6
:100c1000897900007c7a00005c7b0000297c000060
:100c2000e37c0000897d00001d7e00009c7e0000aa
:100c3000097f0000617f0000a67f0000d87f0000d0
:100c4000f57f0000ff7f0000f57f0000d87f0000e7
:100c5000a67f0000617f0000097f00009c7e0000ed
:100c60001d7e0000897d0000e37c0000297c0000df
:100c70005c7b00007c7a00008979000084780000a9
:100c80006b7700004176000004750000b57300002a
:100c900054720000e27000005e6f0000c96d000039
:100ca000236c00006d6a0000a6680000cf6600009b
:100cb000e8640000f1620000eb600000d75e000015
:100cc000b35c0000825a000042580000f555000055
:100cd0009b53000033510000bf4e00003f4c00000a
:100ce000b44900001c4700007a440000ce410000d7
:100cf000173f0000563c00008c390000ba36000057
:100d0000df330000fb300000112e00001f2b00001d
:100d10002628000028250000232200001a1f0000ba
:100d20000b1c0000f9180000e2150000c8120000ba
:100d3000ab0f00008c0c00006a09000048060000a0
:100d40002403000000000000dcfc0000b8f90000f3
:100d500096f6000074f3000055f0000038ed000036
:100d60001eea000007e70000f5e30000e6e00000ef
:100d7000dddd0000d8da0000dad70000e1d40000a1
:100d8000efd1000005cf000021cc000046c90000d3
:100d900074c60000aac30000e9c0000032be000013
:100da00086bb0000e4b800004cb60000c1b30000f0
:100db00041b10000cdae000065ac00000baa000000
:100dc000bea700007ea500004da3000029a10000e1
:100dd000159f00000f9d0000189b00003199000036
:100de0005a97000093950000dd93000037920000b1
:100df000a29000001e8f0000ac8d00004b8c000004
:100e0000fc8a0000bf890000958800007c870000f4
:100e10007786000084850000a4840000d78300004a
:100e20001d83000077820000e381000064810000e0
:100e3000f78000009f8000005a800000288000009a
:100e40000b800000018000000b8000002880000063
:100e50005a8000009f800000f7800000648100003d
:100e6000e3810000778200001d830000d78300002b
:100e7000a484000084850000778600007c87000041
:100e800095880000bf890000fc8a00004b8c0000a0
:100e9000ac8d00001e8f0000a29000003792000071
:100ea000dd930000939500005a97000031990000ef
:100eb000189b00000f9d0000159f000029a1000055
:100ec0004da300007ea50000bea700000baa0000f5
:100ed00065ac0000cdae000041b10000c1b3000020
:100ee0004cb60000e4b8000086bb000032be000033
:100ef000e9c00000aac3000074c6000046c9000093
:100f000021cc000005cf0000efd10000e1d40000ab
:100f1000dad70000d8da0000dddd0000e6e00000ee
:100f2000f5e3000007e700001eea000038ed0000ce
:100f300055f0000074f3000096f60000b8f90000c8
:100f4000dcfc0000000000000000000000000000c9
:100f5000bf2a0000240300007cd9000047060000df
:100f6000499000006a0900005ed300008b0c00006d
:100f70002b270000ab0f00006e100000c81200000d
:100f800044140000e21500003cb80000f81800000e
:100f90006a8200000b1c00007bf90000191f000092
:100fa000c5a40000232200005d0c000028250000dd
:100fb00028b9000026280000eb3400001f2b000099
:100fc000620a0000112e00004dc50000fb30000039
:100fd00087f20000de33000013200000ba36000064
:100fe00032dd00008c39000070ba0000563c000071
:100ff000b7490000173f0000641e0000ce4100000a
:1010000050cd00007a440000e6ec00001c470000d0
:1010100033150000b4490000f3df00003f4c00002e
:10102000a4e80000bf4e000094cc00003351000043
:10103000ef2a00009b530000d2a40000f5550000e9
:1010400054dd00004258000099790000825a0000e7
:10105000df200000b45c0000897c0000d75e000047
:101060002f380000ec600000ac010000f2620000cc
:1010700025890000e86400001f810000cf660000a1
:10108000809e0000a6680000a39800006d6a000022
:101090005f290000246c0000140d0000ca6d0000e0
:1010a000b10200005f6f0000c5cb0000e2700000dd
:1010b000842c000055720000d0eb0000b5730000d6
:1010c00044d30000047500003caf000041760000ee
:1010d000da4e00006c770000138400008478000072
:1010e000b02300008a7900005a0500007d7a0000d4
:1010f0009d0300005d7b0000edfb0000297c0000eb
:10110000b1ce0000e37c00003f5f00008a7d00005c
:10111000e99300001d7e0000fb5500009d7e00004d
:10112000c3910000097f00008e360000627f00003e
:10113000b3360000a77f00008d870000d87f000035
:1011400081210000f67f0000ffff0000ff7f00000c
:1011500081210000f67f00008d870000d87f00000d
:10116000b3360000a77f00008e360000627f0000cb
:10117000c3910000097f0000fb5500009d7e000028
:10118000e99300001d7e00003f5f00008a7d0000a3
:10119000b1ce0000e37c0000edfb0000297c0000e4
:1011a0009d0300005d7b00005a0500007d7a000071
:1011b000b02300008a7900001384000084780000c6
:1011c000da4e00006c7700003caf00004176000072
:1011d00044d3000004750000d0eb0000b57300009c
:1011e000842c000055720000c5cb0000e2700000a6
:1011f000b10200005f6f0000140d0000ca6d000016
:101200005f290000246c0000a39800006d6a0000b4
:10121000809e0000a66800001f810000cf660000cd
:1012200025890000e8640000ac010000f2620000c3
:101230002f380000ec600000897c0000d75e0000c1
:10124000df200000b45c000099790000825a0000a1
:1012500054dd000042580000d2a40000f555000003
:10126000ef2a00009b53000094cc00003351000093
:10127000a4e80000bf4e0000f3df00003f4c000078
:1012800033150000b4490000e6ec00001c470000e4
:1012900050cd00007a440000641e0000ce410000e2
:1012a000b7490000173f000070ba0000563c00002c
:1012b00032dd00008c39000013200000ba36000037
:1012c00087f20000de3300004dc50000fb30000057
:1012d000620a0000112e0000eb3400001f2b0000fa
:1012e00028b90000262800005d0c00002825000019
:1012f000c5a40000232200007bf90000191f000094
:101300006a8200000b1c00003cb80000f8180000c6
:1013100044140000e21500006e100000c812000026
:101320002b270000ab0f00005ed300008b0c0000e9
:10133000499000006a0900007cd9000047060000bf
:10134000bf2a00002403000000000000000000008d
:1013500041d50000dbfc000084260000b8f9000045
:10136000b76f000095f60000a22c000074f3000097
:10137000d5d8000054f0000092ef000037ed0000d7
:10138000bceb00001dea0000c447000007e70000b6
:10139000967d0000f4e3000085060000e6e0000012
:1013a0003b5b0000dcdd0000a3f30000d7da0000a7
:1013b000d8460000d9d7000015cb0000e0d40000cb
:1013c0009ef50000eed10000b33a000004cf00000b
:1013d000790d000021cc0000eddf000045c90000c0
:1013e000ce22000073c6000090450000a9c3000093
:1013f00049b60000e8c000009ce1000031be0000da
:10140000b032000085bb00001a130000e3b80000f2
:10141000cdea00004bb600000d200000c0b3000074
:101420005c17000040b100006c330000ccae00003f
:1014300011d5000064ac00002e5b00000aaa000079
:10144000ac220000bda70000678600007da500005b
:1014500021df00004ba300007783000028a10000db
:10146000d1c70000139f000054fe00000d9d000036
:10147000db760000179b0000e17e00003099000041
:1014800080610000599700005d67000092950000a0
:10149000a1d60000db930000ecf2000035920000c2
:1014a0004ffd0000a09000003b3400001d8f0000a5
:1014b0007cd30000aa8d0000301400004a8c00008c
:1014c000bc2c0000fb8a0000c4500000be89000054
:1014d00026b1000093880000ed7b00007b870000b0
:1014e00050dc000075860000a6fa0000828500002e
:1014f00063fc0000a284000013040000d6830000f7
:101500004f3100001c830000c1a000007582000064
:10151000176c0000e281000005aa00006281000053
:101520003d6e0000f680000072c900009d80000042
:101530004dc900005880000073780000278000002b
:101540007fde000009800000010000000080000034
:101550007fde000009800000737800002780000013
:101560004dc900005880000072c900009d80000035
:101570003d6e0000f680000005aa000062810000b8
:10158000176c0000e2810000c1a00000758200001d
:101590004f3100001c83000013040000d6830000bc
:1015a00063fc0000a2840000a6fa0000828500000f
:1015b00050dc000075860000ed7b00007b8700009a
:1015c00026b1000093880000c4500000be890000ce
:1015d000bc2c0000fb8a0000301400004a8c000084
:1015e0007cd30000aa8d00003b3400001d8f00005a
:1015f0004ffd0000a0900000ecf2000035920000ca
:10160000a1d60000db9300005d670000929500000a
:101610008061000059970000e17e000030990000d1
:10162000db760000179b000054fe00000d9d0000bb
:10163000d1c70000139f00007783000028a100009d
:1016400021df00004ba30000678600007da500009d
:10165000ac220000bda700002e5b00000aaa00001b
:1016600011d5000064ac00006c330000ccae00006b
:101670005c17000040b100000d200000c0b3000066
:10168000cdea00004bb600001a130000e3b80000da
:10169000b032000085bb00009ce1000031be0000bc
:1016a00049b60000e8c0000090450000a9c3000052
:1016b000ce22000073c60000eddf000045c9000027
:1016c000790d000021cc0000b33a000004cf0000e7
:1016d0009ef50000eed1000015cb0000e0d4000024
:1016e000d8460000d9d70000a3f30000d7da0000e5
:1016f0003b5b0000dcdd000085060000e6e000004a
:10170000967d0000f4e30000c447000007e70000f6
:10171000bceb00001dea000092ef000037ed000076
:10172000d5d8000054f00000a22c000074f3000093
:10173000b76f000095f6000084260000b8f900009d
:1017400041d50000dbfc00000000000000000000ac
:1017500031000000182a0000ae2b0000b82b00005a
:10176000c42b0000dc2b000081000000d42a000004
:10177000062b0000122b0000262b0000482b000037
:10178000b1010000ea220000162400002624000017
:101790003a2400005c240000a1010000542800004d
:1017a000c8280000d4280000f02800001e290000ee
:1017b000810c000044270000e22700000028000000
:1017c000102800002a28000030000000182a00001d
:1017d0001a2c0000242c00002c2c00003e2c0000b1
:1017e000b1130000782c0000802c00001a2a0000a1
:1017f0001e2a00008a2c0000610d00004a2c000007
:10180000562c00001a2a00001e2a0000622c00003c
:10181000ffff00000e110000a410000018130000cc
:10182000d4130000d01800000000000000000000e9
:1018300000000000000000000000000000000000a8
:1018400001000000d61c000002000000e21c0000a5
:1018500003000000201d000004000000dc1c00004c
:1018600005000000f21c000006000000f81c00004b
:1018700007000000301d0000080000005e1d000091
:1018800009000000641d00000a000000541d000053
:101890000b0000006c1d00000c000000401d00004b
:1018a0000d000000581d00000e000000fe1c00008e
:1018b0000f000000101d000010000000721d00004d
:1018c00011000000ca1c000012000000c81c00002b
:1018d00013000000c61c000014000000cc1c000017
:1018e00015000000ce1c000016000000d01c0000f7
:1018f00017000000d21c000018000000d41c0000db
:10190000000000000000000053650000702000008f
:10191000203100002032000030310000363100005c
:10192000353a0000313200003a3500003000000046
:020000040000fa
:101930001000fa00889fbe008a9fbe008c1f7800ae
:1019400000067800b4b79f00c5b79f00d6b79f00c8
:10195000e7b79f002c709000ef4060000068a30084
:1019600067003200e4cf500003003200e8cf50009f
:101970007b013a00270037004c109000dc109000eb
:101980000c1490009c1490003fb59700cfb59700c1
:101990003c299000e10f51000f003a000801be0001
:1019a000b2030200000000000046eb000000e0006f
:1019b00070013d001cc0b3000801be000a00be005b
:1019c000b6030200000000000000e00069013d00d5
:1019d0000046eb00670137000801be00b6030200b5
:1019e000000000000046eb000000e0006101340050
:1019f0001cc0b3000801be000a00be00b203020012
:101a0000000000000000e0005a0134000046eb0036
:101a1000580137004c109000dc1090006c119000c1
:101a2000fc1190000c1490009c1490002c15900058
:101a3000bc1590003fb29700cfb297005fb39700fc
:101a4000efb39700f4b79f0085bf9f0096bf9f003c
:101a5000a7bf9f003c2a9000e10f520014003a00fb
:101a60000802be000a03be009e0302000000000040
:101a70000046eb000000e0003e013d001cc0b3004a
:101a80000802be000a03be007fb097008fb897001f
:101a90001fb99700afb99700a8030200000000002b
:101aa0000000e00033013d000046eb00310137004b
:101ab0000802be000a03be00a803020000000000e6
:101ac0000046eb000000e0002a0134001cc0b30017
:101ad0000802be000a03be007fb097008fb89700cf
:101ae0001fb99700afb997009e03020000000000e5
:101af0000000e0001f0134000046eb001d0137002c
:101b00000058a3008b003200e2cf50001f003200cb
:101b100003003e00e1cf500013013a0005003700fa
:101b2000e4cf50002f003200e8cf50000e013a0001
:101b3000490037008c6890000c609000efe197003e
:101b40003c299000e10f510008003a000046eb00ec
:101b500080cf500007013d001cc0b300834f5000f0
:101b6000040134000046eb00020137000046eb00a0
:101b700080cf5000ff0034001cc0b300834f5000e2
:101b8000fc003d000046eb00fa003700cc1090004e
:101b90000c109000bfb197003c299000e10f51005c
:101ba00008003a000046eb00808f5000f1003d0035
:101bb0001cc0b300830f5000ee0034000046eb0061
:101bc000ec0037000046eb00808f5000e900340045
:101bd0001cc0b300830f5000e6003d000046eb0040
:101be000e40037004c119000dc1190000c109000c4
:101bf0009c1090003fb39700cfb397003c2a900011
:101c0000e10f52000a003a000046eb00800f51003d
:101c1000818f5900d7003d001cc0b300860f5000d3
:101c2000878f5800d30034000046eb00d100370006
:101c30000046eb00800f5100818f5900cd00340029
:101c40001cc0b300860f5000878f5800c9003d00ac
:101c50000046eb00c70037004c129000dc129000e9
:101c60006c139000fc1390000c1090009c109000de
:101c70002c119000bc1190003fb49700cfb4970096
:101c80005fb59700efb59700f8b79f0089bf9f0039
:101c90009abf9f00abbf9f003c2c9000e10f540007
:101ca00012003a000046eb000020e10001a8e1002c
:101cb00002b0e10003b8e100ae003d001cc0b3007b
:101cc0007fb297008fba97001fbb9700afbb9700fa
:101cd0000400e1000588e1000690e1000798e100ba
:101ce000a40034000046eb00a20037000046eb00e1
:101cf0000020e10001a8e10002b0e10003b8e1002a
:101d00009c0034001cc0b3007fb497008fbc9700c8
:101d10001fbd9700afbd97000800e1000988e100f2
:101d20000a90e1000b98e10092003d000046eb00b4
:101d300090003700e2cf50001f00320003003e0049
:101d4000e1cf50008a003a0005003700e4cf500090
:101d50002f003200e8cf500085003a0049003700dc
:101d60008c6890000c609000efe197003c29900097
:101d7000e10f510008003a000046eb0080cf500010
:101d80007c0031001cc0b300834f50007900360046
:101d90000046eb00770037000046eb0080cf500094
:101da000740036001cc0b300834f50007100310036
:101db0000046eb006f003700cc1090000c10900034
:101dc000bfb197003c299000e10f510008003a0094
:101dd0000046eb00808f5000660031001cc0b3004d
:101de000830f5000630036000046eb0061003700af
:101df0000046eb00808f50005e0036001cc0b30030
:101e0000830f50005b0031000046eb0059003700a3
:101e10004c119000dc1190000c1090009c10900070
:101e20003fb39700cfb397003c2a9000e10f5200d8
:101e30000a003a000046eb00800f5100818f5900e4
:101e40004c0031001cc0b300860f5000878f580033
:101e5000480036000046eb00460037000046eb0025
:101e6000800f5100818f5900420036001cc0b30022
:101e7000860f5000878f58003e0031000046eb006f
:101e80003c0037004c129000dc1290006c13900064
:101e9000fc1390000c1090009c1090002c119000ee
:101ea000bc1190003fb49700cfb497005fb5970086
:101eb000efb59700f8b79f0089bf9f009abf9f00ba
:101ec000abbf9f003c2c9000e10f540012003a0081
:101ed0000046eb000020e10001a8e10002b0e100b3
:101ee00003b8e100230031001cc0b3007fb29700ab
:101ef0008fba97001fbb9700afbb97000400e100ab
:101f00000588e1000690e1000798e100190036001d
:101f10000046eb00170037000046eb000020e10010
:101f200001a8e10002b0e10003b8e10011003600b1
:101f30001cc0b3007fb497008fbc97001fbd9700f3
:101f4000afbd97000800e1000988e1000a90e100b8
:101f50000b98e100070031000046eb000500370058
:101f60000046eb00030037000046eb00010037009d
:101f70000046eb000c4078004f0678004f05be008d
:101f80004f04be000080fa0000000600a070900020
:101f9000efc06000e2cf50000f00320003003e00af
:101fa000e1cf500018003a0005003700e4cf5000a0
:101fb0000e003200e8cf500013003a000f00370047
:101fc00000189000104278000482fb008002eb00b1
:101fd0006033b8000c003700001890001002780041
:101fe0008002eb006033b800070037000018900053
:101ff0001002be006033b8000300370000189000e4
:102000003002be002003be000400be000601be0078
:1020100000000600889fbe008a1f78008044eb0005
:10202000094578008a4078008983fb000704e800ae
:1020300008044400f283430030199000c019900056
:10204000500a90008182fb0060037c0066c37a0026
:102050000672790061014100e08149003218980060
:10206000431898008140e80060c17b0082cf500097
:10207000f1ff39008944e800b078900081cf540026
:10208000e8ff39004f0578004f04be00000006004d
:1020900090017800818f51000d0032000002eb00aa
:1020a0000300e0000e0032006c01400002027800e4
:1020b00092017800818f5100060032006c014100ce
:1020c0000300e000f9ff3a000002eb0004003700d3
:1020d000000278000300e00001003a000002eb007b
:1020e00004007800000006000001eb000000e000a2
:1020f0001300320090017800818f51000c003200f3
:102100000300e0000e00320064014000020078008d
:1021100092017800818f5100050032006401410076
:102120000300e000f9ff3a000001eb000400370073
:102130000001eb000300e0000100320010019000fc
:1021400002007800000006000088eb0080007800a4
:10215000f1014000700240000001eb00822878008d
:1021600082697800848f5000fcff3a0001802000d3
:10217000510898006022b8006033b800041098003d
:1021800015109800261098003710980044109800f9
:102190005510980066109800771098008000eb00aa
:1021a000011898000042eb00217098002118980057
:1021b0006011b800321898004318980024789800ed
:1021c00034789800611898007118980001209800e0
:1021d00024c09800222098003320980042209800c4
:1021e0005320980044c89800722098000328980053
:1021f000823821000300200012289800232898002c
:102200001100200031289800620898007308980097
:1022100041f08000c008980000000600889fbe00c2
:102220008a9fbe008c1f7800000678002c18900052
:10223000e60f500009003e00e50f50002e0031006f
:10224000e20f500011003200e40f5000080032008d
:10225000e10f5000f2003a0039003700e70f50005c
:10226000c3003200e80f5000ed003a00a90037002b
:102270000c2090000000e800002698007c189000d8
:102280000000e800701e9800e50037007c18900000
:10229000ec1890000001e800721e9800810f5000b9
:1022a000110039000000eb00701e98000c0078004f
:1022b00058ff07002c7890000080fb008000eb00a6
:1022c0003c199000cc199000000041008180490029
:1022d00082382100820f5000e08f58000200360043
:1022e0000000eb00201e98000c2090000000e80089
:1022f00000269800ca0037000c00780023ff070072
:102300000205be000004be000203be000002be00c3
:102310000c00780086fd07000004e0000300320096
:1023200040002000201e9800bd003700481698008d
:10233000591698006a1698007b169800b800370066
:102340007c189000ec1890000001e800721e9800c4
:10235000810f5000310039000000eb00701e980022
:102360002c7890000080fb008000eb003c1990006e
:10237000cc19900000004100818049008238210082
:10238000820f5000e08f5800030036006000b80054
:10239000301e9800411e98000044eb0088447800ed
:1023a000094078000883fb008603e8008783430028
:1023b000720343003c199000cc199000dc08900097
:1023c0000082fb00ec827b00e5427a008570790098
:1023d00061014100e0814900321e9800431e9800cf
:1023e0000040e800ec407b00814f5000f1ff3900d5
:1023f0000844e8003c789000804f5400e8ff390022
:102400007c2090008c289000820f5000838f580011
:1024100002003e0010c0b30040ce98000c007800cf
:10242000dafe07000205be000004be000203be0083
:102430000002be000c0078003dfd07000004e00033
:102440002f0032004cc890000004e0002c00320045
:102450002c209000bc209000e00f5000e08f58002e
:1024600008003d0040269800512698006000b80002
:10247000301e9800411e980080002000201e980009
:10248000670037003c189000cc189000e00f500017
:10249000e08f58000e0032007c1990000200e0002e
:1024a00003003200402698005126980011003700a2
:1024b0002c7990000281fb008001eb0002005000ab
:1024c0008380580040269800512698000900370064
:1024d0002c7890000080fb008000eb001c2990000d
:1024e000ac299000000051008180590040269800de
:1024f0005126980070002000201e980048003700e8
:1025000048169800591698006a1698007b1698008d
:10251000430037007c189000ec1890000001e800a0
:10252000721e9800810f50003d0039000000eb0042
:10253000701e98002c7890000080fb008000eb005b
:102540004c219000dc219000000041008180490076
:102550004026980051269800e00f5000e08f580068
:102560002f00350020002000201e98002c0037008e
:102570007c189000ec1890000001e800721e980092
:10258000810f5000260039000000eb00701e9800fb
:102590002c7890000080fb008000eb003c1990003c
:1025a000cc19900000004100818049008238210050
:1025b000820f5000e08f5800030036006000b80022
:1025c000301e9800411e98000c00780091fe070014
:1025d0004c219000dc2190003c189000cc18900019
:1025e00000015100818159002c209000bc209000f6
:1025f000800f5100818f5900070036001c2a90007f
:10260000ac2a90000201420083814a00820f5000f0
:10261000838f5800020039000000eb00201e980054
:102620004f0678004f05be004f04be0000000600b4
:102630004071900082487800307a90009440980071
:1026400040799000a2409800507a9000b4409800e1
:1026500060719000c240980030199000c01990003d
:10266000481add004811de0002017200c819de00c0
:10267000d240980000799000e2409800107a9000d3
:10268000f44098002059900082489800500990002a
:10269000cf91de00481add004811de000201720011
:1026a000c819de009248980050099000cf91de00d2
:1026b0004019de00a248980050099000cf91de003a
:1026c0004819de00b248980040c19000c248980006
:1026d00020219000b0219000481add004811de0052
:1026e00002017200c899de00d248980060c19000d3
:1026f000e248980070c29000f448980000c9900029
:102700008250980040219000d0219000481add00ae
:102710004811de0002017200c899de009250980054
:1027200020c99000a250980030ca9000b450980080
:1027300020d19000c250980010299000a02990004c
:10274000481add004811de0002017200c819de00df
:10275000d250980040d19000e250980050d29000a2
:10276000f4509800405990008258980060099000f9
:10277000f0099000481add004811de0002017200e5
:10278000c819de009258980060599000a25898002d
:1027900070589000b058980020c8b300c0589800f6
:1027a000d0c1b300000006000f02b000889fbe0039
:1027b0008a9fbe008c9fbe008e1f78000004be0062
:1027c0000247780010c0b300e34f57006e02360096
:1027d00009067800dc407800e8cf50006a023e002d
:1027e0000104e000680232000000eb00201c9800a9
:1027f0000041eb00307c9800002498006000b80095
:10280000301c9800411c9800394290004822dd009d
:10281000a94190008381fb0083014200631c980062
:10282000731c98006022b8006033b800441498000c
:10283000551498006614980077149800227c98002c
:1028400023c0b30023c4980042cc980040249800d1
:10285000512498001c04e0008b0032004bc0b300f0
:10286000024578008c0678000e407800c0d79f00a3
:102870000b46e8000b80fb0069407800e14f5000f8
:10288000060032004e003900e24f50002a003200ac
:10289000e34f50002d023a00380037000c81fb0056
:1028a000e940790081df9f0002814400924190005d
:1028b000e3d79f0044f0800084b79f0014007800a5
:1028c000b2419000c819dd00a24090008180fb0059
:1028d0008180410004fe0700000778000e00e00040
:1028e0001c0232008fb29700150090009e00780005
:1028f000e7fd07000000e000180232006fd39700e8
:102900004831dd008fdb97008780fb0081004100ac
:10291000500190000e007800020001008a80fb0048
:102920008100e8008180400000b478000000e000f1
:102930003a003a000b0237000c81fb0040f08000a7
:102940001000780002814400b2419000c819dd00f7
:10295000a24090008180fb0081804100e2fd0700e1
:102960000000e000010232008a80fb008100e800e4
:102970008180400000b47800280037000c81fb0003
:1029800040f080001000780002814400b2419000c5
:10299000c819dd00a24090008180fb0081804100c9
:1029a000d1fd07000000e000f20132008a80fb0048
:1029b0008100e8008180400010b4780017003700e3
:1029c0000c80fb008a80fb008100e8000181400050
:1029d00080804400114390000683fb008003eb00dd
:1029e000483add00c832de00850272004832dd0060
:1029f000214390008683fb0006002000040343006f
:102a000085834b00694078000082fb008002eb0068
:102a10000600420087804a00003479000c86fb00e3
:102a20000c8644004c4090008a80fb0081004400ea
:102a3000a05098002879900002414000227c980024
:102a4000a8c0900000c0400020c498000281fb0094
:102a500083382100110009008201d8000181510052
:102a6000cf91de00122c9800232c9800e6c545007b
:102a70000a45e8009d4f15007dff3e000d067800d9
:102a80004fd79700010037004bc0b3000b80fb000d
:102a900069407800207498008b45e8000b45e800f9
:102aa0008b85fb0069c07d00e14f500006003200bd
:102ab0004d003900e24f50002a003200e34f500031
:102ac000ae013a00370037008a80fb0069c2780007
:102ad00084e79f00818044009142900085df9f0041
:102ae0004df080001d007800314190004811dd005c
:102af000a14090008180fb00810041007afd070029
:102b00008005780010c0b3000b00e0009e01320089
:102b10001d0090009b0078005dfd0700000178001b
:102b200010c0b3000200e000970132000fdb9700f5
:102b3000c830dd008fe397000780fb0080804000f5
:102b4000520190000b007800020001008000780024
:102b5000011c980010c0b3000100e00036003a00ec
:102b6000890137008a80fb0040f080001000780067
:102b700081804400314190004811dd00a140900067
:102b80008180fb008100410057fd07008000780034
:102b900010c0b3000100e0007b013200011c98006e
:102ba000250037008a80fb0040f08000100078008c
:102bb00081804400314190004811dd00a140900027
:102bc0008180fb008100410047fd07008000780004
:102bd00010c0b3000100e0006b01320091007800ea
:102be000011c9800140037000a80fb00808044001c
:102bf000114190000281fb008001eb00481add00ca
:102c0000c812de00850272004812dd0021419000ea
:102c10008281fb00020020000402410085824900fd
:102c2000694178000281fb008001eb000400410053
:102c300085804900001c980064454500a8759000f7
:102c4000ebd79f00efc66500e2cf560013003200bd
:102c500003003e00e1cf56004a013a00050037006c
:102c6000e4cf56001b003200e8cf560045013a0081
:102c7000360037000a81fb00694279000482fb00bc
:102c80008002eb006033b80004149800151498001b
:102c90002614980037149800e60037000a81fb00dc
:102ca00082814400134290004822dd00694179008e
:102cb0000281fb00020242008002eb006033b80098
:102cc00004149800151498002614980037149800de
:102cd000d80037008a81fb00038144001242900033
:102ce0000482fb008002eb00482bdd00c823de00dd
:102cf000870373004823dd00224290008482fb009a
:102d0000040020000603420087834a0069c279005c
:102d10000482fb008002eb000602420087824a0028
:102d200032419000c811dd00020020000402410081
:102d3000858249006033b800041498001514980087
:102d40002614980037149800ba0037000a80fb0058
:102d5000c0b79f008080440081bf9f001140900059
:102d60000080fb008000eb006011b8000203be0091
:102d70000002be00c83bdd00c835de008783750059
:102d80004833dd00c82dde0006837500c82add004b
:102d9000c825de00858275004822dd0084b79f00cb
:102da00095b79f00a6b79f00b7b79f000fb89700d1
:102db000204290000480fb008000eb006011b8000e
:102dc0000203be000002be008603780005037800ff
:102dd000840278000002eb000fb097009fb09700cc
:102de0002fb19700bfb197000400400085804800d4
:102df0000601490087814900c0af9f00d1af9f0005
:102e0000e2af9f00f3af9f00cfb0970069c2780098
:102e10000480fb008000eb006011b8004faa97000f
:102e2000dfaa97006fab9700ffab9700000242004c
:102e300081824a0002034b0083834b0084b79f00ca
:102e400095b79f00a6b79f00b7b79f008fba9700ae
:102e5000354290000482fb008002eb006033b80032
:102e60000400be000601be00c811dd00c80dde0072
:102e7000838175004809dd00c805de000281750008
:102e8000c800dd000000eb000fb297009fb2970072
:102e90002fb39700bfb397000000420081804a0023
:102ea00002014b0083814b00c0af9f00d1af9f0058
:102eb000e2af9f00f3af9f008fba970045429000aa
:102ec0000482fb008002eb006033b8000400be0007
:102ed0000601be000001be006000b8004faa9700c6
:102ee000dfaa97006fab9700ffab9700000042008e
:102ef00081804a0002014b0083814b0080b79f0014
:102f000091b79f00a2b79f00b3b79f008fba9700f9
:102f1000554290000482fb008002eb006033b80051
:102f20000400be000601be00c809dd00c805de00c1
:102f3000838175004801dd006000b8000fb2970082
:102f40009fb297002fb39700bfb3970000004200d5
:102f500081804a0002014b0083814b00c0af9f007b
:102f6000d1af9f00e2af9f00f3af9f008fba9700f1
:102f7000654290000482fb008002eb006033b800e1
:102f80000400be000601be00800178000001eb00d5
:102f90006000b80080b79f0091b79f00a2b79f0064
:102fa000b3b79f004faa9700dfaa97006fab9700b7
:102fb000ffab97000000420081804a0002014b00f5
:102fc00083814b00c0b79f00d1b79f00e2b79f003d
:102fd000f3b79f008fba9700754190000282fb0003
:102fe0008002eb006033b800c823dd000003eb0073
:102ff0006022b80084b79f0095b79f00a6b79f00d6
:10300000b7b79f004fb09700dfb097006fb1970040
:10301000ffb1970004004000858048000601490088
:103020008781490000149800111498002214980018
:1030300033149800efd097000104e000050035003c
:10304000287090000054a00020749800644545004a
:10305000010037000d4545000a81fb0082804400d5
:10306000114290000482fb008002eb00482bdd003f
:10307000c823de00870373004823dd002140900051
:103080008082fb00040020000602420087824a0082
:10309000694179000281fb008001eb0004024100dc
:1030a0008582490031419000c811dd0002002000f6
:1030b00004004100858049002024980031249800b4
:1030c0004e2a02000000000070249800012c980095
:1030d000644045000080fb00694078000080fb00f0
:1030e000302c9800654545008a4f57000b0036008c
:1030f0000a85fb0069407d00e14f50000d003a0059
:1031000008007800a1fb07004014980051149800b3
:1031100062149800731498000600370008007800c5
:103120009afb07004014980051149800621498000c
:10313000731498001c4678003c7c98001980fb00b2
:10314000201c98000040eb000f00370010c0b300b7
:103150000d00370010c0b3000b00370010c0b300e3
:103160000900370010c0b3000700370010c0b300db
:103170000500370010c0b3000300370010c0b300d3
:103180000100370010c0b3004f0778004f06be00a3
:103190004f05be004f04be000f02b1000000060044
:1031a0000000eb000000060021c0b3004140980081
:1031b000b000900012c2b3009240980090009000be
:1031c0000100010000000600b00090009140900056
:1031d000e2cf50001500320005003e000104e0007f
:1031e00009003200e1cf500024003a000a00370005
:1031f000e4cf50001700320011003900e5cf500035
:103200001e003a00180037000001eb0041f080007a
:10321000b20098001a0037001200200041f0800030
:10322000b20098000041eb0015003700220020009a
:1032300041f08000b20098000041eb001000370020
:103240003200200041f08000b20098000041eb0005
:103250000b0037004200200041f08000b2009800cf
:103260000041eb00060037005200200041f08000d2
:10327000b20098000041eb000100370022c2b30009
:10328000b00090009240980021c0b30041409800e7
:10329000900090000100010000000600b0009000c6
:1032a0000041eb009240980041f080003101900015
:1032b000b0009000a240980031c0b3004140980097
:1032c0009000900001000100000006000000e000f6
:1032d0000600320010027800810f52001000320008
:1032e0000400e00005003a000f00370030c4b300ce
:1032f000004978000000eb0011003700e4014000b5
:103300000300780013027800810f5200040032009d
:10331000e48141000400e000f9ff3a0002003700b8
:103320000400e00004003a0000c4b3000049780043
:103330000000eb0002003700100090000049eb0095
:103340000000060022c0b300424098003001900007
:10335000114198009000900001000100000006005b
:103360000200fa00881f78000004780038019000fd
:1033700040f0800010007800a2419000c819dd00e4
:10338000924090008180fb00818041006481570061
:10339000ceff0700cff897000104e00003003200e1
:1033a00008007800e7ff07003200370042f0800095
:1033b000920090000100e00004003a0041c4b30014
:1033c00008007800dfff07002a003700900278002d
:1033d000920190008000eb00938f12000f003200ea
:1033e000920190001300e0000c003200c1002000a8
:1033f000010037008400780092019000e38178009a
:10340000858f510005003200920190006c824000cf
:10341000e38178000300e000f6ff3a00920190009b
:10342000e38178000300e00004003a0011c4b30017
:1034300008007800c3ff07000e003700120190005b
:1034400001014100b80090008180e8003201900045
:103450000200010000c0e8004044980038009000dd
:103460008040eb0011409800980090000800780020
:10347000010001004f0478000080fa0000000600ff
:103480000200fa00889fbe00800478003900900096
:10349000204490004844dd00104090000080fb0074
:1034a0000004440040f0800010007800668157005e
:1034b0008800780085ff0700aff897000104e0005e
:1034c00003003200090078009eff07006200370009
:1034d00041f08000210190000200e0002500320050
:1034e000a10190000001eb00930f14000f003200c7
:1034f000a10190001300e0000c0032004200200007
:103500000100370004017800a1019000e301790077
:10351000888f510005003200a10190006402410033
:10352000e30179000300e000f6ff3a00a1019000fa
:10353000e30179000300e0000e003200a1019000d9
:10354000828141004941900063415100b9009000df
:10355000e380400093019000030001000004e000bc
:103560003d00320021c4b3000900780075ff070058
:1035700039003700110190000200e00004003a0019
:1035800041c4b300090078006eff07003200370025
:1035900090027800910190000001eb00938f1200df
:1035a0000f003200910190001300e0000c00320087
:1035b000c200200001003700040178009101900052
:1035c000e3017900858f51000500320091019000e0
:1035d0006c024100e30179000300e000f6ff3a00cd
:1035e00091019000e30179000300e00004003a003b
:1035f00011c4b3000900780052ff0700160037001d
:103600009101900082814100494190006341510045
:10361000b9009000e3804000c30190000300010066
:103620000004e0000400320041c1b300090078004a
:1036300044ff07000800370020c0b300c0449800d2
:10364000390090008040eb001140980099009000f4
:1036500009007800010001004f04be000080fa005c
:103660000000060050419000d1c2b300814f5100cc
:1036700003003e0051c1b30032ff0700c70037000e
:10368000e1c2b30041409800300190008040eb005f
:10369000114198003001900053c0b30023419800bd
:1036a000300190003141980041f0800021099000e4
:1036b000b0009000c240980041f0800021099000c5
:1036c000b00090004811de00d2409800b000900099
:1036d00050419000e2409800b000900002c1b30059
:1036e000f2409800b000900022c8b30082489800d1
:1036f000b000900032c5b30092489800b00090002e
:1037000072414100a2489800b00090006b41410016
:10371000b2489800b000900002c2b300c2489800be
:103720003001900011c3b30051499800300190005e
:1037300023c3b300634998003002900002c3b30072
:10374000724a9800300290000152980030029000b6
:1037500065c3b300155298003002900021529800c2
:10376000b000900034c3b300b4509800b000900093
:10377000c3509800b0009000d250980041f08000f3
:10378000310990000200e0000a003a00c1c0b30015
:10379000664252000181fb00b001900002814100ad
:1037a000645198008140e900e1cf4000f9ff3a0000
:1037b0004000370031099000b000900012417800bd
:1037c000e250980041f0800031099000b000900074
:1037d00012419000f250980041f0800031099000b1
:1037e000b0009000224190008258980041f0800083
:1037f00031099000b000900042419000925898002a
:1038000041f0800031099000b000900052419000da
:10381000a258980041f0800031099000b00090005b
:1038200072419000b258980041f080003109900038
:10383000b000900002499000c258980041f080000a
:1038400031099000b000900012499000d2589800c1
:1038500041f0800031099000b000900022499000b2
:10386000e258980041f0800031099000b0009000cb
:1038700032499000f258980041f0800031099000e0
:10388000b0009000424990008260980041f08000b2
:1038900031099000b0009000624990009260980059
:1038a00041f0800031099000b00090007249900012
:1038b000a260980041f0800031019000b0009000bb
:1038c000b260980041f0800041019000b00090008b
:1038d000c260980041f0800041019000b00090006b
:1038e0004811de00d260980041f080005101900044
:1038f000e1019000b0009000e260980041f080008b
:1039000051019000e1019000b0009000481add00e4
:103910004811de0002017200c819de00f260980052
:1039200041f0800051019000e1019000b000900052
:103930004019de008268980041f08000510190003b
:10394000e1019000b00090004819de0092689800f4
:1039500042f08000cf91de00b0009000a268980095
:10396000b0009000c81ade00481bdd004812de00df
:1039700004027300b4689800b0009000401ade00a2
:1039800005002000c4689800b00090004819de00cf
:10399000d26898009000900001000100000006002d
:1039a00081dc21006303200081814100428d2100e0
:1039b00082287800838f5000fdff3a00a1dc2100af
:1039c00041009800000006004000900021b3210053
:1039d00001087800e194210011009800418e210037
:1039e0002100980001a4210021109800019b2100d2
:1039f0001110980000000600110020001108980026
:103a00008000eb0001089800000006008000eb0039
:103a1000110898007100980000000600104078001e
:103a200053c5b300834f500002003200e24f5000f4
:103a300006003a0023e021008049780002f0880067
:103a400040002000800878000100370082087800dc
:103a500000000600889fbe008a9fbe008c9fbe00ab
:103a60008e1f78008004780040f08000c00890002d
:103a70000100e0006800320040089000201890002b
:103a8000e40f500064003a0059009000c00090001c
:103a90000100010041f08000410990000080fb001e
:103aa00022c190000281fb0064014100820f50009e
:103ab00053003500410990004108900072199000b0
:103ac00060189000800f51004d00390041089000af
:103ad0008000eb00711898005900900010017800e8
:103ae00021c0b300020001005900900041f08000a5
:103af000c1089000a1c090001001780002000100f0
:103b000059009000c948900010017800020001009f
:103b10005900900041f08000c10890008120900081
:103b200010017800020001005900900041f080006f
:103b3000c108900081209000c808de0010017800c4
:103b40000200010040f0800040099000c009900090
:103b5000c008900022c190004948900000414100f7
:103b600002c1e800032090000040410091c5900090
:103b700080c545000007eb000004eb000e06e800de
:103b80000c064600f206470040f080004008900016
:103b900060007e0060457c005900900010017800b4
:103ba0008a407800020001008ac545000804e80048
:103bb00040f08000c0089000e1c07e008180fb00e2
:103bc000810f5400f0ff39000e07e8004008900014
:103bd000307890000080fb00800f5700e6ff39002e
:103be000e2cf550001003a00dbcfb300590090004e
:103bf000100178008b4078000200010006003700b9
:103c000020f0800031f0800061004000e08048003a
:103c100020f0880031f088004f0778004f06be0082
:103c20004f05be004f04be00000006000200fa006f
:103c3000889fbe008a9fbe008c9fbe000004780053
:103c4000f0044400ec0544005ac5b3001c002000f9
:103c5000e40644006d00370008089000e20f5000b1
:103c60002100320005003e000000e00009003200a3
:103c7000e10f500063003a000f003700e40f5000de
:103c80004800320024003900e50f50005d003a0082
:103c90004b0037004a5498000040eb005054980005
:103ca00058009000100178008a407800020001005e
:103cb0000c0c980055003700c84090004850900008
:103cc00001404000405498005800900010017800d6
:103cd0000200010022002000890078000d00780019
:103ce0004eff070049003700c84890004850900038
:103cf00001404000405498005800900010017800a6
:103d00000200010032002000890078000b007800da
:103d100042ff07003d003700d85090008180fb0033
:103d20003800900081004000485090001140400051
:103d3000405498005800900010017800914078009d
:103d400002000100585090000081fb000201e800d1
:103d5000c84090008180fb00810f510007003a00ad
:103d60000080fb00b800900000804000520020005e
:103d70008900780029ff0700060037000080fb005b
:103d8000b8009000008040003200200089007800d8
:103d900022ff0700585090000040e800505498005f
:103da0001a00370058009000100178008040eb00a6
:103db0000200010000f08000000c980013003700a2
:103dc000485090008a4f500002003200e24f5000ed
:103dd00002003a000080ea00405498005800900029
:103de000c8509000100178000200010058009000b7
:103df000d0009000010001000800780003ff0700d8
:103e0000020037000800780000ff07001808900043
:103e1000e10f500092003a0058009000b00090006e
:103e2000010001000004e0008bff3a008c00370025
:103e3000580090009000900001000100a0f79f0042
:103e4000f8009000e28f50002c00320005003e0088
:103e50000100e00009003200e18f50007d003a00cf
:103e60000e003700e48f5000490032003100390065
:103e7000e58f500077003a005600370051c5b30077
:103e8000814f500078003a0001407800405498007b
:103e90001000200070049800730037000004e00058
:103ea00003003a000000eb00700498006e00370039
:103eb000d8409000814f50000500360051c1b3003a
:103ec00008007800a2190200000000006600370018
:103ed000c850900080c04000415498004044980071
:103ee0000040eb0050549800220020008900780028
:103ef0006e805700c9fe07005b003700c84890007d
:103f0000814f500008003a00c850900000c04000a7
:103f10004054980032002000890078006e805700dd
:103f2000befe0700500037000000eb007004980050
:103f30004d003700c850900080c0400041549800a8
:103f4000d85090008180fb003801900000f178008b
:103f5000585090000040e80050549800c84090002d
:103f6000814f500005003a0052002000890078007f
:103f70006e805700a9fe07003b003700320020008a
:103f8000890078006e805700a4fe070036003700d5
:103f90000004e00003003a0002f080007204980080
:103fa0003100370051c5b3009acf100006003a0027
:103fb0008140400041549800404498002000200077
:103fc00070049800280037000000eb00700498008f
:103fd00025003700c850900052c5b30082cf500072
:103fe00002003200e2cf500002003a008180ea0075
:103ff00041549800c8509000814f500010003a0082
:104000003800900010407800fa4f500007003e0042
:104010000080fb00c800900000004000e100780034
:1040200008007800010001000f00370011c2b30042
:1040300008007800a2190200000000000a00370002
:1040400031c1b30008007800a2190200000000008e
:10405000050037000000eb007004980002003700f4
:10406000ee0444002ae02100180890000000e0005f
:1040700005003a0058009000a000900001000100e7
:104080000004e0006aff3a000800780071fe0700b3
:104090004f06be004f05be004f04be000080fa0070
:1040a00000000600310098005240980043489800f4
:1040b00061e1210001087800c1cf210011009800c2
:1040c00052fe070000000600881f780000047800f8
:1040d000380190008280e8001180fb004800dd007c
:1040e000124190000281fb000200400010037800a2
:1040f00043f08000130290000001eb00940f1300c6
:104100000f003200130290001400e0000c00320097
:10411000c200200001003700050178001302900062
:1041200064027900860f52000500320013029000ed
:10413000ec024100640279000400e000f6ff3a005e
:1041400013029000640279000400e00005003a00c8
:1041500011c4b30008007800a2190200000000009a
:104160000c00370093019000028141003201900061
:104170000200010000c0e8004044980038009000b0
:104180008040eb00114098009800900008007800f3
:10419000010001004f04780000000600881f78002d
:1041a00000047800b8009000214190004811dd0023
:1041b000114090000080fb000000410010037800d7
:1041c00043f08000130290000001eb00940f1300f5
:1041d0000f003200130290001400e0000c003200c7
:1041e000c200200001003700050178001302900092
:1041f00064027900860f520005003200130290001d
:10420000ec024100640279000400e000f6ff3a008d
:1042100013029000640279000400e00005003a00f7
:1042200011c4b30008007800a219020000000000c9
:1042300016003700930190008281410048419000b0
:1042400063415100e3804000c3019000030001007e
:104250000004e0000500320041c1b300080078000e
:10426000a2190200000000000800370020c0b300bf
:1042700040449800380090008040eb0011409800c6
:104280009800900008007800010001004f047800b9
:1042900000000600881f780030029000b4429000b1
:1042a000444390008581fb008383e80050419000e7
:1042b0000281fb0051c1b300828f530041003e00d8
:1042c000244190004811dd00944090008180fb0063
:1042d00001014100e24f530010003200e44f53004f
:1042e0001d00320041c1b300e14f530035003a00d8
:1042f0000300e000360032008000eb003002900046
:104300000102420032437800264298008100e80012
:10431000818f5100f9ff3e002d0037000300e000bf
:104320002b0032008000eb008180e800300290001a
:104330001244780008f27800300290000102420036
:10434000320378004833de0016429800818f510016
:10435000f5ff3e001e0037000300e0001c003200a5
:104360008000eb003002900001024200124378000e
:104370002642980030029000010242001203be0063
:10438000483cdd004833de0006037400c83bde0015
:1043900036429800e48040003002900022439000b2
:1043a00006f2780030029000010242003203be00a3
:1043b000483bde0016429800818f5100e9ff3e0025
:1043c00003003700a21902000000000007003700b8
:1043d00085c2e80045409800b00090000041eb0025
:1043e0009240980090009000010001004f04780076
:1043f00000000600889fbe008a9fbe0080057800ee
:10440000bb00900011429000a14290004b459000eb
:1044100064455500314390008a81fb000681fb0012
:10442000110009008281d800010178000200e0003b
:104430000500320041c1b3000b007800a219020050
:104440000000000054003700c82add000482fb0091
:1044500084824200e24f53000f003200e44f5300c9
:104460001e003200e14f53003e003a000a85fb0077
:10447000410032008000eb003b019000010141004f
:1044800042419000825a78008100e8008a8f5000f3
:10449000f9ff3900380037000a85fb000a05d10012
:1044a00035003200410020000001eb00bb0190000c
:1044b00001824100144290004822dd00e3c17800ef
:1044c0008381fb00831a42000201e8008180e8003a
:1044d000820f5500f5ff3e00270037000a85fb00dc
:1044e0004255de0024003200410020008001eb0034
:1044f0003b0290008301e800010142001244900059
:104500000884fb008004eb00484bdd00c843de005c
:10451000870373004843dd00224490008884fb0039
:10452000080020000604440087844c0064c378001f
:104530000683fb008003eb000804430089844b00e2
:1045400032439000c833dd0006002000861a440084
:10455000879a4c00e48040008a8f5100e4ff3900c4
:104560000500370041c1b3000b007800a21902001a
:10457000000000000800370021c0b300c1459800ca
:10458000bb0090000041eb00924098009b0090001f
:104590000b007800010001004f05be004f04be0073
:1045a0000000060040009000a114220011089800ad
:1045b0004106220071009800e10c220001089800d9
:1045c0000000060040009000a11f22002108980072
:1045d00000000600889fbe00a001900060019000ce
:1045e0001391b900040024000500200002014200dc
:1045f00083814a00c118dd004f11de000281700086
:10460000cf99de0080089000828040000108980069
:104610004809de0082014100265a2800e68179001f
:104620000201e80002014100660379000303530020
:104630008180fb0001b3b90010019000483cdd000f
:104640004833de0006037400c8bbde0086804100ec
:104650001203780001b3b9000602420087824a00c3
:10466000c128dd004f22de0004827000cfaade00e8
:1046700070039000cfb1de0004034300858349003e
:1046800012002800f3ff2f00820f5300838f5b007e
:1046900001003d000203be0080099000b1aa2a007b
:1046a00081814100c818de0001814000245a2800a1
:1046b000640179008100e800818040006482780014
:1046c000020252008381fb0003a2b9009000900017
:1046d000482cdd004822de0004027400c8aade0077
:1046e000040141001102780002a1b9000400240075
:1046f000050020000201420083814a00c118dd004c
:104700004f11de0002817000cf99de007002900030
:104710004fa4de000202420083024c001200280077
:10472000f3ff2f00820f5200838f5a0001003d00db
:104730000202be0080099000515525008181410090
:10474000c818de0001814000285a2800680179005d
:104750008100e800818040006884780002045400f1
:104760008381fb0003c4b90090009000c849dd00bc
:104770004844de0008847100c8ccde000801410016
:10478000910078000289b900080024000900200087
:104790000201440083814c00411cdd004f11de000a
:1047a00002017400cf99de00f00090004f8cde0013
:1047b0000281400083014c0018002800f9ff2f00ff
:1047c000880f5100898f590001003d000801be008b
:1047d000f1ff2700810f5300e08f5b0002003400df
:1047e000f6ff27000700200036009800f8ff27009a
:1047f000880f5200e08f5a0002003400f4ff2700b7
:104800000500200044009800f1ff2700810f5100af
:10481000e08f590002003400f2ff2700030020005f
:10482000520098004f04be0000000600111b20003b
:10483000010878008000eb003100980041009800ea
:1048400051009800010898000000060040499000bf
:10485000824878005049900092409800604990004a
:10486000a240980070489000b040980040c0b3004b
:104870000000060013c0b300e44f51000c003a00e2
:10488000114190004811dd009181fb0003014100be
:1048900062009800314190004811dd00a140900075
:1048a0008180fb0081004100710098008041eb0095
:1048b0000340780000000600e38f50000f00320034
:1048c00005003e00e18f500008003200e28f5000ea
:1048d00010003a0007003700e48f50000900320052
:1048e000e58f50000b003a000800370010009000e0
:1048f00009003700200090000700370066004000e4
:104900000500370068004000030037006a004000df
:10491000010037000000eb00000006008180fb0072
:104920002111880000000600101180006e00600058
:10493000030032002222a9000040eb0001003700f2
:1049400030118000000006001011800061406000fe
:1049500000000600002020002202b6000000e9004e
:104960004f00de000000060000fc2f004807b600e4
:104970007001b300403a880000e02f004607b600ff
:104980006002b300303a8800f0f32f004427b600ed
:1049900000fe2f004427b600a109200012002000cd
:1049a0008007200033742000804978008149780016
:1049b00082497800123a80000200a00071052000b0
:1049c0006004200023742000804978008149780029
:1049d000824978000200270001002100133a80007c
:1049e00003006100810f5000fcff3a00010220002b
:1049f000123a800002806000fdff320040a7a8004c
:104a000000fe2f002335800083006000b100b3005a
:104a10002135880052368000820060003100b300ea
:104a200051368800510120004111880020a2a900c0
:104a300091ff2f0003222000938960002002a9002b
:104a400021e2a8002342a800c982a900cd82a900c2
:104a5000c9a2a900cda2a900c9c2a900cdc2a900be
:104a6000c9e2a900cde2a900c962a8006960a80056
:104a70002c03a9002c23a900c8a2a900f10f2e0025
:104a80002236800082816000022021000301710033
:104a900022368800e3348000030160006200b30026
:104aa000e2348800e23480008281600002702000dd
:104ab00003017100e23488002143a900f2ff2100c4
:104ac000233220009309610025e3a800f2cf2f00d4
:104ad00023322000930961002823b6002063a80038
:104ae0002043a80000198000000eb30000198800c0
:104af0004032200010886000020078002023b600b9
:104b000021e3a800000f80000030b30000a0a00047
:104b1000000f8800f0ff2700300f88000421a90053
:104b200004c1a900f0fc2f000421b60000fa200007
:104b3000100888000021ef008460a9009460a8009c
:104b400005e1a8001021a90010c1a900f0fc2f0068
:104b50001021b60000712200600888000621ef00d5
:104b600011e1a8008461a9008221ef008021ef00fb
:104b7000200c80000000a1006000b300200c880021
:104b800000000600e14822000108780041492200a7
:104b900011009800414a220021009800a14a2200f9
:104ba00031009800000006003600f800809fbe002b
:104bb000829fbe00849fbe00869fbe008460a900c5
:104bc000ac290200000000004f03be004f02be00ef
:104bd0004f01be004f00be003600f9000040060045
:104be000881f780003002400d3e6880060102000ae
:104bf00000e78800d0cc240060e788003033230031
:104c000070e788008040eb0000cf21000148780069
:104c10000000eb00b0e78800f2ff2700e2e7880021
:104c2000a499210054e8880060e8880070e88800b2
:104c3000c4e88800d0e88800e0e88800f0e8880050
:104c400050e9880060e98800e4d22100004a780039
:104c5000d3e9880003002c00e3e98800e3d32100b6
:104c600081497800430a200053ea8800f4c0b30069
:104c7000c3d42100844978008381e8008009eb00d7
:104c8000b3117800e481410081497800f3c7b30093
:104c900071d521008348780012eb880048d62100a6
:104ca0003004980080eb880041cf210021e7880084
:104cb00080cc210030e78800a0cf210040e78800a9
:104cc00083cd210003e88800e2cd210012e88800ae
:104cd00093e88800a2e8880011e9880061d12100ea
:104ce00021e9880030e98800c0d5210090e98800da
:104cf00080d42100a0e9880001d62100b1e9880014
:104d00006400440010ea8800e2d6210022ea88000c
:104d100062d5210032ea8800d1ea880081d32100df
:104d20001104980081d2210061e6880061cc210045
:104d300071e6880080e68800a0ce210090e6880019
:104d400064804000a0e688000380e900ae2b0200ea
:104d500000000000c0cd2100ae2b020000000000ca
:104d600020ce2100062b02000000000020cf2100f1
:104d7000ae2b02000000000080cf2100ae2b02000d
:104d800000000000e0cf2100162402000000000017
:104d900000d12100c82802000000000000d221003c
:104da000062b02000000000000d32100062b0200a9
:104db0000000000000d42100e227020000000000f3
:104dc00040d521001a2c02000000000080d52100ef
:104dd000802c020000000000e0d52100ae2b020074
:104de0000000000008007800562c020000000000bf
:104df000c0d62100ae2b02000000000020d7210009
:104e0000a4100200000000004f047800000006001b
:104e100040d621004a2c02000000000080d521006d
:104e2000782c02000000000000d12100542802006c
:104e30000000000020ce2100d42a02000000000063
:104e400000d22100d42a020000000000e0cf21009f
:104e5000ea2202000000000000d4210044270200e2
:104e60000000000000d32100d42a0200000000004e
:104e700020d721000e1102000000000000000600f3
:104e8000e3ff070000000600889fbe008a9fbe0067
:104e90008c9fbe00b00090001104e0004000320082
:104ea000a05090000104e00009003a00a00090002a
:104eb00011027800cfa2de004f29dd00c121de0003
:104ec000830171004f21dd007200980003089800f3
:104ed00070029000800a9000c128dd004f21de00a2
:104ee00002817000cfa9de00f1ff2700810f510081
:104ef000e08f59000700340002002800f3ff230070
:104f00007200980003089800f2ff270003002000b9
:104f10002100370016002800f7ff2f00860f5100f0
:104f2000878f590006003d000200280003002c0076
:104f300072009800030898000601be0016003700b2
:104f40009000900011047800cfc4de005003900060
:104f5000cfb3de0006cdb90008beb9008a00460016
:104f60000643b80087834000c04890008100fb00e2
:104f7000ef8010008100e9000300330006034300c6
:104f800087834b00fbff37000602420087824a00fe
:104f9000740098000508980042009800020037004d
:104fa0008000eb0041009800b00090009140780034
:104fb000215098004f06be004f05be004f04be00b2
:104fc0000000060011c82000010878008000eb00f6
:104fd000410098002001900012027800cfa2de006c
:104fe0004f29dd00c121de00830171004f21dd006a
:104ff00072009800030898002150980000000600f5
:1050000020499000824878003049900092409800f2
:1050100040489000a040980030c0b3000000060057
:1050200013c0b300e34f510008003a001141900053
:105030004811dd009181fb000301410052009800fe
:10504000a1409000414898008041eb000340780067
:1050500000000600e28f50000b00320003003e000b
:10506000e18f50000e003a0005003700e38f50003a
:1050700007003200e48f500009003a0006003700b4
:105080001000900007003700200090000500370056
:105090003000900003003700680040000100370036
:1050a0000000eb0000000600a0009000400190000e
:1050b0001191b90004002400050020000201420003
:1050c00083814a00c118dd004f11de0002817000ab
:1050d000cf99de00f00090008281400073009800bc
:1050e000d000900081814100c818de00018140009d
:1050f000265a2800660179008100e800818040007e
:1051000066837800020353008381fb0003b3b90078
:1051100090009000c839dd004833de00068371003e
:10512000c8bbde0006014100910078000289b90089
:105130000201420083814a00411add004f11de0066
:1051400002017200cf99de00e00090004f8ade007d
:105150000281400083014a0014002800f5ff2f005f
:10516000840f5100858f590001003d000401be00ed
:10517000f1ff2700810f5100e08f59000200340039
:10518000f2ff270003002000320098000000060014
:10519000111a2000010878008000eb00310098000f
:1051a00071009800000006000049900082487800d5
:1051b000104990009240980020499000a240980029
:1051c00030499000b240980040499000c240980099
:1051d00050489000d040980060c0b3000000060026
:1051e00013c0b300e64f510012003a001141900085
:1051f0004811dd009181fb0003014100420098004d
:10520000b1419000c819dd00214190000281fb00ee
:105210000281410052009800514190004811dd0088
:10522000c14090008180fb00810041006100980036
:105230008041eb000340780000000600e28f500040
:1052400006003200e38f500006003200e18f50006c
:1052500006003a0010009000050037002000900082
:105260000300370066004000010037000000eb003b
:10527000000006002108980041c828003108980065
:1052800000000600889fbe00722b02000000000094
:1052900040ba2100fc2b02000000000013c0b30044
:1052a00000c1eb0061bc210000bb210052200200c4
:1052b0000000000009bb210009007800d01c02009a
:1052c0000000000009007800e41c0200000000005b
:1052d00009007800d22202000000000009007800d6
:1052e000982b02000000000041ba2100090078005c
:1052f000162c02000000000040ba2100c225020066
:105300000000000040f080001100200031009800f3
:1053100021002000d7ff070040f0800081ba28005c
:105320001100980001c2280001087800b42402008e
:10533000000000000060fe00f025020000000000f8
:105340000060fe00090478009800780009007800e9
:1053500001000100fcff3700c242ab000300320035
:1053600060cc21000008eb0002003700f0ff2700ae
:1053700030e68800001880004500dd0040e6880027
:10538000200f800050e68800402702000000000047
:1053900060e680001000e00002003200cd82a8002c
:1053a00001003700cd82a90070e680001000e00007
:1053b00002003200cda2a80001003700cda2a90052
:1053c00090e680001000e00002003200cdc2a8008c
:1053d00001003700cdc2a900f0ff230081e6800064
:1053e000910f100002003400cde2a8000100370048
:1053f000cde2a900a0e6800010017800cf91de0088
:1054000001712200019ab9000110b8008100420028
:105410004109dd004f00de0000007100cf88de0092
:10542000000c88000060fe0000000600000006007e
:10543000000006000000eb00000006000280fb00f8
:105440000000ea004f00de00000006000000eb0054
:105450000000060080407800f0c7b30002c8b30027
:1054600082cf5000030032000100fb0000f0a700d3
:105470000000ea000000060080007800f0ff27002e
:1054800002002800828f50000300320001007800e3
:1054900000f0a7000000ea00000006000001be00c6
:1054a000f0ff2f00f1ff2700040020000500280076
:1054b000840f5100858f5900060032000200be00a3
:1054c000e00f5100e08f590002003d006000110024
:1054d000e0801900000006006022b80006002000ed
:1054e000070028000400e1000588e1000690e100c3
:1054f0000798e1000c003200e00f5000e08f5800e8
:10550000e00f5900e08f59000b003d006022b80009
:105510006033b8000000520081805a0002015b0035
:1055200083815b0004003700f0ff2f00f1ff2f00a4
:10553000f2ff2f00f3ff270000000600889fbe0047
:105540000004be006011b800b203020000000000b9
:105550000000e00001003d0009f0a2000800be00cc
:105560004f04be0000000600889fbe008a9fbe0058
:105570000004be000205be006022b8006033b8001f
:105580009e030200000000000000e00001003d005a
:105590000bf0a2000800be000a01be004f05be00cd
:1055a0004f04be0000000600a000900091007800ab
:1055b00050019000828f50000300350011c0b300ed
:1055c000614898000900370060019000828f500008
:1055d00003003d008040eb00614898000700370061
:1055e000e04890000104e0000400320090009000c8
:1055f000910078004100980003003700b00090004f
:105600009100780041009800000006001108200079
:10561000010878008000eb00410098006148980084
:105620000000060020499000824878003049900030
:105630009240980040499000a24098005048900045
:10564000b040980040c0b3000000060013c0b30093
:10565000e44f51000c003a00114190004811dd0068
:105660009181fb00030141005200980031419000fc
:105670004811dd00a14090008180fb0081004100c5
:10568000610098008041eb000340780000000600b4
:10569000e28f50000b00320003003e00e18f50000b
:1056a0000e003a0005003700e38f5000070032007b
:1056b000e48f500009003a00060037001000900007
:1056c00007003700200090000500370030009000f0
:1056d0000300370068004000010037000000eb00c5
:1056e000000006008000eb0040f080000108780018
:1056f00040f08000110098002100980031009800cf
:10570000410098006011b8005200980063009800b2
:10571000710098000108980011089800210898006d
:1057200031089800410898005108980000000600d0
:1057300041f0800071019000e10f510006003e0031
:1057400071019000e80141008381410080b079003f
:105750000201e800f200980000000600110320009a
:1057600001087800a00090001100980000000600d9
:10577000404190008248780050409000904098004e
:1057800020c0b3000000060013c0b300e24f510078
:1057900007003a0091419000c819dd001181fb001b
:1057a0008280410021009800110098008041eb00a8
:1057b0000340780000000600e18f500002003a002c
:1057c0000080e800010037000000eb000000060048
:1057d000000006000040eb00000006000040eb0067
:1057e000000006000040eb00000006000040eb0057
:1057f000000006000000060081be220001087800bb
:10580000a1be220011009800e1be220021009800f4
:1058100021bf22003100980061bf220041009800a2
:10582000a1bf22005100980000000600510098001e
:10583000000006000103200001087800b04090003d
:105840002140980000000600304090008048780019
:1058500010c0b3000000060013c0b300834f510016
:1058600004003a00914078003140980021409800af
:105870008041eb000340780000000600e18f5000fb
:1058800002003a000080e800010037000000eb0051
:1058900000000600b00090002100980090009000e9
:1058a00091007800310098000000060011d6200019
:1058b000010878008000eb0021009800310098007a
:1058c00000000600e18f500003003200e28f50001c
:1058d00005003a0002003700100090000300370076
:1058e00064004000010037000000eb0000000600eb
:1058f000900090009100ea0021009800000006004e
:10590000113b2100010878008000eb002100980085
:1059100000000600e18f500003003200e28f5000cb
:1059200005003a0002003700100090000300370025
:1059300064004000010037000000eb00000006009a
:020000040000fa
:10594000000800008813000000000000001e000096
:105950000800000000000000ca1d00003600000022
:1059600000000000c61c0000040100000000000050
:10597000081e00000200000002000000881b00005a
:10598000881b00003e010000000000000000000035
:020000040000fa
:0200000401f009
:04000c00f8ff0000f9
:020000040000fa
:0200000401f009
:040010007fff00006e
:020000040000fa
:0200000401f009
:04001c00dfff000002
:00000001FF
