:020000040800F2
:1000000010110020691F00086D1F00086F1F0008F5
:1000100000000000000000000000000000000000E0
:10002000000000000000000000000000711F000838
:100030000000000000000000731F0008751F00088A
:10004000771F0008771F0008771F0008771F000838
:10005000771F0008771F0008771F0008771F000828
:10006000771F0008771F0008771F0008771F000818
:100070008D380008771F0008771F0008771F0008D9
:10008000771F0008771F000800000000771F000896
:10009000771F0008771F0008771F0008771F0008E8
:1000A000771F0008771F0008771F0008771F0008D8
:1000B000771F000800000000771F00080000000004
:1000C00000F002F800F03EF80CA030C80838241800
:1000D0002D18A246671EAB4654465D46AC4201D180
:1000E00000F030F87E460F3E0FCCB6460126334274
:1000F00000D0FB1AA246AB4633431847F844000031
:1001000018450000103A02D378C878C1FAD85207CF
:1001100001D330C830C101D504680C6070470000BD
:100120000023002400250026103A01D378C1FBD813
:10013000520700D330C100D50B6070471FB51FBDFB
:1001400010B510BD03F098FF1146FFF7F7FF03F05D
:10015000B7FB03F0B0FF03B4FFF7F2FF03BC03F0FB
:10016000E5FF0000884988420AD110B501214C0200
:10017000204600F055FF0021204600F051FF10BD41
:10018000704730B4C268814B8C681A400B680D7997
:100190002343CC686D032C4323430C6949692343F3
:1001A0000B431343C36030BC7047002101600171F1
:1001B0008160C1600161416170470029816803D09D
:1001C0000122114381607047022211438160704710
:1001D00001617047002A026901D00A4300E08A43A6
:1001E000026170470122D2030029C16801D0114386
:1001F00000E09143C1607047012292030029C16869
:1002000001D0114300E09143C16070470122D20543
:100210000029C16801D0114300E09143C1607047DB
:100220000904114301627047C2681F239B069A4369
:100230000A43C2607047012292050029C16801D0BB
:10024000114300E09143C160704701225049D2053B
:100250000028886801D0104300E090438860704710
:1002600001224B4992050028886801D0104300E024
:10027000904388607047012245491206002888682B
:1002800001D0104300E0904388607047836A0B43BD
:10029000836242617047012252030029C16801D084
:1002A000114300E09143C16070470122120400290C
:1002B000C16801D0114300E09143C1607047012241
:1002C00012030029C16801D0114300E09143C160CD
:1002D0007047826800210123DB071A4382600F23E5
:1002E0001B038268491CD20FD207994201D0002A11
:1002F000F7D18168002901DB006C7047002070474E
:100300008168102211438160704781680422114383
:1003100081607047006C80B270470029C16802D0CC
:100320000122114301E049084900C1607047C268D9
:1003300002239A43C260C2680A43C2607047002A1F
:10034000426801D00A4300E08A43426070470022BD
:10035000CB0104D5806801231B06984300E00068A8
:10036000084200D001221046704701607047436880
:10037000002200680B40084202D0002B00D001226E
:1003800010467047016070470024014003D2FFFF10
:100390000027014011480068000C70470F480068B2
:1003A0000005000D70470D4A0029516801D0014336
:1003B00000E0814351607047084A0029916801D0EC
:1003C000014300E0814391607047044A0029D168ED
:1003D00001D0014300E08143D160704700580140E3
:1003E000FE4A116849084900014311607047FB4902
:1003F00010220028086801D0104300E090430860F4
:100400007047F64900200968890600D50120704729
:10041000F2480169090603D5F1494160F14941609B
:100420007047EE4801698022114301617047EB4932
:100430000420CA68D20701D001207047CA68D206DA
:1004400001D502207047C9684907FBD503207047D2
:10045000E24A0146D3680420DB0701D0012019E0FD
:10046000D368DB0601D5022014E0D3685B0711D501
:1004700003200FE0D3680420DB0701D0012008E04F
:10048000D368DB0601D5022003E0D3685B0700D503
:100490000320491E012803D0002900D10520704700
:1004A0000029E7D1FAE7F0B50B2706463F043846A6
:1004B000FFF7CEFF04280FD1C84C2069022528433E
:1004C0002061666120694021084320613846FFF7BA
:1004D000BFFF2169A9432161F0BD70B50B26360429
:1004E0003046FFF7B5FF04280ED1BC4C2069042527
:1004F0002843206120694021084320613046FFF7EE
:10050000A7FF2169A943216170BDF8B50546002008
:100510000B273F0400900C463846FFF799FF04284C
:1005200015D1AE4E30690121084330612C80384628
:10053000FFF78EFF042806D1AD1C210C0095298001
:100540003846FFF785FF3169490849003161F8BD38
:10055000F0B50B2706463F040D463846FFF778FFF7
:1005600004280CD19D4C206901210843206135806D
:100570003846FFF76DFF2169490849002161F0BD48
:1005800096480169890503D4954981609549816040
:1005900070479248016942159143016170478F4845
:1005A0000169012252031143016170478B49002008
:1005B000C9694907890F00D001207047F0B5874D00
:1005C000AA24E8694007800F00D000240B273F04CD
:1005D0003846FFF73DFF042812D128692026304312
:1005E000286128694021084328613846FFF730FF19
:1005F0001021042805D0052802D02A698A432A61DF
:10060000F0BD2869B043286128690E46304328614F
:10061000754804803846FFF71BFF0528F0D029698C
:10062000B1432961F0BDF0B5C04301040E0E0102D3
:10063000C7B2040E0B200D0E0004FFF709FF0428BB
:1006400031D166490A6910231A430A61FF2F07D086
:10065000654807810B200004FFF7FAFE04281BD130
:10066000FF2E07D0604846810B200004FFF7F0FE04
:10067000042811D1FF2D07D05B4885810B20000491
:10068000FFF7E6FE042807D1FF2C07D05648C481A7
:100690000B200004FFF7DCFE052804D04F490B694E
:1006A000102293430B61F0BDF0B50B2706463F04C3
:1006B0003846FFF7CDFE04280FD1484C206920258D
:1006C0002843206120694021084320613846FFF714
:1006D000BFFE042802D005280ED1F0BD2069A84332
:1006E000206120691025284320613F480680384654
:1006F000FFF7AEFE0528F0D02169A9432161F0BDC6
:10070000F0B506460B2094460F460004FFF7A0FE06
:10071000042814D1314C20691025284320613E4320
:1007200060460643F82006432F4846800B2000040D
:10073000FFF78EFE052802D02169A9432161F0BD93
:10074000F0B50B2706463F043846FFF781FE042824
:1007500010D1224C2069102528432061EF20064348
:10076000214846803846FFF773FE052802D02169EC
:10077000A9432161F0BDF0B50B2706463F0438467A
:10078000FFF766FE042810D1144C20691025284379
:100790002061F7200643144846803846FFF758FE8C
:1007A000052802D02169A9432161F0BDF0B50B27CE
:1007B00006463F043846FFF74BFE042819D1074C84
:1007C00020691025284320617F2006430648468083
:1007D0003846FFF73DFE05280BD007E00020024019
:1007E00023016745AB89EFCD00F8FF1F2169A943BD
:1007F0002161F0BDF0B50B2706463F043846FFF7F0
:1008000027FE042810D13D4C206910252843206183
:10081000DF2006433A4846803846FFF719FE052890
:1008200002D02169A9432161F0BDF0B50B2706462E
:100830003F043846FFF70CFE042810D12F4C2069E6
:10084000102528432061BF2006432D4846803846A6
:10085000FFF7FEFD052802D02169A9432161F0BD03
:10086000F0B50B2706463F043846FFF7F1FD042894
:100870000ED1224C20691025284320612048468053
:100880003846FFF7E5FD052802D02169A94321611B
:10089000F0BDF0B507460B200E460004FFF7D8FD6B
:1008A00004280ED1154C20691025284320613E8074
:1008B0000B200004FFF7CCFD052802D02169A943D5
:1008C0002161F0BD0D48C0690004000E70470B485F
:1008D000006A7047094A0029116901D0014300E00C
:1008E000814311617047054A0146D26800200A42DF
:1008F00000D0012070470149C860704700200240C5
:1009000000F8FF1F092110B5C906884209D101214D
:100910004C04204600F07BFB0021204600F077FBD2
:1009200010BD6049884209D104020121204600F02F
:100930006EFB0021204600F06AFB10BD5A49884238
:1009400009D104020121204600F061FB002120466C
:1009500000F05DFB10BD5549884209D101210C050D
:10096000204600F054FB0021204600F050FB10BD53
:100970004F49884209D144020121204600F047FB3B
:100980000021204600F043FB10BD4A498842FBD1BC
:1009900001218C05204600F03AFB0021204600F0A2
:1009A00036FB10BDF0B40022032501230C689340F0
:1009B0001C409C422AD10C79012C01D0022C12D16E
:1009C000876854002E46A640B74387604E79A640FC
:1009D00084682643866084889C43848084888B79DD
:1009E00093401C438480066853002C469C40A643D9
:1009F00006600E7907689E403E430660C668A643BF
:100A0000C660CC799C40C3681C43C460521C102A49
:100A1000CBD3F0BC7047284901600021017101224D
:100A200042718171C17170470122120481B00A4381
:100A30000092C261C1610099C161C169C069009041
:100A400001B070470246128A00200A4200D00120FD
:100A50007047008A70470246928A00200A4200D0FE
:100A600001207047808A7047816170470185704717
:100A7000002A01D0816170470185704781827047EB
:100A80004B07DB0E9A40C90810B489000818016AA8
:100A90000F249C40A1430162016A1143016210BC12
:100AA000704700000004004800080048000C00489F
:100AB0000010004800140048FFFF00000D490860C6
:100AC00070470C49486070470A4988607047094977
:100AD0000948086070470749086170470549074899
:100AE00008607047034A0146D26800200A4200D0DD
:100AF0000120704700300040AAAA0000CCCC0000C2
:100B000030B4827801240178002A15D08B08174A66
:100B10009B009A1813688907C90EFF258D40AB43C7
:100B20004578AD072D0E8D401D4315600078C00639
:100B3000C00E84400E4803E0C806C00E84400D4835
:100B4000046030BC70470C4A0029116901D0014390
:100B500000E08143116170470422084904280869B4
:100B600002D09043086170471043FBE700E400E0C7
:100B700000E100E080E100E000ED00E000E000E0E6
:100B8000F74801680122114301604168F54A1140AC
:100B900041600168F44A1140016001680122920439
:100BA0009143016041683F22120491434160C16A50
:100BB00009090901C162016BEC4A11400163416BF3
:100BC000490849004163002181607047E4490022DF
:100BD0008A70887070470023E14A41090DD00129CD
:100BE0000DD002290DD0516BC006C00E01228240EB
:100BF0000A4200D00123184670471168F4E7116AD1
:100C0000F2E7516AF0E718B500200122D44B5204F4
:100C1000052424030090196800200A4200D0012016
:100C20000099491C0091A14201D00028F3D0112065
:100C3000FFF7D1FF002800D0012018BDC84A116875
:100C4000F8239943C000084310607047C449002846
:100C5000086802D00122104301E04008400008600B
:100C60007047BF4A516BF8239943C0000843506353
:100C70007047BB490028486B02D00122104301E0B5
:100C80004008400048637047B54904220028486B7B
:100C900001D0904300E0104348637047B0490A6AAE
:100CA000520852000A620A6A04239A430A620A6AD4
:100CB00002430A627047AA490A6A18239A430A62E1
:100CC0000A6A02430A627047A5490028486A02D0AE
:100CD0000122104301E0400840004862704710B410
:100CE0009F4A53687B24E403A3435360536808433B
:100CF0000343536010BC7047012299491206002833
:100D0000086801D0104300E090430860704701225A
:100D1000934912040028486B01D0104300E090432F
:100D2000486370478E4AD16A090909010143D162BB
:100D3000704701228A49D2040028086801D0104374
:100D400000E0904308607047854B5A681202120A0F
:100D500000060843104358607047814A516889086B
:100D600089000143516070477D4840680C2108406C
:100D700070477B4A5168F0239943014351607047A3
:100D8000774A516807231B0299430143516070471A
:100D900073494A6801239B039A434A604A6883B2B5
:100DA0001A434A600A6B8B159A430A630A6B000C5C
:100DB00002430A6370476A490A6B40239A430A63F5
:100DC0000A6B02430A63704765490A6B10239A4312
:100DD0000A630A6B02430A637047010F604A0129E4
:100DE0000AD00229116B0BD003239B049943116392
:100DF000116B014311637047116B8908890002E090
:100E000003231B0499431163F2E755490A6B8023BE
:100E10009A430A630A6B02430A637047F8B5504E5F
:100E20000446706800210C22514D104005D0042862
:100E300003D0082803D00C281AD025601AE0716866
:100E4000706803228902D2030F0F1040BF1C0028D4
:100E50000AD0F06A0107090F2846491C02F070FF0A
:100E600078430146216005E0424839464143F9E7AD
:100E7000414820607068414F0006000F3B5C2068CD
:100E80000246DA40626073685B055B0FFB5CDA4028
:100E9000A260336BDB0502D4394BE36006E0736874
:100EA0005B0401D4530800E09308E360336B5F06F2
:100EB000344B02D4344F276100E02361376BFF06C7
:100EC00001D4656100E06061376BBF070ED0376BFE
:100ED000BF07BF0F012F0BD0376BBF07BF0F022F0C
:100EE00008D0376BFF43BF0706D006E0A26104E0DD
:100EF000A06102E0A36100E0A561376BBF03BF0FF3
:100F00000FD0376BBF03BF0F012F0CD0376BBF0360
:100F1000BF0F022F09D0376BBF03BF0F032F06D0BF
:100F200006E0E26104E0E06102E0E36100E0E56127
:100F3000376B3F03BF0F0FD0326B1203920F012AA2
:100F40000CD0306B0003800F02281FD0306B0003E1
:100F5000800F03281CD01CE022621AE0206218E0F7
:100F6000001002400CB8FF08FFFFF6FEACFEF0FFD9
:100F700000127A0000093D00006CDC020000002035
:100F8000809FD5000080000012800000236200E0F6
:100F90002562306B000602D438486062F8BD616299
:100FA000F8BD37490A6A02430A6270470122344990
:100FB000D2030028086A01D0104300E09043086281
:100FC000704701222E4912040028086A01D01043FC
:100FD00000E0904308627047294A0029516901D016
:100FE000014300E0814351617047254A002991691E
:100FF00001D0014300E0814391617047204A0029FC
:10100000D16901D0014300E08143D16170471C4A9E
:101010000029916A01D0014300E081439162704749
:10102000174A0029D16801D0014300E08143D16013
:101030007047134A0029116901D0014300E0814340
:10104000116170470E4A0029517A01D0014300E036
:101050008143517270470A48416A012212061143C6
:1010600041627047064A0146926800200A4200D059
:10107000012070470249887270470000006CDC0252
:1010800000100240F64910B5884209D1C41401216C
:101090002046FFF7C5FF00212046FFF7C1FF10BD26
:1010A00001218907884206D101210846FFF7C1FFC7
:1010B000002101201CE0EB49884206D101210220D9
:1010C000FFF7B7FF0021022012E0E749884206D16E
:1010D00001211020FFF7ADFF0021102008E0E349B7
:1010E000884208D101212020FFF7A3FF0021202002
:1010F000FFF79FFF10BDDE49884209D18415012109
:101100002046FFF796FF00212046FFF792FF10BD13
:10111000D849884209D101210C042046FFF780FFFD
:1011200000212046FFF77CFF10BDD349884209D13A
:1011300001214C042046FFF773FF00212046FFF7F2
:101140006FFF10BDCD498842FBD101218C042046A0
:10115000FFF766FF00212046FFF762FF10BD10B4C5
:101160000288BF4B984206D00124A407A04202D0B7
:10117000BC4CA04203D17024A2434C882243BA4CF9
:10118000A04203D0BE4C22400C89224302804A6810
:10119000C2620A880285984208D0B64A904205D0B9
:1011A000B54A904202D0B54A904201D1897A01866F
:1011B0000121818210BC70470021C9434160002198
:1011C0000180018141808172704701858282704770
:1011D000028870239A430A43028070474162704735
:1011E000C1627047406A7047008D70470222002933
:1011F000018801D0114300E091430180704704222F
:101200000029018801D0114300E09143018070471B
:1012100080220029018801D0114300E09143018020
:101220007047028808239A43028002880A4302809A
:1012300070470288924B1A40028002880A4302805B
:1012400070470029018802D00122114301E04908BA
:1012500049000180704710B40A884B88CC881A4333
:101260008B8823431A430B891A434B8989891A4374
:101270000A434030828010BC7047002101804180C9
:101280008180C18001814181818170474030002986
:10129000818803D00122D203114301E04904490CA3
:1012A0008180704770B4028C520852000284048C12
:1012B0008288038B7025AB439B080D889B001D43E0
:1012C00002239C438E894B882643654C3343A042BE
:1012D00008D0684CA04205D0674CA04202D0674CB1
:1012E000A0420DD10824A343CC891C4304239C4372
:1012F0008B882343624C22400C8A14434A8A22433F
:101300008280058389684163038470BC704770B430
:10131000028C10239A430284048C8288038B594DDB
:101320002B400D782D062D0C1D4320239C438B89CB
:101330001B051E0C4B8826431B051B0C484C3343D6
:10134000A04202D04B4EB04219D14F4E32400E8ACD
:10135000B604360C3243A04211D18024A343CC8979
:101360002405240C1C4340239C438B881B051B0C29
:101370002343464C22404C8AA404240C22438280FE
:10138000058389688163038470BC704730B4028C24
:101390003F4B1A400284038C8288848B7025AC43B7
:1013A000A4080D88A40025433A4C23400C7B240656
:1013B000240C1C438B781B061B0C2343284CA04297
:1013C00015D1324C23408C7B2406240C1C432E4B1D
:1013D0001C400B791B061B0C23432F4C22400C8A0C
:1013E0002405240C14434A8A1205120C22438280DD
:1013F00085838968C163038430BC704730B4028C34
:10140000264B1A400284058C8288838B1D4C234016
:101410000C782406240C1C43214B1D400B7B1B071E
:101420001B0C2B438D782D072D0C1D430C4B984224
:1014300005D11C4B13400A8A9205120C1A43828074
:10144000848389680164058430BC70470021018071
:101450004180818081608181C181018241827047A8
:10146000002C014000040040001000400014004027
:10147000002000400040014000440140004801407D
:10148000FFFC0000FF8C0000FFFB0000FFF70000E6
:10149000FFFE0000FFFD0000FFCF0000FFEF000097
:1014A000FFDF0000FFBF000030B403461833012403
:1014B000058C8C40A5430584002911D008290FD044
:1014C000091F0804400CC018016807231B03994337
:1014D000016001681206120C1143016030BC7047B4
:1014E0004808C018016870239943016001681143DE
:1014F000016030BC70474163704781637047C163CE
:10150000704701647047028B70239A430A43028339
:101510007047028BFE4B09021A401143018370474A
:10152000828B70239A430A4382837047828BF84BE5
:1015300009021A401143818370470029818802D033
:101540000122114301E04908490081807047028B64
:1015500008239A430A4302837047028BED4B09022A
:101560001A40114301837047828B08239A430A4330
:1015700082837047828BE74B09021A4011438183B3
:101580007047028B04239A430A4302837047028BFD
:10159000E14B09021A40114301837047828B0423F7
:1015A0009A430A4382837047828BDB4B09021A40BD
:1015B000114381837047028B80239A430A4302833D
:1015C0007047028B5204520C090211430183704789
:1015D000828B80239A430A4382837047828B520412
:1015E000520C0902114381837047028C02239A43F3
:1015F0000A4302847047028C08239A430A430284F8
:101600007047028C20239A430901114301847047DB
:10161000028C80239A430901114301847047028C94
:10162000BE4B09021A40114301847047028CB94B2A
:1016300009021A40114301847047028CB84B090318
:101640001A40114301847047028908239A4302819A
:1016500002890A430281704710B40123048C8B4035
:101660009C430484038C8A401343038410BC70475A
:1016700010B40423048C8B409C430484038C8A4064
:101680001343038410BC704704220029818801D0D1
:10169000114300E0914381807047828BA14B1A4037
:1016A0008283828B09020A4382837047828B0C23D8
:1016B0009A438283828B0A4382837047028B994BC1
:1016C0001A400283028B09020A4302837047028B8D
:1016D0000C239A430283028B0A4302837047F8B5B6
:1016E000054608884E888A880B890C46002822D037
:1016F00004282DD00828288C38D08B49084028840D
:10170000A88B2F8C3103894E1202304002431803FC
:101710001043874AA88317400F43012109030F4351
:101720002F84A079A98B7F4A1140A983A98B00023D
:101730000143A983F8BD3146284600F082F9E088CC
:10174000298B0C2291432983298B01432983F8BDDE
:101750003146284600F05FF9A079298B714A114083
:101760002983298B000201432983F8BD7149084070
:101770002884A98B288C3702F3261B01B14313431D
:101780000B436D49AB830840FF21384301310843C7
:101790002884E088AA8B0C218A43AA83A98B014361
:1017A000A983F8BD00210180418001228280C1808F
:1017B00001817047F8B50C46498800270126054687
:1017C000002900D10227A288012A00D10226208800
:1017D00023890028284619D000F01DF9A079298B0B
:1017E000504A11402983298B000201432983238910
:1017F00032463946284600F024F9E088298B0C222D
:1018000091432983298B01432983F8BD00F019F9FD
:10181000E088298B0C2291432983298B014329835A
:10182000238932463946284600F0F5F8A079298BFD
:101830003C4A11402983298B000201432983F8BDCA
:10184000406B7047806B7047C06B7047006C70478F
:10185000002A828901D00A4300E08A4382817047CE
:10186000818270470246128A00200A4200D001207D
:101870007047C94301827047038A002280890B4068
:101880000840002B02D0002800D0012210467047EB
:10189000C943018270471143403001817047002ADB
:1018A000828901D00A4300E08A438281704708227E
:1018B0000029818801D0114300E091438180704765
:1018C0000189C908C90001817047028970239A43C0
:1018D0000A4302817047028970239A430A430281B6
:1018E0000189072211430181704770B516460D46E4
:1018F0000446602924D00122314600F0A2F8208954
:10190000702188432843208120890721084315E05E
:10191000FF8F0000FFF70000FFFB0000FFFD00004D
:10192000FFDF0000FFF30000FFEF0000FF0C0000EE
:10193000FF5F0000FFFE0000FFF50000208170BD8A
:101940000122314600F067F8D9E710B404891B0280
:101950001343E4B20B432343038110BC704710B41C
:1019600004891B021343E4B20B432343038101891F
:101970000722C908C9001143702291431143018114
:1019800010BC704710B404891B021343E4B20B432C
:10199000234303810189012292031143018110BC79
:1019A0007047828870239A43828082880A438280AB
:1019B00070470289D208D200028102890A4302815B
:1019C0007047028980239A43028102890A43028177
:1019D000704770B40589048B068CED08ED000D434B
:1019E000224905810C40FF2102310C43AA218E437C
:1019F0001901114331430483018470BC7047802274
:101A00000029818801D0114300E091438180704713
:101A1000403001827047F0B4048C1026B443048433
:101A2000058B048C124F1B0309013D402B4312020E
:101A30001A43A0239C430C43344302830484F0BC28
:101A4000704770B4048C640864000484058B048CB3
:101A50001B011343F3260A22B54394432B430C4343
:101A600001210C430383048470BC7047FCFC00001C
:101A7000FF0C0000F64910B5884207D101218C0304
:101A80002046FFF7CDFA0021204650E0F149884278
:101A900009D101214C042046FFF7CBFA0021204652
:101AA000FFF7C7FA10BDEC49884209D101218C0427
:101AB0002046FFF7BEFA00212046FFF7BAFA10BD14
:101AC000E649884209D10121CC042046FFF7B1FA4A
:101AD00000212046FFF7ADFA10BDE149884209D147
:101AE00001210C052046FFF7A4FA00212046FFF74C
:101AF000A0FA10BDDB49884206D101212020FFF762
:101B00008FFA0021202012E0D749884206D1012116
:101B10004020FFF785FA0021402008E0D3498842A1
:101B2000E7D101218020FFF77BFA00218020FFF719
:101B300077FA10BD30B5044600688BB00D464008FA
:101B4000400020606068032109038843A9680143BD
:101B500061602068C649EA680840696811432A69DB
:101B6000024311432160A068032109028843696987
:101B70000143A1606846FFF751F9B548844201D19D
:101B800006980AE0B348844201D1079805E0B248BC
:101B9000844201D1089800E002982168090429686C
:101BA00000D5400002F0CCF82A6852088A4200D8DA
:101BB000401C2168090404D50107AE4A490F1040B2
:101BC0000843A0810BB030BD4B21C9010160002149
:101BD000416081600C22C16002614161704710B4B4
:101BE00043680F22120293434C680A6822438C68B0
:101BF000C9680C4322431A43426010BC704700215D
:101C0000016041608160C16070470029016802D0B5
:101C10000122114301E04908490001607047002A90
:101C2000026801D00A4300E08A4302607047012243
:101C3000D2030029016801D0114300E09143016003
:101C400070470122D2020029816801D0114300E0CF
:101C50009143816070470122D2040029416801D07C
:101C6000114300E091434160704701229204002932
:101C7000416801D0114300E0914341607047002A60
:101C8000426801D00A4300E08A4342607047012263
:101C9000D2030029416801D0114300E09143416023
:101CA00070470122D2050029416801D0114300E0AC
:101CB0009143416070474269120E120642614269C7
:101CC0000A4342617047028A120A12020282028AA1
:101CD0000A430282704702220029016801D01143A1
:101CE00000E0914301607047826803231B059A431B
:101CF000826082680A4382607047012212050029CF
:101D0000416801D0114300E091434160704742684F
:101D100003235B059A43426042680A43426070476E
:101D2000C905C90D01857047808CC005C00D70477D
:101D300042681202120A4260426809060A4342607F
:101D40007047012252030029016801D0114300E0CD
:101D500091430160704702680123DB029A430260ED
:101D600002680A4302607047426810239A43426047
:101D700042680A4342607047426820239A434260A7
:101D800042680A4342607047012292030029416879
:101D900001D0114300E091434160704708220029BF
:101DA000816801D0114300E0914381607047028A4D
:101DB000D2B20282028A09020A43028270472022BA
:101DC0000029816801D0114300E091438160704790
:101DD00010220029816801D0114300E09143816005
:101DE0007047826807235B049A43826082684904D3
:101DF0000A438260704742691202120A42614269D4
:101E000009060A4342617047826804239A4382604C
:101E100082680A438260704702220029816801D0EB
:101E2000114300E091438160704701229203002931
:101E3000816801D0114300E091438160704782685E
:101E40000123DB039A43826082680A438260704701
:101E5000003801400044004000480040004C004071
:101E6000005000400014014000180140001C0140D7
:101E7000F3E9FFFFF0FF000002681F235B059A43B0
:101E80000260026849050A430260704702681F2326
:101E90001B049A430260026809040A430260704707
:101EA000002A826801D00A4300E08A4382607047BA
:101EB000826801235B039A43826082680A438260DE
:101EC000704710B40B041C0E01238B40022C02D06F
:101ED000032C02D002E0001D00E008300168002A57
:101EE00001D0194300E09943016010BC7047002AFB
:101EF000028B01D00A4300E08A4302837047826864
:101F000001231B039A43826082680A438260704700
:101F10000246D26900200A4200D0012070470162C7
:101F2000704730B40A04130E0124224600258A406B
:101F3000012B0FD0022B10D083681340090CC0690D
:101F40008C402040002B02D0002800D001252846DC
:101F500030BC704703681340F0E74368EDE7090CB5
:101F600001228A400262704706480047FEE7FEE70A
:101F7000FEE7FEE7FEE7FEE703480449024A044B9A
:101F800070470000C1000008100F00201011002051
:101F9000100F00207047704700207047002A01D0C2
:101FA00001207047002070470020704701468031B3
:101FB00004D0002801DA404240B270477F207047C9
:101FC0000121C903C84201D1400C70470028FCDA46
:101FD000404200B270470121C907884201D1401E2A
:101FE00070470028FCDA404270470122D2074A407D
:101FF000024306D0002903DA0A46002140429141FB
:1020000070470020C04341087047FF21C905C842FE
:1020100001D309024840704770B5002205460C46BE
:10202000134602F097F802D20120C0074440284628
:10203000214670BD0121C176002181767047F0B53F
:1020400007461A3783B00446D54D002661E0A07ECE
:10205000062874D201007944097949188F44020B8B
:10206000192D535D552020776677606955210268E8
:10207000904701204CE0207F217A4018207760694A
:1020800002689047207A0221552811D002280FD0EB
:102090000CE0207F217E401820776069026890471D
:1020A000207E0321552803D0022801D0397030E06A
:1020B00068702970042038702BE0617FE068237F0E
:1020C000425CD2182277415C606902689047607F69
:1020D000227A411C9142E168085C05D3052155280C
:1020E0000CD002280AD004E00321552806D002288B
:1020F00004D03970607F401C60770AE068702970F6
:1021000004203870F6E7606900210268904728785B
:10211000A076E07E012815D0A8E0207F552801D0C8
:10212000022801D1C0432077C1B26069026890479C
:10213000606941698847E67666769AE0FFE7E67669
:10214000667696E06069C1688847002800D07EE71F
:102150008CE0606941688847627E21461931022718
:10216000062A1CD213007B441B79DB189F4402070C
:102170001E2A4961552879D12077012050E0002896
:102180000DD0627A824244D30246553222772072C1
:1021900066776776552804D0022802D066E0667616
:1021A00064E068702F70042008705FE0227E824235
:1021B000F5D1227F12182277032255281CD002283D
:1021C0001AD017E0227F12182277637FE268D0547A
:1021D000627F521CD2B26277237A9A4205D30522DB
:1021E000552809D0022807D004E00322552803D03F
:1021F000022801D00A7039E068702A700420087043
:1022000034E000280BD069785529C8D1617A814221
:1022100008D26676E2682046152116701FE02878FD
:10222000607623E001465531217720726677677624
:102230001CE0217F552901D0022901D1C943217712
:10224000C9B281420ED1E06800781A2805D8216908
:10225000800009582046884708E02121204600F0E8
:10226000D4F803E01321204600F0CFF8E07E0028E8
:1022700005D1606981688847002800D069E7494F27
:102280003868816A002978D0806A4030407B042811
:1022900073D160690169884701463868826A4032B3
:1022A000127F121D91426AD3816A40310A8B816A82
:1022B0004031C98A8A4262D3806A403006836069AD
:1022C0000221026890473868806A4030017F606967
:1022D000026890476069217E026890473868806A8A
:1022E0004030817E6069026890473868806A40307B
:1022F000408B010A6069026890473868816A227ED3
:102300004031097F8A18816A806A4031897E403075
:10231000408B000A08181018801CC6B20025A800BF
:10232000001D029000272846243001901D480068B7
:10233000816A02980858C05D00906069009902683F
:10234000904700983018C6B216487F1C0068BFB28C
:10235000816A0198085CB842E8D812486D1C006890
:10236000ADB2806A4030407DA842D8D8022E00D15C
:10237000FD26606931460268904703B0F0BD686889
:10238000401C686003B0F0BDC1604272037606492C
:102390000160064941600021C17641767047000026
:1023A00010000020380000203F20000835200008E1
:1023B00070470020704700207047002070470020C1
:1023C00070477047074901600749416007498160CC
:1023D0000749C1600749016107494161704741618F
:1023E00070470000C3230008BF230008BB23000878
:1023F000B7230008B3230008B123000802210172AB
:10240000C268212151704168084702220272C268E5
:1024100051704168084730B4417A2E2907D21521FE
:1024200002220272C2685170416830BC08472E21F6
:102430000172C26800215170C36805229A70C26897
:10244000FA4BD17019680A8CC46822710A8CC4686E
:10245000120A6271C468427AA271C4682022E271D1
:10246000C46883222272C46846226272C4686522EC
:10247000A272C4686222E272C46832222273C56802
:1024800037246C73C568AA73C5683022EA73C568BF
:1024900031222A74C5686C74C468A274C46834227A
:1024A000E274C4682275C468362262754A6A002ADA
:1024B00069D04A6AC4681278A2754A6AC4685278B8
:1024C000E2754A6AC468927822764A6AC4681279C8
:1024D00062764A6AC4685279A2764A6AC468D27936
:1024E000E2764A6AC468127A22774A6AC468527AE3
:1024F00062774A6AC468927AA2774A6AC468D27AD2
:10250000E2774A6A147BC268203214704A6A947B6C
:10251000C26820325470496ACA7BC16820318A700F
:1025200019680B7BC2682032D370CA89C368203314
:102530001A71CA89130AC268203253710A69C368C2
:1025400020339A710A69C368120A2033DA710A6962
:10255000C368120C20331A720A69130EC268203243
:102560005372C26820329172C3680A0A2033DA7249
:10257000C3680A0C20331A730A0EC16820314A73EB
:10258000416830BC08470C212D220C46C568163422
:102590002A550C46491EC9B2002CF6D1C0E7F8B541
:1025A000C168044688784A780002801886B29F483D
:1025B000026813683746002B01D0002004E0002099
:1025C000432311E0401C80B2C500AC465D5BBD42B8
:1025D00002D0002DF6D112E0C000185A00280ED00B
:1025E0006046C0184068002302258446002B09D0AD
:1025F0002572E16820464B7061688847F8BD00206D
:102600004023F1E79068002824D0002001E0401C1E
:1026100080B29768C300FF5AB74203D09768FF5A49
:10262000002FF4D19668C000305A002812D090686C
:102630001B1DC358207AC01EC2B26046C91C9847F1
:102640000028DBD02572E268422151706168204683
:102650008847F8BD5068002803D0604607880020EE
:1026600009E02572E268442151706168204688477C
:10267000F8BD401C80B2566818234343F65ABE4248
:1026800003D05668F65A002EF3D1566818277843BF
:10269000305A002812D050681033C358207AC01E18
:1026A000C2B26046C91C984700280FD02572E26864
:1026B00014215170616820468847F8BD2572E26890
:1026C00041215170616820468847F8BD2572E16854
:1026D00000204870616820468847F8BDF8B5C16899
:1026E000044688784A780002801886B24F4803680A
:1026F0001868002801D0002204E0002643220FE0E1
:10270000521C92B2D700C55BB54202D0002DF7D162
:1027100010E0D200825A002A0CD0381846680022F5
:10272000002A0AD002212172E16820464A706168BD
:102730008847F8BD00264022F2E75868002802D0FA
:10274000378800200AE0442102222272E2682046F3
:10275000517061688847F8BD401C80B25D681822DE
:102760004243AD5ABD4203D05D68AD5A002DF3D14E
:102770005D6818277843285A00280ED058680C3214
:1027800082583046891C9047801C2072E1680020E6
:102790004870616820468847F8BD412102222272B4
:1027A000E2682046517061688847F8BD30B4C1685E
:1027B00000224C781D4902230968062C15D22500F9
:1027C0007D442D796D19AF44020406080A0D0024DA
:1027D00006E0012404E00B7308E0032400E0042475
:1027E0000C7303E005240C7300E02222C1684A70D8
:1027F0000372416830BC0847C268002151700B4920
:102800000968097BC2689170032101724168084719
:1028100010B4074B074A00218C00491C89B21351A0
:102820001A29F9D9026110BC704700003800002055
:10283000FD2300083C0000200069054901600549AE
:1028400041600549816005498164054941647047DB
:1028500017240008F9270008AD2700089F25000865
:10286000DD260008F8B5C16805468A784878120266
:102870008218C8780B7900041B06C01810189F4BEB
:10288000078800221B6801E0521C92B25E6818247F
:102890005443365BBE4203D05E68365B002EF3D1F4
:1028A0005E6818277A43B25A002A0ED05A6810344C
:1028B00013592A7A521FD2B2491D9847002809D0CD
:1028C00014212846FFF7A1FDF8BD41212846FFF756
:1028D0009CFDF8BD02202872E968002048706968F4
:1028E00028468847F8BDF8B5C16805468A78487813
:1028F00012028018CA780B7912041B06D2188618A7
:102900007E4837880022036801E0521C92B2586862
:1029100018245443005BB84203D05868005B002879
:10292000F3D1586818277A43805A00280ED0586887
:102930000C3402593046891C9047801C2872E96883
:1029400000204870696828468847F8BD412128461C
:10295000FFF75BFDF8BDF8B5C268467A54790021EF
:10296000A51C9379AC46AE4201D215214AE0967877
:1029700055783602AD19D678127936041206B21897
:10298000AA18012B05D0022B10D0042B1FD0142124
:1029900038E00023002C38D99D1C1678C7685B1CD2
:1029A0009BB2521C7E55A342F6D329E00023002C93
:1029B0002BD99D1CC76816787E551688C768360ABD
:1029C000DB1CFE54ABB2921CA342F2D318E00023EE
:1029D000002C1AD9C76816789D1C7E551588C768C3
:1029E0002E0ADD1C7E551568C7682E0C1D1D7E55F0
:1029F00040CAC768360E5B1DFE54ABB2A342E9D392
:102A0000002902D0FFF701FDF8BD62460272C268DC
:102A1000517041688847F8BD0069394941623949B8
:102A2000C161394901627047F8B50446C0688278CF
:102A3000417812028918C278037912041B06D21851
:102A40008D18217A4779891FCEB23946304601F078
:102A500077F9002905D1012F08D0022F13D0042FB8
:102A600024D014212046FFF7D0FCF8BD0020002E12
:102A700036D9811DE268401C515C297080B26D1C02
:102A8000B042F6D32CE00020710829D0760841002E
:102A90008B1DE268C91D515CD35C0902591829805D
:102AA000401C80B2AD1C8642F1D819E00020B1086C
:102AB00016D0B7088100E2688B1DD65CCB1DD35CB5
:102AC000401C1B02F6180B4608330931D35C515CDD
:102AD0001B0409065918711802C580B28742E9D84B
:102AE00002202072E1680020487061682046884713
:102AF000F8BD006905498162704700003800002078
:102B000057290008E728000865280008292A000836
:102B100010B4134A002110680160416081600173A4
:102B2000C181016181820846146883001B19996183
:102B3000401CC0B20228F7D3106801844162816250
:102B4000C16210BC7047064909688A8A022A05D208
:102B50008A8A93005B18521C8A8298617047000031
:102B6000380000200021C943018000210A468B0063
:102B70001B185A6043182033491CC9B21A7108291E
:102B8000F5D3F849C16200218163C16301648264A5
:102B90004164014640310A734A7302650A754A75F9
:102BA000CA820A834A830A770266203142660A7221
:102BB000C266ED4A012302670B75EC49026309689E
:102BC00088627047F8B5194603464030067B4020BE
:102BD00030400746350718462D0F00246030002F7F
:102BE00043D0042D02D0082D58D119E0007D1F6C70
:102BF0009D6B012816462946384608D001F03AFB5D
:102C00004CD22946304601F00BFB47D845E001F095
:102C100007FB43D22946304601F02CFB3ED83CE06E
:102C20005E6C1D6CB646AC46DE6B9D6B0092007D03
:102C30000F4601282A463346604671460AD001F005
:102C4000BBFA2BD22A4633463946009801F082FA65
:102C500024D822E001F07EFA20D22A4633463946B3
:102C6000009801F0A9FA19D817E020273E4253D066
:102C7000012D06D0022D17D0042D27D0082D0DD1FF
:102C800033E0196C007D4DB2198F52B249B2012860
:102C900005D08D4202DD8A4200DC012487E08D42AE
:102CA0004FDA8A42F9DA82E0196C007D0DB2198F91
:102CB00012B209B2012804D08D4278DD8A42ECDDDF
:102CC00075E08D4273DA8A42E7DA70E0007D1D6CB0
:102CD000996B012804D08D4269DD8A42DDDD66E012
:102CE0008D4264DA8A42D8DA61E01D461F6C5E6C60
:102CF000007D9B6BED6B012807D02846DF1BB041A0
:102D000055DA981A8D41C8DA51E0F81AAE414EDA18
:102D1000D01AA941C1DA4AE0012D06D0022D16D001
:102D2000042D26D0082D42D132E0196C007DCDB2A1
:102D3000198FD2B2C9B2012804D08D4237D98A4244
:102D4000ABD934E08D4232D28A42A6D22FE0196C40
:102D5000007D8DB2198F92B289B2012804D08D42C4
:102D600025D98A4299D922E08D4220D28A4294D232
:102D70001DE0007D1D6C996B012804D08D4216D991
:102D80008A428AD913E08D4211D28A4285D20EE05E
:102D90001D461F6C5E6C007D9B6BED6B012808D09F
:102DA0002846DF1BB04102D2981A8D41CDD2204671
:102DB000F8BDF81AAE41FAD2D01AA941C5D2F6E749
:102DC000F0B5054604464035687B83B009280FD22C
:102DD00001007944097949188F440A570C0A0445BF
:102DE00045CAB200688B401C6883288B401C28832E
:102DF00003B0F0BD288B411C2983E98A88422DD37A
:102E000000202883844620464030224601906146B7
:102E100089008918009161460020511820318E46A2
:102E20000099D76A49680E5C116D401C4B1C1365F4
:102E30007E5471460979C0B28142F1D86046401C87
:102E4000C0B284460198417D6145E0D8297D106D6E
:102E500041184548814201D900206873688B401CA5
:102E6000688303B0F0BD204600F0FEFA0646024635
:102E70000F460B462046FFF7A5FE002801D0042090
:102E80006CE06764266403B0F0BD288B411C298385
:102E90002146EA8A6031009190422AD3002028839B
:102EA0002A7D216D8A1830498A4200D92065002286
:102EB000910009198E460020A11820318C467146D8
:102EC0004968E76A0E5C216D401C4B1C23657E54EB
:102ED00061460979C0B28142F1D8521C687DD2B2F4
:102EE0009042E5D8E16E206D884202D3009801211E
:102EF0000172204600F0B8FA064602460F460B461D
:102F00002046FFF75FFE0028BBD00098007A00281B
:102F1000B7D0206E002804DA606600202065082003
:102F20001CE0206D002809D0298B002901D06066A3
:102F300002E0297D401A606607200FE0206FF8E765
:102F4000288B411C2983E98A88429CD3002028834E
:102F5000297D606E4018606695D40220687303B0C6
:102F6000F0BD0000A8000020B80B000038000020D1
:102F7000288B411C2983E98A8842F0D300202883CA
:102F8000297D206D4118F748814201D90020206534
:102F90000020844620464030224601906146890048
:102FA0008918009161460020511820318E46009901
:102FB000D76A49680E5C116D401C4B1C13657E542A
:102FC00071460979C0B28142F1D86046401CC0B256
:102FD00084460198417D6145E0D8216D606E401ABC
:102FE000216E884203D9126F80188842B7D800201A
:102FF0006873B4E702464032537B0B70537D4B70CD
:10300000937D8B70D28A120ACA70026D0A71026DAA
:10301000120A4A71026D120C8A71026D120ECA7187
:10302000828D0A72828D120A4A72C26A120C8A72E8
:10303000C26A120ECA72026E0A73026E12124A73CA
:10304000026E12148A73026E120ECA73426E0A74F2
:10305000426E12124A74426E12148A74426E120E3A
:10306000CA74026F0A75026F120A4A75026F120C57
:103070008A75026F120ECA75028E0A76028E120AC5
:103080004A76026B120C8A76006B000EC87682209C
:1030900008771D20704710B4002810D0002201E0EE
:1030A000521C92B2D300C45A8C4202D0002CF7D1E9
:1030B00007E0D100415A002903D01818406810BC1D
:1030C000704710BC00207047F7B5054684B000205B
:1030D00002900C4606980421042877D360780828CB
:1030E00074D8002872D02E46002040367073707558
:1030F00070832865E378A2781B02D218F2823283AB
:10310000286468643075022232772A46603203925E
:1031100010726866607800287ED9605C491CCFB266
:10312000002867D0012804D002283DD003284DD1C3
:103130004DE0E0194278E15D1202891889B20091F0
:103140008178C0780002081881B28748006800685A
:10315000FFF7A1FF0190002838D00388824800685B
:103160004268002001E0401C80B2182141438C4697
:10317000515A994202D00029F5D113E01821484351
:10318000105A00280ED06046801800281ED04269D0
:1031900000990198904702998900491948600028D0
:1031A00014D036E00020F0E7E0198178C078000202
:1031B000081881B26C4800680068FFF76CFF0028AF
:1031C00004D0029989004919486022E087E0E0199B
:1031D0008178C0780002081881B2634800680068EE
:1031E000FFF759FF00287AD0016802988000401943
:1031F00041600EE0E0194278E15D120289188278A0
:10320000C0781204000610180918029880004019AE
:103210004160E019017900E01BE002982818203095
:103220000171327D5118C9B23175327F00791018A1
:1032300030774C4800F084FD4A487F1D401A2867CB
:103240000298F9B2401CC0B202906278824200D962
:1032500063E7605C491C3073C9B2605C491CCFB243
:10326000002873D0012804D002283BD0032869D15C
:1032700046E0E0194278E15D1202891889B20091B6
:103280008178C0780002081881B237480068006869
:10329000FFF701FF0190002854D0038832480068EE
:1032A0004268002001E0401C80B2182141438C4656
:1032B000515A994202D00029F5D111E01821484312
:1032C000105A00280CD06046801800283AD0426975
:1032D000009901989047A864002833D01FE031E09E
:1032E0000020F2E7E0198178C0780002081881B266
:1032F0001D4800680068FFF7CEFE002822D00DE0D0
:10330000E0198178C0780002081881B21648006878
:103310000068FFF7C0FE002814D00068A864327B64
:103320003F1D1107090F0091D109C90102910099B0
:10333000F8B20192012919D002291CD0042923D006
:10334000082930D0012007B0F0BDFFE7E01942782E
:10335000E15D120289188278C07812040006101804
:103360000818DBE7B80B000038000020215C0022C1
:10337000EA63A96341E022185278215C120289189D
:10338000CA17EA63A96338E021184B78225C1B0254
:10339000D2188B78C9781B040906591852180021D5
:1033A000AA63E96329E027187978BC46235C0F0EED
:1033B000090200225B187A416746B9780F0C0904AC
:1033C0005B187A416746F9780F0A090659187A415D
:1033D00067463F79091C7A4167467B791F02091CC1
:1033E0007A416746BB791F04091C7A416746FB791D
:1033F0001F06091C7A41EA63A963029900291FD0BC
:1034000000994018C7B2E0194278E15D12028918AC
:103410008278C07812040006101808182866FEF793
:10342000DAFDE8663F1DF8B2225C0399401C0A757C
:103430000699C0B2814209D9205C012806D00AE071
:103440000199202211433173001DDBE7284600F06B
:103450000BF86964286460787075207870730020B8
:1034600007B0F0BD0020704710B44C231B5C002453
:103470001B071B0F012B06D0022B08D0042B09D0F1
:10348000082B0ED10AE0806C2146027809E0806C9E
:10349000028801E0806C0268214602E0806C0268CC
:1034A000416810BC10467047F8B541493F488880D4
:1034B00040490020888040490126488288823F4A4E
:1034C0008875B60396803E4D0D226E812A733E4C60
:1034D0003C4B6382A082FF223C4FE0820732BA80DD
:1034E0003B4AD381108250823A4B90825E829E8208
:1034F000987539484860394888603948C860394803
:10350000394968606160A06051603849916038490C
:10351000596038499960D860384937480860081DB3
:1035200000F08CFA234800F089FA234800F052FAA0
:10353000B81F00F083FA284600F0B1FA204600F0E8
:1035400050FB384600F07AFA214800F0B9FB2148D8
:1035500000F040FA2A48FFF705FBF8BD10B51848FF
:1035600000F08CFA1B4800F01DFA194800F078FBB7
:10357000114800F017FA144800F0B8FA2048FFF795
:103580001FFC10BD10B50E4800F078FA114800F08D
:1035900009FA0F4800F064FB074800F003FA0A48F4
:1035A00000F0A4FA1648FFF70BFC10BDFF7F0000E7
:1035B0002000002026000020600C00202C000020AD
:1035C000780C00209A190000880C0020320000209E
:1035D000A00C0020B80C002028000020AC0C00201B
:1035E00022000020340000202E000020C80C002003
:1035F000800C002018000020700C00201C0000200F
:10360000D00C0020F0B5012189B08805FDF7EDFC54
:1036100001210803FCF7D0FEA048FDF74FFA002077
:10362000FDF74FFA5220FDF74FFAFDF750FAFDF77C
:1036300055FA0C206946087001258D7000244C70E5
:103640006846FDF75DFA01214804FDF7C5FC6846B0
:10365000FDF7E1F92026694600960D718C71CC7159
:1036600009204C71C006FDF79DF90121C804FDF742
:10367000B3FC6846FDF7CFF96803009069460C710A
:10368000874FCC714C713846FDF78CF90121C80287
:10369000FDF7ABFC8348FDF7F5FC05A8FDF78CFDB5
:1036A0006846FDF7D3FE4B204001069069468C82A8
:1036B0008C83CE8205A97B48FDF751FD60206946C9
:1036C00008804D8077480295FDF798FE7020694686
:1036D00008804D80042088804B2000010290022049
:1036E0008881CC81C00108824C826E48FDF7DAFDEA
:1036F00001216C48FDF7A5FD01216A48FDF7C6FDD3
:1037000001214804FDF768FC01214802FDF76DFC2A
:103710000320694606950877CC7706A93846FDF759
:1037200041F9614D2846FCF71DFD6846FCF73DFD5B
:10373000694600940C71281502904020039004946F
:1037400005942846FCF71DFD012204212846FCF7BC
:10375000F6FD002201212846FCF798FD2846FCF7DB
:10376000B8FD01212846FCF728FD01212846FCF779
:10377000EEFD0028F9D02846FCF7C7FD09B0F0BDE2
:1037800010B50120FCF733FE0120FCF729FE0120D3
:10379000FDF75CFA0120FDF71EFA0028FAD005219A
:1037A000C9040020FDF79BFA0020FDF7E2FA002093
:1037B000FDF7E6FA0120FDF79FFA1920FDF70BFA55
:1037C0000028FAD00220FDF7C8FAFDF7CDFA082844
:1037D000FBD110BD10B580213448FEF799FB10BD18
:1037E00010B520213148FEF793FB10BD10B52F48CE
:1037F000FEF79AFAC0B210BD10B52C48FEF790FA49
:1038000010BDF0B5012104464E0489B03046FDF7E5
:10381000E3FB0927FF06012202213846FDF730F9B4
:10382000012203213846FDF72BF906A8FDF7F3F82E
:103830000C2502206946069508770320487706A9DB
:103840003846FDF7AFF801213046FDF7D7FB684653
:10385000FEF7BAF9E1204002009000200495134DD4
:10386000019002900390059069462846FEF762F9A0
:1038700001212846FEF7C9F90D4820600D48606017
:103880000D48A0600D48E06009B0F0BD10B500F033
:1038900052F804210448FCF775FD10BD5555000091
:1038A00000080048002C0140002401400044004072
:1038B000F9370008ED370008E1370008D537000870
:1038C000FFF75EFFFFF724F92B48FEF77BFD2A4840
:1038D000FFF797FF0123FF2228492948FEF754FDEF
:1038E0002748FEF795FF2648FEF7A6FF2448FFF776
:1038F00093F82348FFF727F91F492148FEF76FFD8A
:10390000FDF7E5F81F480121006801841E49416266
:10391000012101731D4941601D490160FFF7C4FD8C
:10392000FDF7D5F8FFF76EFEFDF7D1F8144C1448FB
:1039300021688847FBE710B5012149031548FDF7C9
:1039400081F81549002810D000200880FFF71AFEE2
:103950001248006801880920C006002907D02021EC
:10396000FDF782F8FDF7B3F810BD0D48EDE7202113
:10397000FDF77CF8F6E70000780D0020B00D002080
:10398000900D002038000020DC430008CC420008E5
:103990007443000800080048180000201C000020A4
:1039A000FF7F000082680021515E1222825E9142F8
:1039B00001DB012104E01422825E914201DA002140
:1039C0008175817D002901D0416800E0C1680988C6
:1039D0000182704781210180002101828175704739
:1039E000827C0A70428A12124A70027D8A70808A32
:1039F0000012C87004207047042A01D001207047CB
:103A00004B780A781B02D21842828A78C978090258
:103A10005118818200207047012907D0022907D060
:103A2000032907D0042907D0002070474068704759
:103A300080687047C068704710307047312101803E
:103A400081884180704702790A708088001248702E
:103A5000022070470346022A01D0012070470878EF
:103A6000497809024118998000205980704701293E
:103A700001D000207047801C704700004268002180
:103A8000515E0A22825E5143027B1141164A9142E5
:103A900002DC5242914200DA114601817047112145
:103AA0000180002101817047827A0A7042891212D6
:103AB0004A70007B887003207047032A01D00120E0
:103AC00070474B780A781B02D218428189780173BB
:103AD00000207047012903D0022903D0002070473D
:103AE0004068704708307047FF7F0000F0B582687B
:103AF00012210023415ED35EC28A594301239B03F6
:103B0000C918C91351180AB21104090E514D4C00BD
:103B1000C282295F66190224345FD6B2641A7443E4
:103B2000241261180CB246680021715E4A4E4C4363
:103B3000E318DC131423C35E1C19B44201DD3446C0
:103B400004E0454E7642B44200DA344624B2A6463A
:103B5000424C14192604360E77003E4EE4B2F55F4F
:103B6000BF190226BE5F761B66433412641925B264
:103B70000C466C430125AD036419E413364D1C1942
:103B8000AC4201DD2C4604E0334E7642B44200DA0A
:103B9000344624B2A446314C2E4E64421219140409
:103BA000240E6700F45FBF190226BE5FD2B2361B37
:103BB00056433212121912B251430122920389184C
:103BC000C9135918A94201DD294604E0224A52428C
:103BD000914200DA1146724682816246C2810182B8
:103BE000F0BDFF21B231018000218181C1810182BC
:103BF000C1827047827C0A70428A12124A70027D2A
:103C00008A70808A0012C87004207047042A01D08C
:103C1000012070474B780A781B02D21842828A78BA
:103C2000C9780902511881820020704700B50B0045
:103C300000F083FA060E0406080A0C0E406800BD68
:103C4000806800BD0C3000BD0E3000BD103000BDDE
:103C5000002000BDF0430008FF7F0000ABAAFFFF7B
:103C600030B582680E210023415ED35E01245943A2
:103C7000A4030919828AC91351188182028A2E4D20
:103C800089180A04120E5300EA5E5D190223EB5EE6
:103C9000C9B29B1A4B43191289180AB24368002112
:103CA000595E514312220919825EC9135118234AE1
:103CB000914202DC5242914200DA1146818130BDCC
:103CC000FF21A23101800021818181827047827BA6
:103CD0000A70C28912124A70027C8A70028A121219
:103CE000CA70827C0A71408A0012487106207047AF
:103CF000062A01D0012070474B780A781B02D2189F
:103D0000C281CB788A781B02D21802820A7949795B
:103D100009025118418200207047012905D002296B
:103D200005D0032905D0002070474068704780689F
:103D300070470C3070470000F0430008FF7F000020
:103D4000002203098B4273D3030A8B4258D3030B1F
:103D50008B423CD3030C8B4221D312E003460B432E
:103D60007FD4002243088B4274D303098B425FD374
:103D7000030A8B4244D3030B8B4228D3030C8B42A0
:103D80000DD3FF22090212BA030C8B4202D3121286
:103D9000090265D0030B8B4219D300E0090AC30B5B
:103DA0008B4201D3CB03C01A5241830B8B4201D308
:103DB0008B03C01A5241430B8B4201D34B03C01AF1
:103DC0005241030B8B4201D30B03C01A5241C30A69
:103DD0008B4201D3CB02C01A5241830A8B4201D3DA
:103DE0008B02C01A5241430A8B4201D34B02C01AC4
:103DF0005241030A8B4201D30B02C01A5241CDD269
:103E0000C3098B4201D3CB01C01A524183098B42B3
:103E100001D38B01C01A524143098B4201D34B019C
:103E2000C01A524103098B4201D30B01C01A5241FF
:103E3000C3088B4201D3CB00C01A524183088B4286
:103E400001D38B00C01A524143088B4201D34B006F
:103E5000C01A5241411A00D20146524110467047E1
:103E60005DE0CA0F00D04942031000D340425340E6
:103E700000229C4603098B422DD3030A8B4212D3A6
:103E8000FC22890112BA030A8B420CD389019211D8
:103E90008B4208D3890192118B4204D389013AD015
:103EA000921100E08909C3098B4201D3CB01C01AEA
:103EB000524183098B4201D38B01C01A52414309FD
:103EC0008B4201D34B01C01A524103098B4201D3EB
:103ED0000B01C01A5241C3088B4201D3CB00C01A58
:103EE000524183088B4201D38B00C01A5241D9D270
:103EF00043088B4201D34B00C01A5241411A00D2F1
:103F00000146634652415B10104601D34042002BEC
:103F100000D54942704763465B1000D3404201B56B
:103F20000020C046C04602BD704770477047000081
:103F3000F8B5224C4E00069DA6420AD8A64201D1F1
:103F4000002806D15E00A64203D8A6420AD1002A64
:103F500008D00D24240425422CD02946002000F04E
:103F600061F8F8BD0C461C430CD4994202D0EFF323
:103F70000080F8BD904202D0EFF30080F8BDEFF36F
:103F80000080F8BD09242407E5008B4206D0EFF33A
:103F90000080A043591A06D2284304E0101A05D322
:103FA000EFF30080A04380F30088F8BDEFF30080BA
:103FB000A043F1E7009500F04DF8F8BD0000E0FFE8
:103FC00010B5FF231B0644009C421DD84C009C42A8
:103FD0001AD80346124A0B4307D4401A02D3EFF310
:103FE000008010BDEFF3008010BD081A06D2EFF379
:103FF000008001219043C907084302E0EFF30080ED
:10400000904380F3008810BD0D231B041A4204D096
:104010001146002000F006F810BD00F025F810BD94
:1040200000000090C80212D54803400F002804D0B9
:10403000C803C043012188407047EFF300800001AE
:10404000000903210907084380F300887047002016
:104050007047000010B500200249029A00F033F8C2
:1040600010BD00000000F87F10B5024800F02BF8EA
:1040700010BD00000000C07F754600F053F8AE464A
:10408000050069465346C008C000854618B020B5F3
:10409000FDF772FF60BC00274908B6460026C0C580
:1040A000C0C5C0C5C0C5C0C5C0C5C0C5C0C5403DF0
:1040B00049008D46704710B50446C046C0462046AC
:1040C000FCF749F810BD10B50C461107090F092976
:1040D00004D00A290AD008290CD104E0114608208E
:1040E000FFF7A0FF06E0510606D501E0510601D515
:1040F0000120C007214610BDD10607D501010909DD
:10410000CC084907000E0006044309E0410F2002D5
:104110004907000A0143200E00061D22D141014338
:104120000846E7E700487047B00E00200149182014
:10413000ABBEFEE726000200704730B47446641E32
:104140002578641CAB4200D21D46635D5B00E3181A
:1041500030BC184770B501250C002D051C4310D448
:10416000EC4206D4AC420AD4994200D070BD9042D1
:1041700070BDE94217D4EB4215D4994270BD894213
:1041800070BDEC4206D5AC42F9D58B4200D070BD73
:10419000824270BD6D004C00EC4204D25C00EC42E7
:1041A00001D28B4270BD034C30B4FFF7C1FE30BC6E
:1041B00070BD00BF1900160470B501251C002D0547
:1041C0000C4310D4EC4206D4AC420AD48B4200D04B
:1041D00070BD824270BDEB4217D4E94215D48B42C8
:1041E00070BD9B4270BDEC4206D5AC42F9D59942F8
:1041F00000D070BD904270BD6D005C00EC4204D2F6
:104200004C00EC4201D2994270BD0FB4034C0CBC7F
:1042100003BC30B4FFF78CFE30BC70BD190016042F
:1042200001230200DB050A430DD4DA4203D49A428B
:1042300007D488427047D84214D4D94212D4884255
:10424000704780427047DA4203D59A42F9D58142DD
:1042500070475B004200DA4204D24A00DA4201D2DF
:104260008142704710B5024AFFF7AAFE10BD00BF99
:104270000900160401230A00DB0502430DD4DA42CB
:1042800003D49A4207D481427047D94214D4D84209
:1042900012D48142704789427047DA4203D59A426C
:1042A000F9D5884270475B004A00DA4204D24200E6
:1042B000DA4201D2884270474840414010B5024A74
:1042C0004840FFF77DFE10BD0900160431000000D4
:1042D000971F00083D3A0008473A0008553A000881
:1042E0006F3A000881000000A5390008D5390008A0
:1042F000E1390008F9390008193A000811000000F6
:104300007D3A00089F3A0008A93A0008BB3A000825
:10431000D53A0008B1010000ED3A0008E33B00087F
:10432000F53B00080D3C00082D3C0008A1010000F1
:10433000613C0008C13C0008CF3C0008F13C00088B
:104340001B3D0008FFFF0000C12D0008652B000881
:10435000F52F0008C930000865340008000000008F
:10436000000000000000000000000000000000004D
:1043700000000000010000002C00002002000000EE
:10438000600C002003000000B80C002004000000B6
:104390003200002005000000780C0020060000001C
:1043A0002600002007000000200000200800000078
:1043B000880C002009000000A00C00200A0000006A
:1043C000D00C00200B000000180000200C000000A2
:1043D0001C00002000000000000000004665622074
:1043E0003237203230313731343A34363A333900CB
:1043F0000000240348066A098C0CAB0FC812E215B2
:10440000F9180B1C1A1F2322282526281F2B112ED2
:10441000FB30DF33BA368C39563C173FCE417A44F5
:104420001C47B4493F4CBF4E33519B53F55542583E
:10443000825AB35CD75EEB60F162E864CF66A6682F
:104440006D6A236CC96D5E6FE2705472B57304754A
:1044500041766B77847889797C7A5C7B297CE37CF4
:10446000897D1D7E9C7E097F617FA67FD87FF57F39
:10447000FF7FF57FD87FA67F617F097F9C7E1D7EB1
:10448000897DE37C297C5C7B7C7A897984786B7775
:1044900041760475B5735472E2705E6FC96D236C1A
:1044A0006D6AA668CF66E864F162EB60D75EB35CC4
:1044B000825A4258F5559B533351BF4E3F4CB44935
:1044C0001C477A44CE41173F563C8C39BA36DF330D
:1044D000FB30112E1F2B2628282523221A1F0B1CE8
:1044E000F918E215C812AB0F8C0C6A0948062403B0
:1044F0000000DCFCB8F996F674F355F038ED1EEACE
:1045000007E7F5E3E6E0DDDDD8DADAD7E1D4EFD18D
:1045100005CF21CC46C974C6AAC3E9C032BE86BB4A
:10452000E4B84CB6C1B341B1CDAE65AC0BAABEA7E1
:104530007EA54DA329A1159F0F9D189B31995A97D0
:104540009395DD933792A2901E8FAC8D4B8CFC8A95
:10455000BF8995887C8777868485A484D7831D83CB
:104560007782E3816481F7809F805A8028800B8066
:1045700001800B8028805A809F80F7806481E381CE
:1045800077821D83D783A484848577867C879588EA
:10459000BF89FC8A4B8CAC8D1E8FA2903792DD9325
:1045A00093955A973199189B0F9D159F29A14DA35B
:1045B0007EA5BEA70BAA65ACCDAE41B1C1B34CB6CA
:1045C000E4B886BB32BEE9C0AAC374C646C921CCD2
:1045D00005CFEFD1E1D4DAD7D8DADDDDE6E0F5E3D7
:1045E00007E71EEA38ED55F074F396F6B8F9DCFCEF
:1045F0000000000014460008000000203C000000FD
:1046000004010008504600083C000020D4100000BF
:10461000200100080000000001020304010203045D
:10462000060708090000000000000000000000006C
:10463000000000000000000000000000000000007A
:10464000000000000000000000000000480D0020F5
:0400000508001F6967
:00000001FF
