:020000040800F2
:10000000E01000205D1F0008611F0008631F00084A
:1000100000000000000000000000000000000000E0
:10002000000000000000000000000000651F000844
:100030000000000000000000671F0008691F0008A2
:100040006B1F00086B1F00086B1F00086B1F000868
:100050006B1F00086B1F00086B1F00086B1F000858
:100060006B1F00086B1F00086B1F00086B1F000848
:10007000D53500086B1F00086B1F00086B1F0008B8
:100080006B1F00086B1F0008000000006B1F0008BA
:100090006B1F00086B1F00086B1F00086B1F000818
:1000A0006B1F00086B1F00086B1F00086B1F000808
:1000B0006B1F0008000000006B1F0008000000001C
:1000C00000F002F800F040F80CA030C808382418FE
:1000D0002D18A246671EAB4654465D46AC4201D180
:1000E00000F032F87E460F3E0FCCB6460126334272
:1000F00000D0FB1AA246AB463343184738400000F5
:1001000058400000103A02D378C878C1FAD8520794
:1001100001D330C830C101D504680C6070470000BD
:100120000023002400250026103A01D378C1FBD813
:10013000520700D330C100D50B6070471FB5C046D1
:10014000C0461FBD10B510BD03F0D2FD1146FFF72C
:10015000F5FF03F059FA03F0EAFD03B4FFF7F2FFED
:1001600003BC03F01DFE0000884988420AD110B587
:1001700001214C02204600F050FF0021204600F0F3
:100180004CFF10BD704730B4C268814B8C681A4078
:100190000B680D792343CC686D032C4323430C6912
:1001A000496923430B431343C36030BC70470021AC
:1001B000016001718160C160016141617047002986
:1001C000816803D0012211438160704702221143EC
:1001D0008160704701617047002A026901D00A43BB
:1001E00000E08A43026170470122D2030029C168FE
:1001F00001D0114300E09143C16070470122920396
:100200000029C16801D0114300E09143C1607047EB
:100210000122D2050029C16801D0114300E09143B9
:10022000C16070470904114301627047C2681F230F
:100230009B069A430A43C260704701229205002937
:10024000C16801D0114300E09143C16070470122B1
:100250005049D2050028886801D0104300E090433F
:100260008860704701224B4992050028886801D0B8
:10027000104300E090438860704701224549120610
:100280000028886801D0104300E0904388607047E0
:10029000836A0B4383624261704701225203002943
:1002A000C16801D0114300E09143C1607047012251
:1002B00012040029C16801D0114300E09143C160DC
:1002C0007047012212030029C16801D0114300E0E8
:1002D0009143C1607047826800210123DB071A4304
:1002E00082600F231B038268491CD20FD2079942F8
:1002F00001D0002AF7D18168002901DB006C70472A
:100300000020704781681022114381607047816826
:100310000422114381607047006C80B2704700294D
:10032000C16802D00122114301E049084900C160BF
:100330007047C26802239A43C260C2680A43C2601F
:100340007047002A426801D00A4300E08A434260B5
:1003500070470022CB0104D5806801231B06984317
:1003600000E00068084200D001221046704701609A
:1003700070474368002200680B40084202D0002BFF
:1003800000D00122104670470160704700240140F0
:1003900003D2FFFF0027014011480068000C70479E
:1003A0000F4800680005000D70470D4A002951688C
:1003B00001D0014300E0814351607047084A0029A1
:1003C000916801D0014300E0814391607047044A85
:1003D0000029D16801D0014300E08143D16070471A
:1003E00000580140FE4A1168490849000143116064
:1003F0007047FB4910220028086801D0104300E034
:10040000904308607047F64900200968890600D5C6
:1004100001207047F2480169090603D5F14941609E
:10042000F14941607047EE48016980221143016142
:100430007047EB490420CA68D20701D001207047F9
:10044000CA68D20601D502207047C9684907FBD5A2
:1004500003207047E24A0146D3680420DB0701D03D
:10046000012019E0D368DB0601D5022014E0D3682F
:100470005B0711D503200FE0D3680420DB0701D010
:10048000012008E0D368DB0601D5022003E0D36831
:100490005B0700D50320491E012803D0002900D1A5
:1004A000052070470029E7D1FAE7F0B50B2706468B
:1004B0003F043846FFF7CEFF04280FD1C84C20690F
:1004C000022528432061666120694021084320619C
:1004D0003846FFF7BFFF2169A9432161F0BD70B520
:1004E0000B2636043046FFF7B5FF04280ED1BC4C6E
:1004F00020690425284320612069402108432061A8
:100500003046FFF7A7FF2169A943216170BDF8B507
:10051000054600200B273F0400900C463846FFF7A5
:1005200099FF042815D1AE4E30690121084330618E
:100530002C803846FFF78EFF042806D1AD1C210C15
:10054000009529803846FFF785FF31694908490041
:100550003161F8BDF0B50B2706463F040D4638461D
:10056000FFF778FF04280CD19D4C20690121084336
:10057000206135803846FFF76DFF21694908490041
:100580002161F0BD96480169890503D495498160D0
:100590009549816070479248016942159143016114
:1005A00070478F480169012252031143016170476E
:1005B0008B490020C9694907890F00D00120704785
:1005C000F0B5874DAA24E8694007800F00D00024C9
:1005D0000B273F043846FFF73DFF042812D1286956
:1005E0002026304328612869402108432861384685
:1005F000FFF730FF1021042805D0052802D02A6912
:100600008A432A61F0BD2869B043286128690E46F3
:1006100030432861754804803846FFF71BFF0528E2
:10062000F0D02969B1432961F0BDF0B5C0430104A0
:100630000E0E0102C7B2040E0B200D0E0004FFF7D0
:1006400009FF042831D166490A6910231A430A6157
:10065000FF2F07D0654807810B200004FFF7FAFE43
:1006600004281BD1FF2E07D0604846810B200004D0
:10067000FFF7F0FE042811D1FF2D07D05B488581DC
:100680000B200004FFF7E6FE042807D1FF2C07D05B
:100690005648C4810B200004FFF7DCFE052804D077
:1006A0004F490B69102293430B61F0BDF0B50B2746
:1006B00006463F043846FFF7CDFE04280FD1484CCC
:1006C00020692025284320612069402108432061BA
:1006D0003846FFF7BFFE042802D005280ED1F0BD32
:1006E0002069A843206120691025284320613F48E4
:1006F00006803846FFF7AEFE0528F0D02169A943F1
:100700002161F0BDF0B506460B2094460F4600046B
:10071000FFF7A0FE042814D1314C2069102528438E
:1007200020613E4360460643F82006432F4846803A
:100730000B200004FFF78EFE052802D02169A94393
:100740002161F0BDF0B50B2706463F043846FFF7A0
:1007500081FE042810D1224C2069102528432061F5
:10076000EF200643214846803846FFF773FE0528F0
:1007700002D02169A9432161F0BDF0B50B270646DF
:100780003F043846FFF766FE042810D1144C206958
:10079000102528432061F720064314484680384638
:1007A000FFF758FE052802D02169A9432161F0BD59
:1007B000F0B50B2706463F043846FFF74BFE0428EA
:1007C00019D1074C20691025284320617F2006435A
:1007D000064846803846FFF73DFE05280BD007E067
:1007E0000020024023016745AB89EFCD00F8FF1FD1
:1007F0002169A9432161F0BDF0B50B2706463F04EE
:100800003846FFF727FE042810D13D4C20691025FB
:1008100028432061DF2006433A4846803846FFF7E8
:1008200019FE052802D02169A9432161F0BDF0B568
:100830000B2706463F043846FFF70CFE042810D16C
:100840002F4C2069102528432061BF2006432D48E6
:1008500046803846FFF7FEFD052802D02169A943EE
:100860002161F0BDF0B50B2706463F043846FFF77F
:10087000F1FD04280ED1224C206910252843206167
:10088000204846803846FFF7E5FD052802D021695B
:10089000A9432161F0BDF0B507460B200E460004C8
:1008A000FFF7D8FD04280ED1154C206910252843E8
:1008B00020613E800B200004FFF7CCFD052802D00C
:1008C0002169A9432161F0BD0D48C0690004000EF3
:1008D00070470B48006A7047094A0029116901D026
:1008E000014300E0814311617047054A0146D26827
:1008F00000200A4200D0012070470149C8607047BB
:100900000020024000F8FF1F092110B5C9068842E7
:1009100009D101214C04204600F076FB002120463D
:1009200000F072FB10BD6049884209D10402012128
:10093000204600F069FB0021204600F065FB10BD59
:100940005A49884209D104020121204600F05CFB8B
:100950000021204600F058FB10BD5549884209D1BE
:1009600001210C05204600F04FFB0021204600F03D
:100970004BFB10BD4F49884209D14402012120465A
:1009800000F042FB0021204600F03EFB10BD4A492A
:100990008842FBD101218C05204600F035FB002167
:1009A000204600F031FB10BDF0B4002203250123E6
:1009B0000C6893401C409C422AD10C79012C01D038
:1009C000022C12D1876854002E46A640B743876098
:1009D0004E79A64084682643866084889C43848040
:1009E00084888B7993401C438480066853002C468E
:1009F0009C40A64306600E7907689E403E43066011
:100A0000C668A643C660CC799C40C3681C43C460DA
:100A1000521C102ACBD3F0BC70472849016000213A
:100A20000171012242718171C1717047012212046A
:100A300081B00A430092C261C1610099C161C1697C
:100A4000C069009001B070470246128A00200A4235
:100A500000D001207047008A70470246928A002029
:100A60000A4200D001207047808A70478161704738
:100A700001857047002A01D0816170470185704768
:100A8000818270474B07DB0E9A40C90810B4890079
:100A90000818016A0F249C40A1430162016A1143B6
:100AA000016210BC704700000004004800080048C4
:100AB000000C00480010004800140048FFFF000030
:100AC0000D49086070470C49486070470A498860C2
:100AD000704709490948086070470749086170472D
:100AE0000549074808607047034A0146D26800205C
:100AF0000A4200D00120704700300040AAAA00003E
:100B0000CCCC000030B4827801240178002A15D0C2
:100B10008B08174A9B009A1813688907C90EFF258E
:100B20008D40AB434578AD072D0E8D401D431560BC
:100B30000078C006C00E84400E4803E0C806C00E10
:100B400084400D48046030BC70470C4A002911698C
:100B500001D0014300E0814311617047042208493C
:100B60000428086902D09043086170471043FBE7EE
:100B700000E400E000E100E080E100E000ED00E0E2
:100B800000E000E0F948016801221143016041687A
:100B9000F74A114041600168F64A1140016001685E
:100BA000012292049143016041683F221204914363
:100BB0004160C16A09090901C162016BEE4A114035
:100BC0000163416B4908490041630021816070471E
:100BD000E64900228A70887070470023E34A410981
:100BE0000DD001290DD002290DD0516BC006C00EC9
:100BF000012282400A4200D0012318467047116842
:100C0000F4E7116AF2E7516AF0E718B50020012213
:100C1000D64B5204052424030090196800200A4290
:100C200000D001200099491C0091A14201D0002868
:100C3000F3D01120FFF7D1FF002800D0012018BD0C
:100C4000CA4A1168F8239943C000084310607047EE
:100C5000C6490028086802D00122104301E040087C
:100C6000400008607047C14A516BF8239943C000A7
:100C7000084350637047BD490028486B02D00122E9
:100C8000104301E04008400048637047B749042220
:100C90000028486B01D0904300E010434863704740
:100CA000B2490A6A520852000A620A6A04239A4345
:100CB0000A620A6A02430A627047AC490A6A182348
:100CC0009A430A620A6A02430A627047A7490028E7
:100CD000486A02D00122104301E040084000486207
:100CE000704710B4A14A53687B24E403A3435360C4
:100CF000536808430343536010BC704701229B496B
:100D000012060028086801D0104300E090430860F4
:100D100070470122954912040028486B01D0104306
:100D200000E0904348637047904AD16A090909017D
:100D30000143D162704701228C49D204002808681F
:100D400001D0104300E09043086070478749C871A4
:100D50007047864A5168890889000143516070478D
:100D6000824840680C2108407047804A5168F0234F
:100D700099430143516070477C4A516807231B0225
:100D8000994301435160704778494A6801239B03A6
:100D90009A434A604A6883B21A434A600A6B8B15C9
:100DA0009A430A630A6B000C02430A6370476F4957
:100DB0000A6B40239A430A630A6B02430A63704733
:100DC0006A490A6B10239A430A630A6B02430A6357
:100DD0007047010F654A01290AD00229116B0BD017
:100DE00003239B0499431163116B01431163704703
:100DF000116B8908890002E003231B0499431163E6
:100E0000F2E75A490A6B80239A430A630A6B02434A
:100E10000A637047F8B5554E0446706800210C22ED
:100E2000564D104005D0042803D0082803D00C28C4
:100E30001AD025601AE07168706803228902D20313
:100E40000F0F1040BF1C00280AD0F06A0107090FDD
:100E5000491C284602F0EAFD78430146216005E07E
:100E6000474839464143F9E7464820607068464F95
:100E70000006000F3B5C20680246DA40626073683F
:100E80005B055B0FFB5CDA40A260336BDB0502D4D1
:100E90003E4BE36006E073685B0401D4530800E056
:100EA0009308E360336B5F06394B02D4394F2761F7
:100EB00000E02361376BFF0601D4656100E06061EB
:100EC000376BBF070ED0376BBF07BF0F012F0BD09B
:100ED000376BBF07BF0F022F08D0376BFF43BF0729
:100EE00006D006E0A26104E0A06102E0A36100E098
:100EF000A561376BBF03BF0F0FD0376BBF03BF0FA9
:100F0000012F0CD0376BBF03BF0F022F09D0376BF7
:100F1000BF03BF0F032F06D006E0E26104E0E061EB
:100F200002E0E36100E0E561376B3F03BF0F0FD0E4
:100F3000326B1203920F012A0CD0306B0003800F2A
:100F4000022809D0306B0003800F032806D006E08A
:100F5000226204E0206202E0236200E02562306B3E
:100F6000000619D407486062F8BD00000010024076
:100F70000CB8FFF8FFFFF6FEACFEF0FF00127A009F
:100F800000093D00006CDC0200000020809FD500BD
:100F900000800000128000006162F8BD35490A6AD5
:100FA00002430A62704701223249D2030028086ACC
:100FB00001D0104300E090430862704701222D49A0
:100FC00012040028086A01D0104300E09043086230
:100FD0007047284A0029516901D0014300E081434C
:100FE00051617047234A0029916901D0014300E013
:100FF0008143916170471F4A0029D16901D00143A3
:1010000000E08143D16170471A4A0029916A01D0FA
:10101000014300E0814391627047164A0029D1687C
:1010200001D0014300E08143D1607047114A00299B
:10103000116901D0014300E08143116170470D4AFD
:101040000029517A01D0014300E081435172704779
:101050000848416A01221206114341627047054A5D
:101060000146926800200A4200D0012070470149E1
:101070008872704700100240F64910B5884209D1C5
:10108000C41401212046FFF7C8FF00212046FFF7C6
:10109000C4FF10BD01218907884206D101210846FD
:1010A000FFF7C4FF002101201CE0EB49884206D174
:1010B00001210220FFF7BAFF0021022012E0E749D8
:1010C000884206D101211020FFF7B0FF0021102037
:1010D00008E0E349884208D101212020FFF7A6FF5C
:1010E00000212020FFF7A2FF10BDDE49884209D170
:1010F000841501212046FFF799FF00212046FFF7C4
:1011000095FF10BDD849884209D101210C04204621
:10111000FFF783FF00212046FFF77FFF10BDD34973
:10112000884209D101214C042046FFF776FF0021B7
:101130002046FFF772FF10BDCD498842FBD1012147
:101140008C042046FFF769FF00212046FFF765FF6A
:1011500010BD10B40288BF4B984206D00124A407EA
:10116000A04202D0BC4CA04203D17024A2434C88C0
:101170002243BA4CA04203D0BE4C22400C892243E9
:1011800002804A68C2620A880285984208D0B64A3C
:10119000904205D0B54A904202D0B54A904201D162
:1011A000897A01860121818210BC70470021C943E0
:1011B0004160002101800181418081727047018579
:1011C00082827047028870239A430A4302807047E4
:1011D00041627047C1627047406A7047008D704736
:1011E00002220029018801D0114300E091430180CF
:1011F000704704220029018801D0114300E0914387
:101200000180704780220029018801D0114300E04D
:10121000914301807047028808239A430280028824
:101220000A43028070470288924B1A40028002886B
:101230000A43028070470029018802D0012211432D
:1012400001E0490849000180704710B40A884B88C2
:10125000CC881A438B8823431A430B891A434B8942
:1012600089891A430A434030828010BC70470021AC
:10127000018041808180C1800181418181817047ED
:1012800040300029818803D00122D203114301E0BC
:101290004904490C8180704770B4028C5208520096
:1012A0000284048C8288038B7025AB439B080D88D5
:1012B0009B001D4302239C438E894B882643654C2B
:1012C0003343A04208D0684CA04205D0674CA042EE
:1012D00002D0674CA0420DD10824A343CC891C4303
:1012E00004239C438B882343624C22400C8A144382
:1012F0004A8A22438280058389684163038470BCE3
:10130000704770B4028C10239A430284048C828844
:10131000038B594D2B400D782D062D0C1D4320239A
:101320009C438B891B051E0C4B8826431B051B0CFD
:10133000484C3343A04202D04B4EB04219D14F4EDD
:1013400032400E8AB604360C3243A04211D18024BA
:10135000A343CC892405240C1C4340239C438B8845
:101360001B051B0C2343464C22404C8AA404240C2E
:1013700022438280058389688163038470BC70473F
:1013800030B4028C3F4B1A400284038C8288848BD9
:101390007025AC43A4080D88A40025433A4C234093
:1013A0000C7B2406240C1C438B781B061B0C23434C
:1013B000284CA04215D1324C23408C7B2406240CAF
:1013C0001C432E4B1C400B791B061B0C23432F4C3C
:1013D00022400C8A2405240C14434A8A1205120C5C
:1013E0002243828085838968C163038430BC70474F
:1013F00030B4028C264B1A400284058C8288838B81
:101400001D4C23400C782406240C1C43214B1D400A
:101410000B7B1B071B0C2B438D782D072D0C1D43BD
:101420000C4B984205D11C4B13400A8A9205120CB2
:101430001A438280848389680164058430BC7047C4
:10144000002101804180818081608181C181018290
:1014500041827047002C0140000400400010004011
:1014600000140040002000400040014000440140C2
:1014700000480140FFFC0000FF8C0000FFFB000063
:10148000FFF70000FFFE0000FFFD0000FFCF00009F
:10149000FFEF0000FFDF0000FFBF000030B4034695
:1014A00018330124058C8C40A5430584002911D0F4
:1014B00008290FD0091F0804400CC0180168072331
:1014C0001B039943016001681206120C114301606D
:1014D00030BC70474808C018016870239943016008
:1014E00001681143016030BC7047416370478163FC
:1014F0007047C163704701647047028B70239A4341
:101500000A4302837047028BFE4B09021A401143C3
:1015100001837047828B70239A430A43828370470A
:10152000828BF84B09021A401143818370470029CE
:10153000818802D00122114301E0490849008180DD
:101540007047028B08239A430A4302837047028B39
:10155000ED4B09021A40114301837047828B082327
:101560009A430A4382837047828BE74B09021A40F1
:10157000114381837047028B04239A430A430283F9
:101580007047028BE14B09021A40114301837047F7
:10159000828B04239A430A4382837047828BDB4BFE
:1015A00009021A40114381837047028B80239A43BA
:1015B0000A4302837047028B5204520C0902114302
:1015C00001837047828B80239A430A43828370474A
:1015D000828B5204520C0902114381837047028CA2
:1015E00002239A430A4302847047028C08239A43D9
:1015F0000A4302847047028C20239A430901114355
:1016000001847047028C80239A43090111430184AD
:101610007047028CBE4B09021A4011430184704787
:10162000028CB94B09021A40114301847047028CA5
:10163000B84B09031A4011430184704702890823FB
:101640009A43028102890A430281704710B4012340
:10165000048C8B409C430484038C8A401343038492
:1016600010BC704710B40423048C8B409C4304844A
:10167000038C8A401343038410BC70470422002962
:10168000818801D0114300E0914381807047828BB3
:10169000A14B1A408283828B09020A4382837047DE
:1016A000828B0C239A438283828B0A438283704706
:1016B000028B994B1A400283028B09020A43028370
:1016C0007047028B0C239A430283028B0A430283E6
:1016D0007047F8B5054608884E888A880B890C46FD
:1016E000002822D004282DD00828288C38D08B49F7
:1016F00008402884A88B2F8C3103894E1202304079
:10170000024318031043874AA88317400F4301215F
:1017100009030F432F84A079A98B7F4A1140A98325
:10172000A98B00020143A983F8BD3146284600F089
:1017300082F9E088298B0C2291432983298B01436C
:101740002983F8BD3146284600F05FF9A079298B3E
:10175000714A11402983298B000201432983F8BD76
:10176000714908402884A98B288C3702F3261B0175
:10177000B14313430B436D49AB830840FF2138430A
:10178000013108432884E088AA8B0C218A43AA836C
:10179000A98B0143A983F8BD00210180418001226A
:1017A0008280C18001817047F8B50C4649880027C6
:1017B00001260546002900D10227A288012A00D16E
:1017C0000226208823890028284619D000F01DF918
:1017D000A079298B504A11402983298B00020143AB
:1017E0002983238932463946284600F024F9E088C7
:1017F000298B0C2291432983298B01432983F8BD2E
:1018000000F019F9E088298B0C2291432983298B58
:1018100001432983238932463946284600F0F5F8EA
:10182000A079298B3C4A11402983298B000201436E
:101830002983F8BD406B7047806B7047C06B704761
:10184000006C7047002A828901D00A4300E08A4375
:1018500082817047818270470246128A00200A42C4
:1018600000D001207047C94301827047038A0022DB
:1018700080890B400840002B02D0002800D00122B4
:1018800010467047C94301827047114340300181BF
:101890007047002A828901D00A4300E08A4382818E
:1018A000704708220029818801D0114300E091434C
:1018B000818070470189C908C90001817047028988
:1018C00070239A430A4302817047028970239A4326
:1018D0000A4302810189072211430181704770B5D3
:1018E00016460D460446602924D00122314600F0F8
:1018F000A2F820897021884328432081208907216C
:10190000084315E0FF8F0000FFF70000FFFB000019
:10191000FFFD0000FFDF0000FFF30000FFEF00000D
:10192000FF0C0000FF5F0000FFFE0000FFF500005D
:10193000208170BD0122314600F067F8D9E710B46C
:1019400004891B021343E4B20B432343038110BCFD
:10195000704710B404891B021343E4B20B432343C2
:10196000038101890722C908C900114370229143EC
:101970001143018110BC704710B404891B0213434A
:10198000E4B20B43234303810189012292031143F3
:10199000018110BC7047828870239A4382808288BC
:1019A0000A43828070470289D208D20002810289EC
:1019B0000A4302817047028980239A430281028987
:1019C0000A430281704770B40589048B068CED08C8
:1019D000ED000D43224905810C40FF2102310C43EB
:1019E000AA218E431901114331430483018470BC41
:1019F000704780220029818801D0114300E0914383
:101A000081807047403001827047F0B4048C10260A
:101A1000B4430484058B048C124F1B0309013D4021
:101A20002B4312021A43A0239C430C4334430283EA
:101A30000484F0BC704770B4048C640864000484AF
:101A4000058B048C1B011343F3260A22B5439443F0
:101A50002B430C4301210C430383048470BC704767
:101A6000FCFC0000FF0C0000F64910B5884207D1CD
:101A700001218C032046FFF7D0FA0021204650E0D8
:101A8000F149884209D101214C042046FFF7CEFAE2
:101A900000212046FFF7CAFA10BDEC49884209D15F
:101AA00001218C042046FFF7C1FA00212046FFF7F0
:101AB000BDFA10BDE649884209D10121CC04204677
:101AC000FFF7B4FA00212046FFF7B0FA10BDE14954
:101AD000884209D101210C052046FFF7A7FA002111
:101AE0002046FFF7A3FA10BDDB49884206D1012149
:101AF0002020FFF792FA0021202012E0D7498842E7
:101B000006D101214020FFF788FA0021402008E09B
:101B1000D3498842E7D101218020FFF77EFA0021D6
:101B20008020FFF77AFA10BD30B5044600688BB00C
:101B30000D46400840002060606803210903884387
:101B4000A968014361602068C649EA68084069687D
:101B500011432A69024311432160A068032109024D
:101B6000884369690143A1606846FFF753F9B548A6
:101B7000844201D106980AE0B348844201D1079813
:101B800005E0B248844201D1089800E0029821683B
:101B90000904296800D5400001F048FF2A6852086E
:101BA0008A4200D8401C2168090404D50107AE4AC6
:101BB000490F10400843A0810BB030BD4B21C90133
:101BC00001600021416081600C22C16002614161BD
:101BD000704710B443680F22120293434C680A689E
:101BE00022438C68C9680C4322431A43426010BCEC
:101BF00070470021016041608160C1607047002929
:101C0000016802D00122114301E049084900016046
:101C10007047002A026801D00A4300E08A4302604C
:101C200070470122D2030029016801D0114300E06E
:101C30009143016070470122D2020029816801D0DE
:101C4000114300E09143816070470122D2040029D2
:101C5000416801D0114300E0914341607047012287
:101C600092040029416801D0114300E09143416092
:101C70007047002A426801D00A4300E08A4342606C
:101C800070470122D2030029416801D0114300E0CE
:101C90009143416070470122D2050029416801D07B
:101CA000114300E09143416070474269120E1206F1
:101CB000426142690A4342617047028A120A120273
:101CC0000282028A0A4302827047022200290168C6
:101CD00001D0114300E09143016070478268032303
:101CE0001B059A43826082680A4382607047012222
:101CF00012050029416801D0114300E09143416081
:101D00007047426803235B059A43426042680A4376
:101D100042607047C905C90D01857047808CC005B8
:101D2000C00D704742681202120A426042680906FA
:101D30000A4342607047012252030029016801D022
:101D4000114300E091430160704702680123DB0208
:101D50009A43026002680A43026070474268102397
:101D60009A43426042680A434260704742682023B7
:101D70009A43426042680A434260704701229203DC
:101D80000029416801D0114300E091434160704750
:101D900008220029816801D0114300E0914381604D
:101DA0007047028AD2B20282028A09020A43028280
:101DB000704720220029816801D0114300E091433F
:101DC0008160704710220029816801D0114300E032
:101DD000914381607047826807235B049A43826065
:101DE000826849040A438260704742691202120AFB
:101DF0004261426909060A434261704782680423CE
:101E00009A43826082680A438260704702220029F6
:101E1000816801D0114300E0914381607047012245
:101E200092030029816801D0114300E09143816051
:101E3000704782680123DB039A43826082680A4309
:101E40008260704700380140004400400048004074
:101E5000004C0040005000400014014000180140B8
:101E6000001C0140F3E9FFFFF0FF000002681F23A0
:101E70005B059A430260026849050A4302607047A5
:101E800002681F231B049A430260026809040A4384
:101E900002607047002A826801D00A4300E08A434A
:101EA00082607047826801235B039A438260826884
:101EB0000A438260704710B40B041C0E01238B4050
:101EC000022C02D0032C02D002E0001D00E00830FA
:101ED0000168002A01D0194300E09943016010BC59
:101EE0007047002A028B01D00A4300E08A43028334
:101EF0007047826801231B039A43826082680A4309
:101F0000826070470246D26900200A4200D0012058
:101F100070470162704730B40A04130E0124224650
:101F200000258A40012B0FD0022B10D0836813406C
:101F3000090CC0698C402040002B02D0002800D042
:101F40000125284630BC704703681340F0E743681A
:101F5000EDE7090C01228A400262704706480047FB
:101F6000FEE7FEE7FEE7FEE7FEE7FEE7034804497B
:101F7000024A044B70470000C1000008E00E002038
:101F8000E0100020E00E00207047704700207047EE
:101F9000002A01D0012070470020704700207047C0
:101FA0000146803104D0002801DA404240B2704737
:101FB0007F2070471B49884201D1400C70470028A0
:101FC000FCDA404200B270470121C907884201D1C2
:101FD000401E70470028FCDA404270470122D207B9
:101FE0004A40024302D1501E410870470029FCDAE2
:101FF0000A4600214042914170470B49884201D373
:1020000009024840704770B5002205460C46134649
:1020100001F0DAFE02D20120C007444028462146E2
:1020200070BD00000080FFFF000080800121C176AC
:10203000002181767047F0B506461A3683B0044613
:102040000427CE4D63E0A07E062872D203007B44B5
:102050001B79DB189F44020C1A2D555F5520207701
:1020600000206077606955210268904701204DE0AB
:10207000207F217A40182077606902689047207A93
:102080000221552811D002280FD00CE0207F217E9C
:1020900040182077606902689047207E0321552808
:1020A00003D0022801D0317031E068702970377098
:1020B0002DE0617FE068237F425CD2182277415C8B
:1020C000606902689047607F227A411C9142E16812
:1020D00007D108180078052155280ED002280CD009
:1020E00006E0081800780321552806D0022804D0FD
:1020F0003170607F401C607709E06870297037702C
:10210000F7E760690021026890472878A076E07EB2
:10211000012812D098E0207F552801D0022801D153
:10212000C0432077C1B26069026890476069416925
:1021300088470020E076607689E06069C16888475A
:10214000002880D180E0606941688847627E21462E
:102150001931062A16D213007B441B79DB189F44E1
:1021600002071F2B495655286ED1207701204AE0DF
:10217000002807D0627A824206D21521204600F05C
:1021800032F961E000203EE0227F121822772072AF
:10219000002262770222552828D0022826D023E088
:1021A000227E8242EED1227F121822770322552806
:1021B0001CD002281AD017E0227F12182277637FE2
:1021C000E268D054627F521CD2B26277237A9A427C
:1021D00005D10522552809D0022807D004E00322A2
:1021E000552803D0022801D00A702DE068702A70AB
:1021F0000F7029E0002808D069785529C2D141180C
:1022000021772072022060761EE02878FBE7217F8C
:10221000552901D0022901D1C9432177C9B2814290
:102220000ED1E06800781A2805D821698000095885
:102230002046884708E02121204600F0D4F803E03A
:102240001321204600F0CFF8E07E002805D1606918
:1022500081688847002800D075E7494E3068816A58
:10226000002979D0806A40304078042874D16069B0
:102270000169884701463068826A4032127C121D2B
:1022800091426BD3816A40318A89816A40314989A0
:102290008A4263D3806A00214030818160690221D3
:1022A000026890473068806A4030017C606902684B
:1022B00090476069217E026890473068806A4030AC
:1022C000817B6069026890473068806A4030C089CD
:1022D000010A6069026890473068816A227E403155
:1022E000097C8A18816A806A4031897B4030C089C4
:1022F000000A08181018801CC7B20025A800001D8D
:10230000029000262846243001901D480068816A0A
:1023100002980858805D00906069009902689047B3
:1023200000983818C7B21648761C0068B6B2816AA1
:102330000198085CB042E8D811486D1C0068ADB245
:10234000806A4030407AA842D8D8022F00D1FD27B9
:10235000606939460268904703B0F0BD6868401C68
:10236000686003B0F0BDC160427203760549016048
:10237000054941600021C176417670471000002078
:102380003C000020372000082D2000087047002066
:10239000704700207047002070470020704770474A
:1023A0000749016007494160074981600749C160E9
:1023B0000749016107494161704741617047000069
:1023C0009F2300089B2300089723000893230008FD
:1023D0008F2300088D23000802210172C268212189
:1023E00051704168084702220272C2685170416808
:1023F0000847F0B4417A2E2907D215210222027231
:10240000C26851704168F0BC08472E210172C26851
:1024100000215170C36805229A70C268FA4BD170CE
:1024200019680A8CC46822710A8CC468120A627125
:10243000C468427AA271C4682022E271C46883220F
:102440002272C4684A226272C4686122A272C4689D
:102450006E22E272C46832222273C56839246C731A
:10246000C468A273C2683024D473C56831222A7448
:10247000C66836257574C568AA74C6683325F574B0
:10248000C5682A75C26854754A6A002A69D04A6AC2
:10249000C4681278A2754A6AC4685278E2754A6ABA
:1024A000C468927822764A6AC468127962764A6A67
:1024B000C4685279A2764A6AC468D279E2764A6AD6
:1024C000C468127A22774A6AC468527A62774A6A82
:1024D000C468927AA2774A6AC468D27AE2774A6A72
:1024E000147BC268203214704A6A947BC26820321E
:1024F0005470496ACA7BC16820318A7019680B7BA5
:10250000C2682032D370CA89C36820331A71CA895D
:10251000130AC268203253710A69C36820339A7162
:102520000A69C368120A2033DA710A69C368120C97
:1025300020331A720A69130EC26820325372C268BD
:1025400020329172C3680A0A2033DA72C3680A0C17
:1025500020331A730A0EC16820314A734168F0BCF7
:1025600008470C212D220C46C56816342A550C4606
:10257000491EC9B2002CF6D1C0E7F8B5C1680446BF
:1025800088784A780002801886B29F4802681368EB
:102590003746002B01D0002004E00020432311E047
:1025A000401C80B2C500AC465D5BBD4202D0002D30
:1025B000F6D112E0C000185A00280ED06046C018AC
:1025C0004068002302258446002B09D02572E1686B
:1025D00020464B7061688847F8BD00204023F1E732
:1025E0009068002824D0002001E0401C80B2976849
:1025F000C300FF5AB74203D09768FF5A002FF4D1A7
:102600009668C000305A002812D090681B1DC3582D
:10261000207AC01EC2B2C91C604698470028DBD091
:102620002572E26842215170616820468847F8BDF2
:102630005068002803D060460788002009E0257212
:10264000E26844215170616820468847F8BD401C0B
:1026500080B2566818234343F65ABE4203D05668E8
:10266000F65A002EF3D1566818277843305A0028BE
:1026700012D050681033C358207AC01EC2B2C91C91
:102680006046984700280FD02572E26814215170E7
:10269000616820468847F8BD2572E2684121517083
:1026A000616820468847F8BD2572E16800204870BF
:1026B000616820468847F8BDF8B5C1680446887847
:1026C0004A780002801886B24F48036818680028CC
:1026D00001D0002204E0002643220FE0521C92B2F7
:1026E000D700C55BB54202D0002DF7D110E0D20073
:1026F000825A002A0CD0381846680022002A0AD0D4
:1027000002212172E16820464A7061688847F8BD5D
:1027100000264022F2E75868002802D037880020BF
:102720000AE0442102222272E26820465170616868
:102730008847F8BD401C80B25D6818224243AD5AFC
:10274000BD4203D05D68AD5A002DF3D15D681827F6
:102750007843285A00280ED058680C328258891CB9
:1027600030469047801C2072E16800204870616804
:1027700020468847F8BD412102222272E2682046A5
:10278000517061688847F8BD30B4C16800224D7847
:102790001D4902240968062D15D22B007B441B79A4
:1027A000DB189F44020406080A0D002306E00123FB
:1027B00004E00C7308E0032300E004230B7303E040
:1027C00005230B7300E02222C1684A70047241683D
:1027D00030BC0847C268002151700B490968097B69
:1027E000C2689170032101724168084710B4074B19
:1027F000074A00218C00491C89B213511A29F9D9C2
:10280000026110BC704700003C000020D923000882
:102810004000002000690549016005494160054903
:10282000816005498164054941647047F3230008CC
:10283000D5270008892700087B250008B92600084D
:10284000F8B5C16805468A78487812028218C878B7
:102850000B7900041B06C0181018A04B0788002233
:102860001B6801E0521C92B25E6818245443365B28
:10287000BE4203D05E68365B002EF3D15E68182737
:102880007A43B25A002A0ED05A68103413592A7A61
:10289000521FD2B2491D9847002809D0142128465A
:1028A000FFF7A1FDF8BD41212846FFF79CFDF8BDCB
:1028B00002202872E9680020487069682846884725
:1028C000F8BDF8B5C16805468A78487812028018C4
:1028D000CA780B7912041B06D21886187F483788ED
:1028E0000022036801E0521C92B258681824544335
:1028F000005BB84203D05868005B0028F3D15868E9
:1029000018277A43805A00280ED058680C34025990
:10291000891C30469047801C2872E9680020487066
:10292000696828468847F8BD41212846FFF75BFDC6
:10293000F8BDF8B5C268467A54790021A51C937990
:10294000AC46AE4201D215214AE09678557836025F
:10295000AD19D678127936041206B218AA18012BCE
:1029600005D0022B10D0042B1FD0142138E00023F7
:10297000002C38D99D1C1678C7685B1C521C9BB272
:102980007E55A342F6D329E00023002C2BD99D1CB1
:10299000C76816787E551688C768360ADB1CFE5451
:1029A000921CABB2A342F2D318E00023002C1AD938
:1029B000C76816789D1C7E551588C7682E0ADD1CD1
:1029C0007E551568C7682E0C1D1D7E5540CAC76808
:1029D000360E5B1DFE54ABB2A342E9D3002902D0F0
:1029E000FFF701FDF8BD62460272C268517041688E
:1029F0008847F8BD00693A4941623A49C1613A499C
:102A000001627047F8B50446C068827841781202C6
:102A10008918C278037912041B06D2188D18217AFE
:102A20004779891FCEB23946304600F0FFFF0029B2
:102A300005D1012F08D0022F13D0042F25D0142147
:102A40002046FFF7D0FCF8BD0020002E38D9811DAC
:102A5000E268401C515C29706D1C80B2B042F6D314
:102A60002EE00020710800292AD9760841008B1D2C
:102A7000E268C91D515CD35C090259182980401CC9
:102A8000AD1C80B28642F1D81AE00020B1080029BE
:102A900016D9B7088100E2688B1DD65CCB1DD35CCC
:102AA000401C1B02F6180B4608330931D35C515CFD
:102AB0001B0409065918711802C580B28742E9D86B
:102AC00002202072E1680020487061682046884733
:102AD000F8BD006905498162704700003C00002094
:102AE00033290008C328000841280008052A0008E7
:102AF00010B4134A002110680160416081600173C5
:102B0000C181016181820846146883001B199961A3
:102B1000401CC0B20228F7D3106801844162816270
:102B2000C16210BC7047064909688A8A022A05D228
:102B30008A8A93005B18521C8A8298617047000051
:102B40003C0000200021C943018000210A468B007F
:102B50001B185A6043182033491CC9B21A7108293E
:102B6000F5D342638263FD49C263C16201464031CD
:102B70000A704A7042640A724A724A818A81CA8122
:102B80000A74426582650A77F54901236422016669
:102B900013540163F349096888627047F0B5014630
:102BA00040314A780425002482B0092A0FD213004C
:102BB0007B441B79DB189F440AA10C0A044575F974
:102BC000F800C889401CC8818889401C888102B0EF
:102BD000F0BD8A89531C8B814B899A422DD30022E8
:102BE0008A819446024640320446019263469B0025
:102BF0001B19009363460022E31820339E46009B76
:102C0000E76A5B689E5C636C521C5D1C6564FE54E5
:102C100073461B79D2B29342F1D86246521CD2B2AB
:102C20009446019A537A6345E0D80A7A606C821818
:102C3000CB48824201D900204870C889401CC88115
:102C400002B0F0BD0A78012A0ED0022A1BD0042A55
:102C5000F6D1836B426B934233DAC36B1B689342AA
:102C60002FDB4D7002B0F0BD028F53B2828E52B294
:102C7000934204DAC46B0023E3569342F1DAC26B49
:102C8000002151561FE0028F13B2828E12B293427E
:102C900004DAC46B0023E35E9342E2DAC26B0021E4
:102CA000515E10E00A78012A10D0022A1AD0042AB4
:102CB000D8D1836B426B934203DDC36B1B68934295
:102CC000CFDDC16B0968816302B0F0BD028F53B2E2
:102CD000828E52B29342D2DDC46B0023E3569342FC
:102CE000BFDDCCE7028F13B2828E12B29342D5DDE4
:102CF000C46B0023E35E9342B3DDCFE70B78012B77
:102D000004D0022B07D0042B0BD108E0C26B127841
:102D10001206121605E0C36B00229A5E01E0C26B38
:102D2000126800928A89531C8B814B899A4228D35E
:102D30008C810B7A826DD318894A934200DD8465B9
:102D40000024A3001B189E460022031920339C4632
:102D500073465B68C76A9E5C836D521C5D1C85650B
:102D6000FE5463461B79D2B29342F1D8641C4A7A6E
:102D7000E4B2A242E5D8836D426D934201DB0122A9
:102D80000A7764231B5C009A012B846B436B0ED083
:102D90009C4210DD93420EDB0A7F002A0BD0426D6D
:102DA000002A0CDC826508205BE00CE019E09C4204
:102DB00001DA9342F0DD0099816302B0F0BD826DCB
:102DC000426407204DE08A89531C8B814B899A42CB
:102DD000F3D38C810B7A826DD2188265EDD40220F8
:102DE0003FE08A89531C8B814B899A42E5D30022AC
:102DF0008A810B7A426CD318594A934201D9002236
:102E000042640022944602464032044601926346E0
:102E10009B001B19009363460022E31820339E4653
:102E2000009BE76A5B689E5C636C521C5D1C65647A
:102E3000FE5473461B79D2B29342F1D86246521CBB
:102E4000D2B29446019A537A6345E0D8436C826DBE
:102E5000D31A426D934203D0206E18189042ACD81A
:102E60000020487002B0F0BD0246403253780B702B
:102E7000537A4B70937A8B705289120ACA70426CE3
:102E80000A71426C120A4A71426C120C8A71426CCD
:102E9000120ECA71828D0A72828D120A4A72C26A39
:102EA000120C8A72C26A120ECA72426D0A73426DA5
:102EB00012124A73426D12148A73426D120ECA7353
:102EC000826D0A74826D12124A74826D12148A74B1
:102ED000826D120ECA74026E0A75026E120A4A756B
:102EE000026E120C8A75026E120ECA75028E0A7676
:102EF000028E120A4A76026B120C8A76006B000E62
:102F0000C8761C20704710B4002810D0002201E0C1
:102F1000521C92B2D300C45A8C4202D0002CF7D17A
:102F200007E0D100415A002903D01818406810BCAE
:102F3000704710BC00207047F7B5054684B00020EC
:102F400002900C460698042104287AD36078082859
:102F500077D8002875D000202E4605E0AC00002070
:102F6000B80B00003C000020403670707072F08199
:102F70006864E378A2781B02D2187281B281A863D8
:102F80003072022232743077A865607800287DD9CB
:102F9000605C491CCFB2002867D0012804D0022809
:102FA0003DD003284DD14DE0E0194278E15D120299
:102FB000891889B200918178C0780002081881B21E
:102FC000A34800680068FFF79EFF0190002838D0F2
:102FD00003889F4800684268002001E0401C80B2DE
:102FE000182141438C46515A994202D00029F5D10B
:102FF00013E018214843105A00280ED0604680186C
:1030000000281ED0426900990198904702998900D2
:1030100049194860002814D036E00020F0E7E01994
:103020008178C0780002081881B289480068006879
:10303000FFF769FF002804D0029989004919486008
:1030400022E087E0E0198178C0780002081881B298
:103050007F4800680068FFF756FF00287AD00168B3
:1030600002988000401941600EE0E0194278E15D6D
:10307000120289188278C078120400061018091804
:103080000298800040194160E01900E01CE00179DD
:103090000298281820300171327A5118C9B2317261
:1030A000327C0079101830746A4800F0BFFC69481F
:1030B0007F1D401A28660298F9B2401CC0B20290E7
:1030C0006278824200D963E7605C491C3070C9B203
:1030D000605C491CCFB200287ED0012804D00228B1
:1030E0003BD0032836D146E0E0194278E15D120278
:1030F000891889B200918178C0780002081881B2DD
:10310000534800680068FFF7FEFE0190002879D060
:1031100003884F4800684268002001E0401C80B2EC
:10312000182141438C46515A994202D00029F5D1C9
:1031300011E018214843105A00280CD0604680182E
:1031400000285FD04269009901989047E863002801
:1031500058D01FE056E00020F2E7E0198178C078EF
:103160000002081881B23A4800680068FFF7CBFEF9
:10317000002847D00DE0E0198178C07800020818D7
:1031800081B2334800680068FFF7BDFE002839D0DF
:103190000068E8633F1DF8B221184B78225C1B02DF
:1031A000D2188B78C9781B04090659185118001DCC
:1031B000C0B2696321184B78225C1B02D2188B784D
:1031C000C9781B04090659185118001D6965C0B259
:1031D000225C64214A5500E008E0401C0699C0B218
:1031E000814221D9205C01280FD016E0E0194278F5
:1031F000E15D120289188278C07812040006101866
:103200000818C6E7012007B0F0BD3178012915D0B4
:10321000022918D004290ED0A86360787072207833
:103220007070002007B0F0BD3178012906D0022966
:1032300009D00429F0D1E86B0068EDE7E86B00786D
:1032400000060016E8E7E96B0020085EE4E70000EE
:103250003C000020B80B000070B53249304888802F
:103260003149002088803149012248828882304BD0
:10327000887592039A80304B2E4C5C829882FF2294
:103280002E4DD8820732AA802D4AD48110825082D6
:1032900090822C4848602C4888602C48C8602D4992
:1032A0002B4899605860916050602C482A49016011
:1032B0002B4941601A3800F06FFA1B4800F06CFA95
:1032C0001A4800F035FAA81F00F066FA1A4800F014
:1032D000FEFA284600F060FA194800F067FB214822
:1032E000FFF730FC70BD10B5154800F02FFB0F48FC
:1032F00000F006FA104800F06FFA1A48FFF74EFC8B
:1033000010BD10B50E4800F021FB084800F0F8F998
:10331000094800F061FA1348FFF740FC10BD0000B7
:10332000FF7F00001A00002020000020640C002015
:10333000260000209A1900007C0C00202C000020A0
:10334000940C002022000020A00C00201C00002073
:10335000280000202E00002018000020340000204B
:10336000740C0020AC0C0020F0B5012189B0880558
:10337000FDF738FE01210803FDF720F89948FDF715
:103380009FFB0020FDF79FFB5220FDF79FFBFDF701
:10339000A0FBFDF7A5FB0C206946087001258D7088
:1033A00000244C706846FDF7ADFB0121C804FDF711
:1033B00010FE6846FDF731FB0320000200906946CD
:1033C0000D718C71884ECC714C713046FDF7ECFA62
:1033D0000121C802FDF706FE844F3846FDF74CFE7A
:1033E00005A8FDF7E3FE6846FEF72AF84B204001EA
:1033F000069069468C828C832020C88205A93846B5
:10340000FDF7A7FE6020694608804D80384602958A
:10341000FDF7EEFF7020694608804D80042088800B
:103420004B200001029002208881CC81C0010882DB
:103430004C823846FDF730FF01213846FDF7FBFE90
:1034400001213846FDF71CFF01214804FDF7C1FDAD
:1034500001214802FDF7C6FD03206946069508775D
:10346000CC7706A93046FDF79FFA614D2846FCF758
:103470007BFE6846FCF79BFE694600940C7128159C
:10348000029040200390049405942846FCF77BFEAC
:10349000012204212846FCF754FF0022012128467E
:1034A000FCF7F6FE2846FCF716FF01212846FCF73C
:1034B00086FE01212846FCF74CFF0028F9D028465B
:1034C000FCF725FF09B0F0BD10B50120FCF791FF16
:1034D0000120FCF787FF0120FDF7BAFB0120FDF773
:1034E0007CFB0028FAD00521C9040020FDF7F9FB78
:1034F0000020FDF73AFC0020FDF73EFC0120FDF71F
:10350000FDFB1920FDF769FB0028FAD00220FDF72A
:1035100020FCFDF725FC0828FBD110BD10B580214B
:103520003448FEF7EFFC10BD10B520213148FEF7FE
:10353000E9FC10BD10B52F48FEF7F0FBC0B210BD7E
:1035400010B52C48FEF7E6FB10BD30B5044601214E
:1035500089B08803FDF746FD6846FEF72FFBE120A2
:1035600040020090002001900290039005900C20F2
:10357000204D049069462846FEF7D6FA01212846D8
:10358000FEF73DFB1C4820601C4860601C48A060A2
:103590001C480121E0604804FDF71BFD0921CC0611
:1035A00001222046FDF76EFA01220A212046FDF78E
:1035B00069FA06A8FDF731FA0321490206910221B2
:1035C000684601770321417706A92046FDF7ECF90B
:1035D00009B030BD10B500F052F804210448FCF7E2
:1035E000D3FE10BD5555000000080048002C0140D6
:1035F00000240140003801404135000835350008FD
:10360000293500081D350008FFF75EFFFFF770FA47
:103610003048FEF7C5FE2F48FFF797FF0123FF2232
:103620002D492E48FEF79FFE2C48FFF7DFF82B4868
:10363000FFF7F0F82948FFF7DDF92848FFF773FA9C
:1036400024492648FEF7B9FEFDF743FA2448012134
:1036500000680184234941620121017322494160CC
:1036600022490160FFF7F8FDFDF733FAFFF77CFE12
:10367000FDF72FFA194C194821688847FBE770B508
:1036800009200121C006FDF7DFF91949002800D003
:1036900018480880FFF735FE174CFF212068174DAA
:1036A00002880131002A28460DD0FDF7DFF9606855
:1036B0000121008849020028284607D0FDF7D6F9E5
:1036C000FDF707FA70BDFDF7D3F9F0E7FDF7D0F984
:1036D000F6E70000440D00207C0D00205C0D00206A
:1036E0003C0000201C3F00082C3E0008BC3E0008A7
:1036F00018000020FF7F0000340000200008004870
:1037000082680021515E1222825E914201DB01211A
:1037100004E01422825E914201DA00218175817DEC
:10372000002901D0416800E0C16809880182704722
:10373000812101800021018281757047827C0A709D
:10374000428A12124A70027D8A70808A0012C87002
:1037500004207047042A01D0012070474B780A7872
:103760001B02D21842828A78C978090251188182D4
:1037700000207047012907D0022907D0032907D06C
:10378000042907D000207047406870478068704760
:10379000C0687047103070473121018081884180B6
:1037A000704702790A7080880012487002207047C2
:1037B0000346022A01D0012070470878497809029F
:1037C00041189980002059807047012901D00020BC
:1037D0007047801C70470000F0B5826812210023FA
:1037E000415ED35EC28A594301239B03C918C913A2
:1037F00051180AB21104090E514D4C00C282295FC2
:1038000066190224345FD6B2641A74432412611814
:103810000CB246680021715E4A4E4C43E318DC133B
:103820001423C35E1C19B44201DD344604E0454E46
:103830007642B44200DA344624B2A646424C141909
:103840002604360E77003E4EE4B2F55FBF1902261D
:10385000BE5F761B66433412641925B20C466C4376
:103860000125AD036419E413364D1C19AC4201DD8A
:103870002C4604E0334E7642B44200DA344624B299
:10388000A446314C2E4E644212191404240E6700D3
:10389000F45FBF190226BE5FD2B2361B5643321206
:1038A000121912B25143012292038918C9135918EF
:1038B000A94201DD294604E0224A5242914200DA3F
:1038C0001146724682816246C2810182F0BDFF21AB
:1038D000B231018000218181C1810182C1827047A2
:1038E000827C0A70428A12124A70027D8A70808A33
:1038F0000012C87004207047042A01D001207047CC
:103900004B780A781B02D21842828A78C978090259
:10391000511881820020704700B50B0000F047FA73
:10392000060E0406080A0C0E406800BD806800BD43
:103930000C3000BD0E3000BD103000BD002000BDB9
:10394000303F0008FF7F0000ABAAFFFF30B5826860
:103950000E210023415ED35E01245943A4030919BB
:10396000828AC91351188182028A2E4D89180A044D
:10397000120E5300EA5E5D190223EB5EC9B29B1A78
:103980004B43191289180AB243680021595E51430A
:1039900012220919825EC9135118234A914202DC8E
:1039A0005242914200DA1146818130BDFF21A2319D
:1039B00001800021818181827047827B0A70C289E7
:1039C00012124A70027C8A70028A1212CA70827CB9
:1039D0000A71408A0012487106207047062A01D0F9
:1039E000012070474B780A781B02D218C281CB782D
:1039F0008A781B02D21802820A7949790902511881
:103A0000418200207047012905D0022905D00329F1
:103A100005D00020704740687047806870470C30C0
:103A200070470000303F0008FF7F000000220309BC
:103A30008B4273D3030A8B4258D3030B8B423CD384
:103A4000030C8B4221D312E003460B437FD40022A8
:103A500043088B4274D303098B425FD3030A8B4222
:103A600044D3030B8B4228D3030C8B420DD3FF228C
:103A7000090212BA030C8B4202D31212090265D05A
:103A8000030B8B4219D300E0090AC30B8B4201D30D
:103A9000CB03C01A5241830B8B4201D38B03C01A54
:103AA0005241430B8B4201D34B03C01A5241030BCB
:103AB0008B4201D30B03C01A5241C30A8B4201D37C
:103AC000CB02C01A5241830A8B4201D38B02C01A27
:103AD0005241430A8B4201D34B02C01A5241030A9E
:103AE0008B4201D30B02C01A5241CDD2C3098B4283
:103AF00001D3CB01C01A524183098B4201D38B0100
:103B0000C01A524143098B4201D34B01C01A5241A2
:103B100003098B4201D30B01C01A5241C3088B42E7
:103B200001D3CB00C01A524183088B4201D38B00D2
:103B3000C01A524143088B4201D34B00C01A524174
:103B4000411A00D201465241104670475DE0CA0F4B
:103B500000D04942031000D34042534000229C460B
:103B600003098B422DD3030A8B4212D3FC22890115
:103B700012BA030A8B420CD3890192118B4208D3EB
:103B8000890192118B4204D389013AD0921100E04D
:103B90008909C3098B4201D3CB01C01A5241830961
:103BA0008B4201D38B01C01A524143098B4201D38E
:103BB0004B01C01A524103098B4201D30B01C01AB9
:103BC0005241C3088B4201D3CB00C01A5241830833
:103BD0008B4201D38B00C01A5241D9D243088B4289
:103BE00001D34B00C01A5241411A00D2014663462C
:103BF00052415B10104601D34042002B00D5494290
:103C0000704763465B1000D3404201B50020C046B8
:103C1000C04602BD7047704770470000F8B5224C9F
:103C20004E00069DA6420AD8A64201D1002806D120
:103C30005E00A64203D8A6420AD1002A08D00D246D
:103C4000240425422CD02946002000F02FF8F8BD8E
:103C50000C461C430CD4994202D0EFF30080F8BD0F
:103C6000904202D0EFF30080F8BDEFF30080F8BD82
:103C700009242407E5008B4206D0EFF30080A0431F
:103C8000591A06D2284304E0101A05D3EFF3008036
:103C9000A04380F30088F8BDEFF30080A043F1E774
:103CA000009500F01BF8F8BD0000E0FFCA0210D537
:103CB0004A03520F04D0C803C04301218840704713
:103CC000054AEFF3008108010009104380F30088E2
:103CD00070470020704700000000003010B5002041
:103CE0000249029A00F029F810BD00000000F87F98
:103CF000754600F051F8AE46050069465346C008C7
:103D0000C000854618B020B5FEF730F960BC00272A
:103D10004908B6460026C0C5C0C5C0C5C0C5C0C597
:103D2000C0C5C0C5C0C5403D49008D46704704466A
:103D3000C046C0462046FCF710FA10B50C461107E5
:103D4000090F092904D00A290AD008290CD104E056
:103D500011460820FFF7AAFF06E0510606D501E04C
:103D6000510601D50120C007214610BDD10607D557
:103D700001010909CC084907000E0006044309E0C7
:103D8000410F20024907000A0143200E00061D22B0
:103D9000D14101430846E7E7004870477C0E002008
:103DA00001491820ABBEFEE726000200704730B480
:103DB0007446641E2578641CAB4200D21D46635DC8
:103DC0005B00E31830BC184770B501250C002D05C9
:103DD0001C4310D4EC4206D4AC420AD4994200D021
:103DE00070BD904270BDE94217D4EB4215D49942A0
:103DF00070BD894270BDEC4206D5AC42F9D58B420C
:103E000000D070BD824270BD6D004C00EC4204D207
:103E10005C00EC4201D28B4270BD034C30B4FFF722
:103E2000FDFE30BC70BD00BF19001604310000005B
:103E30008B1F000899370008A3370008B137000826
:103E4000CB37000881000000013700083137000837
:103E50003D3700085537000875370008B1010000EC
:103E6000D9370008CF380008E1380008F9380008D1
:103E700019390008A10100004D390008AD390008CA
:103E8000BB390008DD390008073A0008FFFF0000D1
:103E90009D2B0008452B0008692E0008392F0008CB
:103EA0000000000000000000000000000000000012
:103EB0000000000000000000000000000100000001
:103EC0002600002002000000640C00200300000017
:103ED0002C0000200400000020000020050000004D
:103EE0001A000020060000007C0C002007000000E3
:103EF000940C002008000000AC0C00200900000019
:103F0000180000200A000000340000200B00000010
:103F10003800002000000000000000004A616E2010
:103F20003239203230313631333A31303A3336009B
:103F30000000240348066A098C0CAB0FC812E21576
:103F4000F9180B1C1A1F2322282526281F2B112E97
:103F5000FB30DF33BA368C39563C173FCE417A44BA
:103F60001C47B4493F4CBF4E33519B53F555425803
:103F7000825AB35CD75EEB60F162E864CF66A668F4
:103F80006D6A236CC96D5E6FE2705472B57304750F
:103F900041766B77847889797C7A5C7B297CE37CB9
:103FA000897D1D7E9C7E097F617FA67FD87FF57FFE
:103FB000FF7FF57FD87FA67F617F097F9C7E1D7E76
:103FC000897DE37C297C5C7B7C7A897984786B773A
:103FD00041760475B5735472E2705E6FC96D236CDF
:103FE0006D6AA668CF66E864F162EB60D75EB35C89
:103FF000825A4258F5559B533351BF4E3F4CB449FA
:104000001C477A44CE41173F563C8C39BA36DF33D1
:10401000FB30112E1F2B2628282523221A1F0B1CAC
:10402000F918E215C812AB0F8C0C6A094806240374
:104030000000DCFCB8F996F674F355F038ED1EEA92
:1040400007E7F5E3E6E0DDDDD8DADAD7E1D4EFD152
:1040500005CF21CC46C974C6AAC3E9C032BE86BB0F
:10406000E4B84CB6C1B341B1CDAE65AC0BAABEA7A6
:104070007EA54DA329A1159F0F9D189B31995A9795
:104080009395DD933792A2901E8FAC8D4B8CFC8A5A
:10409000BF8995887C8777868485A484D7831D8390
:1040A0007782E3816481F7809F805A8028800B802B
:1040B00001800B8028805A809F80F7806481E38193
:1040C00077821D83D783A484848577867C879588AF
:1040D000BF89FC8A4B8CAC8D1E8FA2903792DD93EA
:1040E00093955A973199189B0F9D159F29A14DA320
:1040F0007EA5BEA70BAA65ACCDAE41B1C1B34CB68F
:10410000E4B886BB32BEE9C0AAC374C646C921CC96
:1041100005CFEFD1E1D4DAD7D8DADDDDE6E0F5E39B
:1041200007E71EEA38ED55F074F396F6B8F9DCFCB3
:104130000000000054410008000000204000000082
:10414000040100089441000840000020A010000075
:104150002001000800000000010203040102030422
:104160000607080900000000000000000000000031
:10417000000000000000000000000000000000003F
:10418000000000000000000000000000000000002F
:04419000140D0020EA
:0400000508001F5D73
:00000001FF
